:100000000C94A2000C948A010C94C3000C94C300BD
:100010000C94C3000C94C3000C94C3000C94C30054
:100020000C94C3000C94C3000C94C3000C94C30044
:100030000C94C3000C94C3000C94C3000C94AE0B3E
:100040000C94C3000C94C3000C94C3000C94C30024
:100050000C94C3000C94C3000C94C3000C946F0B5D
:100060000C94C3000C94C3000C94C3000C94C30004
:100070000C94C3000C94C3000C94C3000C94C300F4
:100080000C94C3000C94C3000C94C3000C94C300E4
:100090000C94C3000C94C3000C94C3000C94C300D4
:1000A0000C94C3000C94FB020C94C3000C94C3008A
:1000B0000C94C3000C94C3000C944F030C94C30025
:1000C0000C94C3000C94C3000C94ED0B0C94C3006F
:1000D0000C94C3000C94C3000C94C3000C94C30094
:1000E0000C94C3000C94E9020C94D1020C94DD0230
:1000F0000C943C090C940C090C9418090C94780984
:100100000C94E8080C94CB020C9430090C949009E0
:100110000C9448090C94D7020C9424090C94E30223
:100120000C946C090C94C5020C94EF020C94F40826
:100130000C9454090C9460090C94F5020C948409F5
:100140000C94000911241FBECFEFD1E2DEBFCDBF5A
:1001500000E00CBF12E0A0E0B2E0E0E9F4E200E071
:100160000BBF02C007900D92A437B107D9F722E068
:10017000A4E7B2E001C01D92AD3AB207E1F70E94D8
:100180005B070C942E120C940000EAE0F1E08081F1
:10019000877F808380818B7F8083EBE0F1E08081AB
:1001A00088608083808184608083089552985A9A01
:1001B0008198599A53985B9A08955098E9E6F0E02F
:1001C000808183608083E89A08958091090183FB90
:1001D000882780F991E0892708958091090182FBA1
:1001E000882780F991E08927089589B182FB8827C3
:1001F00080F991E08927089589B18695817091E011
:100200008927089589B183FB882780F991E08927A0
:10021000089589B1817008950E94F5008823A9F09E
:100220008091780290917902892B11F080E00895F5
:100230008FE39CE90197F1F700C0000081E090E0B6
:1002400090937902809378020895209178023091FA
:100250007902232B61F3EFE3FCE93197F1F700C05A
:100260000000109279021092780208950E94FC001A
:100270008823A9F08091760290917702892B11F062
:1002800080E008958FE39CE90197F1F700C000003A
:1002900081E090E090937702809376020895209118
:1002A000760230917702232B61F3EFE3FCE931977B
:1002B000F1F700C0000010927702109276020895C4
:1002C0000E9402018823A9F0809174029091750226
:1002D000892B11F080E008958FE39CE90197F1F7F5
:1002E00000C0000081E090E090937502809374025A
:1002F00008952091740230917502232B61F3EFE38E
:10030000FCE93197F1F700C00000109275021092DD
:10031000740208951F920F920FB60F9211240BB61C
:100320000F922F933F934F935F936F937F938F938E
:100330009F93AF93BF93CF93DF93EF93FF93C1E06E
:10034000D1E0489920C0FF91EF91DF91CF91BF910B
:10035000AF919F918F917F916F915F914F913F915D
:100360002F910F900BBE0F900FBE0F901F901895FE
:100370009D9888818F7B888380E00E94A807489B96
:100380000FC00E9468100E940C01882389F34899CD
:10039000EFCF9D9AE1E0F1E0808180648083D3CF4C
:1003A0000E946001882379F34899EDCFF89488E1A1
:1003B00080936000FFCF882311F05F9808955F9AC3
:1003C0000895579A80E00E94DB0108950E94C500BD
:1003D0000E94D6000E94DD000E94E10108959C0168
:1003E00040E050E060E472E48FE090E00E94911001
:1003F000215031093093C5002093C40088E18093D7
:10040000C10086E08093C20008959C0140E050E066
:1004100060E472E48FE090E00E9491102150310975
:100420003093CD002093CC0088E18093C90086E012
:100430008093CA000895E0ECF0E0908195FFFDCF35
:100440008093C6000895CF93DF93C82FD92F88815A
:10045000882331F021960E941B0289918111FBCFE4
:10046000DF91CF9108951F93CF93DF93CDB7DEB780
:1004700061970FB6F894DEBF0FBECDBF182F81E194
:10048000EFE2F2E0DE01119601900D928A95E1F71C
:10049000812F82958F70E1E0F0E0EC0FFD1FE80FF7
:1004A000F11D80810E941B021F70E1E0F0E0EC0F63
:1004B000FD1FE10FF11D80810E941B0261960FB6A6
:1004C000F894DEBF0FBECDBFDF91CF911F9108958D
:1004D0000F931F93CF93DF93082F162FD42FC22F84
:1004E00080E492E00E942302802F0E94330280E287
:1004F0000E941B02812F0E94330280E20E941B0295
:100500008D2F0E94330280E20E941B028C2F0E94DA
:10051000330280E792E00E942302E8ECF0E0908151
:1005200095FFFDCF0093CE00E8ECF0E0908195FFC1
:10053000FDCF1093CE00E8ECF0E0908195FFFDCF69
:10054000D093CE00E8ECF0E0908195FFFDCFC09312
:10055000CE008BE592E00E942302DF91CF911F91A4
:100560000F910895E8ECF0E080818823ECF780910A
:10057000CE000895E82FF92F242F0997D8F5882762
:10058000E05DFD4E8F4F0C94D210462F60E881E065
:100590000E9468020895462F6FEF81E00E94680272
:1005A0000895462F60E081E00E9468020895462F7A
:1005B0006EE781E00E9468020895462F6FE781E0B0
:1005C0000E9468020895462F61E082E00E9468025E
:1005D0000895462F62E082E00E9468020895462F47
:1005E00061E083E00E9468020895462F62E083E0A4
:1005F0000E94680208950F920FB60F921F92112465
:100600002F932BB72F933F936F937F938F939F934A
:10061000AF93BF93EF93FF938091A10086FF1EC01D
:100620008091A6009091A700909381028093800210
:10063000E1EAF0E080818F7B8083FF91EF91BF91B1
:10064000AF919F918F917F916F913F912F912BBF90
:100650002F911F900F900FBE0F901895E1EAF0E0D8
:100660008081806480832091A6003091A7008091D2
:10067000800290918102281B390BA9E0BCE80E94FE
:10068000DA100024880F991F001C880F991F001C86
:10069000892F902D90937D0280937C02CECF0F9274
:1006A0000FB60F921F9211242F932BB72F933F93C6
:1006B0006F937F938F939F93AF93BF93EF93FF932A
:1006C0008091210186FF1EC0809126019091270113
:1006D00090937F0280937E02E1E2F1E080818F7B44
:1006E0008083FF91EF91BF91AF919F918F917F9107
:1006F0006F913F912F912BBF2F911F900F900FBEA5
:100700000F901895E1E2F1E0808180648083209170
:1007100026013091270180917E0290917F02281B53
:10072000390BA9E0BCE80E94DA100024880F991F59
:10073000001C880F991F001C892F902D90937B021D
:1007400080937A02CECF1092A5001092A40010924E
:100750002501109224010895811110C0E0EAF0E013
:10076000808180628083E0E2F1E080818F7D808300
:10077000EBE0F1E080818F7E80830895E0EAF0E095
:1007800080818F7D8083E2E0F1E080818F7E8083B5
:10079000E0E2F1E08081806280830895E1E0F1E0B1
:1007A000808180618083E2E0F1E080818F7E8083C0
:1007B000EAE0F1E0808180618083ABE0B1E08C9180
:1007C0008F7E8C9380818E7F808380818D7F8083DC
:1007D00093E29093A0008AE58093A10020E2209309
:1007E0007200909320018093210181E28093730035
:1007F0008FEF9FEF9093A9008093A8009093290119
:100800008093280184E190E09093AB008093AA004C
:1008100090932B0180932A010E94A30380E00E9401
:10082000AC0308952FB7F89480917C0290917D02DB
:100830002FBF08952FB7F89480917A0290917B0290
:100840002FBF0895109280008BE08093810088EA8A
:1008500091E6909389008093880008950E94220475
:1008600008950E94E6010E94340F0E9422040E9413
:10087000990778940895282F392F2F3F3207C9F010
:1008800080910002909101028F3F980791F0181615
:100890001906DCF4B19B25C082E086BB8091000282
:1008A000909101020197909301028093000280E0F1
:1008B0000895309301022093000282E086BB1092DB
:1008C00085001092840080E00895892B11F080E06B
:1008D00008958FEF9FEF909301028093000281E0D3
:1008E000089580E008950F931F93CF93DF930E94A4
:1008F0001204C82FD92F0E941A04082F192F81E043
:1009000090E00E943B04882329F121976997E8F43D
:100910000150110909311105C0F48091970290919D
:100920009802843091053CF401969093980280934C
:10093000970280E00FC010929802109297028FEFFA
:100940009FEF0E943B0481E005C010929802109234
:10095000970280E0DF91CF911F910F91089581E080
:1009600090E00E943B04811101C008950E9412048E
:100970004A9734F4109296021092950280E0F5CFD7
:100980000E941A044A97B4F38091950290919602BE
:10099000843091053CF401969093960280939502E1
:1009A00080E0089510929602109295028FEF9FEFCB
:1009B0000E943B0481E008950F931F93CF93DF9330
:1009C000C82FD92F062F172F0E94E500811101C0D3
:1009D00018820E94ED00811102C0F80110820E946D
:1009E000E500882319F08881882351F00E94ED00EA
:1009F000882371F0F8018081882311F080E008C01D
:100A00000E94E50088830E94ED00F801808381E068
:100A1000DF91CF911F910F910895CF93DF930E94A3
:100A20001204C82FD92F0E941A04282F392FCF3033
:100A3000D1053CF52F303105CCF42C1B3D0B309308
:100A400094022093930280919302909194029C01CE
:100A50002F5F3F4F2330310500F560E070E08AE002
:100A600090E00E94770DDF91CF9108952A97D1955C
:100A7000C195D109CC0FDD1FD0939402C09393028E
:100A8000E2CF2F303105FCF62A503109220F331FF7
:100A90003093940220939302D6CFBC01660F771F48
:100AA000660F771F660F771F681B790B8AE090E04F
:100AB0000E94770DD8CFCF93DF93C82FD92F0E94F4
:100AC000120490939202809391020E941A04282F9C
:100AD000392F3093900220938F02409191025091D0
:100AE0009202CA01821B930BBC01625F7F4F6D3182
:100AF000710508F44EC00F970CF46CC080918B0206
:100B000090918C02009709F060C066E070E080E090
:100B100090E00E94770D80918F02909190029093C7
:100B20008E0280938D020E940C1080918D02909114
:100B30008E028C1B9D0B8536910514F084E690E0A7
:100B400099230CF463C090938C0280938B0281E014
:100B500090E00E943B04882309F466C0E2968091ED
:100B6000910290919202C817D9070CF05AC0809157
:100B70008F0290919002C817D9070CF052C0809153
:100B80008A0282300CF045C08F5F80938A0280E039
:100B90004BC0240F351F3323ACF035952795309388
:100BA0008E0220938D0260E070E080918B02909124
:100BB0008C020E94770D80918D0290918E020E948E
:100BC000850EB3CF2F5F3F4FE8CF6CE370E00E94FC
:100BD000770DA1CF80918B0290918C02009789F4C0
:100BE0006AEF7FEF80E090E00E94770D80919102A4
:100BF0009091920290938E0280938D020E94F70F43
:100C000094CF64EC7FEF0E94770DF0CF80E090E00E
:100C10009ACF10928A028FEF9FEF0E943B0481E0EF
:100C200003C010928A0280E0DF91CF910895CF93A4
:100C3000DF93C82FD92F0E940C01882351F088819F
:100C40008F5F8883888182300CF01882DF91CF918A
:100C500008950E9436018823A9F3F1CFCF93DF9343
:100C6000C82FD92F0E940C01882341F088819981D7
:100C7000833691051CF40196998388830E9436017E
:100C8000882341F088819981823091051CF0019779
:100C900099838883DF91CF910895CF93DF93C82FF5
:100CA000D92F0E940C01882341F0888199818436D4
:100CB00091051CF40A96998388830E943601882343
:100CC00041F0888199818B3091051CF00A979983B6
:100CD0008883DF91CF9108950F931F93CF93DF9374
:100CE000C82FD92F0E941204909389028093880202
:100CF0000E941A04082F192F10938702009386026E
:100D000081E090E00E943B04882341F16D96809140
:100D1000880290918902C817D907DCF0C017D10763
:100D2000C4F08091840290918502823091053CF458
:100D30000196909385028093840280E00FC0109208
:100D40008502109284028FEF9FEF0E943B0481E0A6
:100D500005C0109285021092840280E0DF91CF914D
:100D60001F910F9108958091A3029091A402019682
:100D700011F080E008952091A1023091A20281E05B
:100D80002F3F3F4FB9F380E00895CF93DF9300D01A
:100D90000F92CDB7DEB7882309F44AC00E941A0427
:100DA000282F392F2B3B8FEF380794F02E35310544
:100DB000D4F52C503109C901330FAA0BBB0B898321
:100DC0009A83AB83BC83BC01CD010E94351104C062
:100DD00060E070E082EA92EC2AE939E949E95FE3F0
:100DE00069837A838B839C8369817A818B819C81DF
:100DF0000E94991169837A838B839C8369817A81AC
:100E00008B819C810E94FD1070938302609382020B
:100E100088E090E00E94770D0F900F900F900F9058
:100E2000DF91CF91089560E070E082EA92E4D4CF40
:100E30000E941204282F392F2B3B9FEF390794F083
:100E40002E35310564F52C503109C901330FAA0B39
:100E5000BB0B89839A83AB83BC83BC01CD010E9409
:100E6000351104C060E070E082EA92EC2AE939E9C9
:100E700049E95FEB69837A838B839C8369817A81FB
:100E80008B819C810E94991169837A838B839C83D7
:100E900069817A818B819C810E94FD10B5CF60E0D1
:100EA00070E082EA92E4E2CF5198599A089589B1AC
:100EB00086958170089500D000D000D00F92CDB7F4
:100EC000DEB70E94540785E0E6E0F2E0DE0111960D
:100ED00001900D928A95E1F785E0EBE0F2E0DE010A
:100EE000169601900D928A95E1F70E94310449818E
:100EF0005A816B817C818D810E941B0A4E815F81AA
:100F0000688579858A850E941B0A0E94570781118E
:100F100009C080E090E02A960FB6F894DEBF0FBEBD
:100F2000CDBF089541E061E081E090E00E94BA0207
:100F3000F0CF6D98759A82E08093900089E180935C
:100F400091008EE195E090939D0080939C00089520
:100F5000882339F06D9AE0E9F0E080818C6080832D
:100F600008956D98E0E9F0E08081837F80830895A3
:100F70009C01990F440B550B60E074E284EF90E004
:100F80000E94B310C9010895EF92FF920F931F932F
:100F9000CF93DF93C82FD92FCB01E42EF52E022F4C
:100FA000132F0E943B04811122C09E01DD0F440BD0
:100FB000550B60E074E284EF90E00E94B310309330
:100FC0009700209396002FE832E0E29EC001E39E56
:100FD000900DF29E900D112490939D0080939C00A3
:100FE000DF91CF911F910F91FF90EF900895F8013D
:100FF00080819181019691838083F2CF80919D02BF
:1010000090919E02892BD9F080919D0290919E0231
:101010008330910509F443C034F58130910599F18D
:101020008230910581F42DE932E04AE050E061E040
:1010300070E08AE691E00E94C40781E0089581E0B3
:101040000E94A807E1CF892B61F42DE932E04AE044
:1010500050E061E070E08CEE91E00E94C40781E016
:10106000089581E008958430910529F1059749F4A8
:1010700080E00E94A80710929E0210929D0280E0DC
:10108000089581E008952DE932E040E050E061E00C
:1010900070E08EEA91E00E94C40781E008952DE996
:1010A00032E04AE050E061E070E08FE692E00E94BA
:1010B000C40781E008952DE932E040E050E061E0AE
:1010C00070E08FE692E00E94C40781E0089580916D
:1010D0009B0290919C02892BD9F080919B02909168
:1010E0009C028330910509F443C034F581309105A9
:1010F00099F18230910581F42BE932E041E050E032
:1011000063E070E08AE891E00E94C40781E00895FE
:1011100081E00E94A807E1CF892B61F42BE932E03E
:1011200041E050E063E070E08EEA91E00E94C40785
:1011300081E0089581E008958430910529F10597B3
:1011400049F480E00E94A80710929C0210929B0232
:1011500080E0089581E008952BE932E040E050E01E
:1011600062E070E08EEA91E00E94C40781E0089599
:101170002BE932E041E050E067E070E08AE691E080
:101180000E94C40781E008952BE932E040E050E07E
:101190006EE170E08FE692E00E94C40781E008955E
:1011A0008091990290919A02892B71F0E0919902B5
:1011B000F0919A02EF30F10508F0BBC08827E75C98
:1011C000FD4E8F4F0C94D21081E00E94A807EECF05
:1011D00029E932E041E050E061E070E08FE692E022
:1011E0000E94C40781E0089529E932E041E050E01F
:1011F00061E070E082E592E00E94C40781E008951A
:1012000029E932E041E050E062E070E08EEA91E0EE
:101210000E94C40781E0089529E932E041E050E0EE
:1012200062E070E081EC91E00E94C40781E00895E3
:1012300029E932E041E050E061E070E082E592E0CF
:101240000E94C40781E0089529E932E041E050E0BE
:1012500061E070E08CE192E00E94C40781E00895B3
:1012600029E932E041E050E062E070E08AE691E096
:101270000E94C40781E0089529E932E041E050E08E
:1012800062E070E08AE891E00E94C40781E008957E
:1012900029E932E041E050E061E070E08CE192E069
:1012A0000E94C40781E0089529E932E041E050E05E
:1012B00061E070E08CEE91E00E94C40781E0089547
:1012C00029E932E041E050E062E070E08AE691E036
:1012D0000E94C40781E0089529E932E041E050E02E
:1012E00062E070E08AE891E00E94C40781E008951E
:1012F00029E932E041E050E065E070E08EEA91E0FB
:101300000E94C40781E0089529E932E040E050E0FE
:1013100065E070E08AE691E00E94C40781E00895EC
:1013200080E00E94A80710929A021092990280E031
:10133000089581E0089584B1876084B9239881E598
:101340008CBD08958EBD0DB407FEFDCF8EB50895FA
:10135000EF92FF920F931F93CF93DF9300D00F92E2
:101360000F92CDB7DEB749835A836B837C838D831D
:10137000822F09811A81F801408121E030E0790152
:1013800002C0EE0CFF1C6A95E2F79E2D9095942307
:101390009083880F8E7780680E94A20980E00E9467
:1013A000A209F80190819E2990830F900F900F90D1
:1013B0000F900F90DF91CF911F910F91FF90EF90C1
:1013C0000895CF92DF92EF92FF920F93CF93DF9326
:1013D00000D00F920F92CDB7DEB749835A836B834B
:1013E0007C838D83E980FA80F701908141E050E0B1
:1013F0006A0102C0CC0CDD1C6A95E2F78C2D809549
:1014000089238083822F880F8E770E94A209802FE4
:101410000E94A209F70180818C2980830F900F9090
:101420000F900F900F90DF91CF910F91FF90EF9061
:10143000DF90CF900895AF92BF92DF92EF92FF922C
:101440000F931F93CF93DF9300D00F920F92CDB7DE
:10145000DEB749835A83D62E6B837C838D830981C3
:101460001A81EC80FD80F701208181E090E002C0CC
:10147000880F991F6A95E2F7922F982B9083E1E0ED
:10148000F1E0908190649083F8019081892B8083B2
:101490006894AA24A1F8BB24B394F50180818064E8
:1014A00080830E949B09F50180818F7B80838081EE
:1014B00080648083402F512F1A830983DB827E2D25
:1014C000FD82EC8227E36D2D8F2D0E94A8098239C1
:1014D00089F700E726E249815A816B817C818D8101
:1014E0000E94E10900E82AE249815A816B817C81EE
:1014F0008D810E94E10909EA2BE249815A816B81C1
:101500007C818D810E94E10908EE2DE249815A819A
:101510006B817C818D810E94E10903E02CE249818D
:101520005A816B817C818D810E94E10900E425E173
:1015300049815A816B817C818D810E94E1090DE393
:1015400021E149815A816B817C818D810E94E10971
:1015500024E149815A816B817C818D810E94A80997
:10156000982F9370992379F00F900F900F900F9010
:101570000F90DF91CF911F910F91FF90EF90DF902F
:10158000BF90AF900895082F036024E149815A81EC
:101590006B817C818D810E94E109E6CF0F931F93BF
:1015A000CF93DF9300D00F920F92CDB7DEB7498370
:1015B0005A836B837C838D8307E02DE00E94E109D1
:1015C00000E021E049815A816B817C818D810E94FC
:1015D000E10906E229E049815A816B817C818D8194
:1015E0000E94E1090CE021E049815A816B817C81F4
:1015F0008D810E94E10907E82DE049815A816B81C4
:101600007C818D810E94E10918EC24E049815A8196
:101610006B817C818D810E94A8098073811103C038
:1016200011501111F2CF26E049815A816B817C81E2
:101630008D810E94A8098B71882359F080E00F905A
:101640000F900F900F900F90DF91CF911F910F91FE
:1016500008952AE049815A816B817C818D810E94A5
:10166000A809182F00E82AE049815A816B817C8102
:101670008D810E94E10981E01111E1CF80E0DFCF8F
:10168000CF93DF9300D00F920F92CDB7DEB749838F
:101690005A836B837C838D830E94CE0A81111DC087
:1016A0008FE99FE00197F1F700C0000049815A815E
:1016B0006B817C818D810E94CE0A81110EC0EFE981
:1016C000FFE03197F1F700C000000F900F900F90EE
:1016D0000F900F90DF91CF91089581E0F6CF1F9288
:1016E0001FB61F9211248F938BB78F939F93EF9305
:1016F000FF938091A3029091A402181619069CF4FE
:101700008091A3029091A40201979093A4028093E8
:10171000A302FF91EF919F918F918BBF8F911F90AB
:101720001FBE1F9018958091A3029091A402892B4F
:1017300081F78FEF9FEF9093A4028093A302909381
:10174000A2028093A102EEE6F0E080818E7F80838A
:10175000E0E7F0E080818E7F8083DBCF1F921FB6B1
:101760001F9211248F938BB78F939F93EF93FF93C7
:101770008091A1029091A202181619069CF4809102
:10178000A1029091A20201979093A2028093A102DC
:10179000FF91EF919F918F918BBF8F911F901FBEF3
:1017A0001F9018958091A1029091A202892B81F738
:1017B0008FEF9FEF9093A4028093A3029093A202D5
:1017C0008093A102EEE6F0E080818E7F8083E0E7E7
:1017D000F0E080818E7F8083DBCF1F921FB61F9247
:1017E00011242F932BB72F933F938F939F93EF93B6
:1017F000FF938091A002882309F456C087B58F3FDC
:1018000039F187B58E3E00F18FEF87BD80919F0241
:10181000882309F4B4C08091B3008F3F09F48AC0D3
:101820008091B3008E3E08F47FC08FEF8093B300A9
:10183000FF91EF919F918F913F912F912BBF2F910E
:101840001F901FBE1F90189587B58E5E87BDDECF97
:10185000E2E0F1E08081886080838091A0028330A3
:10186000F9F08091A0028130E9F08091AB02909173
:10187000AC0201969093AC028093AB02049734F2D1
:101880008091A002823039F0E2E0F1E08081877F30
:1018900080831092A0021092AC021092AB02B6CFDD
:1018A0007398E3CF739AE1CFE2E0F1E08081877F24
:1018B000808387B5209104023091050290E0821761
:1018C0009307A4F487B5209104023091050290E0BB
:1018D00041968217930734F080910402909105029B
:1018E00087BD94CF87B58E5E87BD90CF87B5209199
:1018F00004023091050290E0281739070CF086CFDA
:1019000087B520910402309105028151990B281767
:10191000390734F0809104029091050287BD76CF9B
:1019200087B5825187BD72CFE3EBF0E080818E5E98
:1019300080837ECF2D9A80919F028130E1F080914B
:101940009F028330D1F08091A9029091AA02019662
:101950009093AA028093A90204970CF469CF809116
:101960009F02823019F02D9810929F021092AA02C5
:101970001092A9025DCF2C98E6CF2C9AE4CF2D9837
:101980008091B300209102023091030290E082170F
:101990009307C4F48091B3002091020230910302B6
:1019A00090E04196821793073CF08091020290915B
:1019B00003028093B3003CCFE3EBF0E080818E5EC6
:1019C000808336CF8091B3002091020230910302D0
:1019D00090E0281739070CF02BCF8091B3002091AD
:1019E0000202309103028151990B281739073CF00C
:1019F00080910202909103028093B30019CFE3EB30
:101A0000F0E080818251808313CF282F392F80917D
:101A1000A7029091A8021816190634F43323F4F49F
:101A200083E08093A00206C012161306ACF481E096
:101A30008093A0023093A8022093A702B901332318
:101A4000C4F08DEF90E00E947D106E5F7F4F709329
:101A50000502609304020895892B01F321153105D5
:101A600049F782E08093A0021092A8021092A70288
:101A7000089566277727621B730BE3CF282F392F32
:101A80008091A5029091A6021816190634F433230A
:101A9000F4F483E080939F0206C012161306ACF4A0
:101AA00081E080939F023093A6022093A502B901A2
:101AB0003323C4F08DEF90E00E947D106E5F7F4F66
:101AC00070930302609302020895892B01F321159C
:101AD000310549F782E080939F021092A60210928E
:101AE000A502089566277727621B730BE3CF0F9338
:101AF0001F93CF93DF93C82FD92F262F372F89011C
:101B00002536310514F004E610E00C398FEF180784
:101B100014F40CE91FEF209709F446C0C536D1052F
:101B200014F0C4E6D0E0CC398FEFD80714F4CCE938
:101B3000DFEF21153105A9F0DCF0CE010E94050D83
:101B40000C9FC0010D9F900D1C9F900D11246CE9FE
:101B50007FEF0E947D10CB018C0F9D1F0E943E0DD8
:101B60002CC0CE010E94050DCE010E943E0D25C065
:101B700098011123A4F02C9FC0012D9F900D3C9F34
:101B8000900D11246CE97FEF0E947D10CB018C0F2A
:101B90009D1F0E94050DCE010E943E0D0EC0222702
:101BA0003327201B310BE7CFC8010E94050D882782
:101BB0009927801B910B0E943E0D8FEF9FEF909312
:101BC000A4028093A3029093A2028093A102DF91CA
:101BD000CF911F910F9108959D9AE1E0F1E08081EE
:101BE000886080836B9A808180648083259A249AA0
:101BF000E2E0F1E08081886080832D9A739A2C9ACC
:101C00008FEF8093B30087BD81E088BD8093B400DF
:101C100083E284BD9CE095BD8093B0008EE080930C
:101C2000B10060E070E080E090E00E94770D0895E0
:101C3000CF93DF93C42FD52F21E020936E00209304
:101C400070000E94770DD093A402C093A302D0939A
:101C5000A202C093A102DF91CF910895EAE0F1E0E2
:101C6000808180688083EBE0F1E080818068808300
:101C700080818062808380818F7780830895EAE00D
:101C8000F1E0808180688083EBE0F1E080818F7DEE
:101C900080838081806280838081806880830895D2
:101CA000EAE0F1E090819068908328E030E0EBE09A
:101CB000F1E00CC090819F77908390819062908337
:101CC0008695215031092115310549F090819F7D7C
:101CD000908380FFEFCF908190689083EECFEBE010
:101CE000F1E080818F7D8083808180628083089590
:101CF000CF93C82F0E942E0E8C2F877088680E9469
:101D0000500E0E943F0ECF910895EF92FF921F93C5
:101D1000CF93DF93D82FC92F0E942E0E80E40E940C
:101D2000500E0E943F0E13EC0F2EFAE0EF2EF12C16
:101D3000F02D0E942E0E812F0E94500E8D2F9C2F71
:101D4000B7010E947D10D62FC72FFC01EC5DFD4F1F
:101D500080810E94500E0E943F0E11501F3B49F798
:101D6000DF91CF911F91FF90EF900895EF92FF9236
:101D70000F931F93CF93DF9300D000D00F920F9259
:101D8000CDB7DEB7E82EF92E84E6E816F1042CF084
:101D90000F2EF3E6EF2EF12CF02DFF200CF447C0B0
:101DA000062F172F0436110514F003E610E0112357
:101DB0000CF440C00E942E0E80E40E94500E0E943F
:101DC0003F0E2AE030E0C701B9010E947D107A83FE
:101DD00069839C838B83C801B9010E947D107E8337
:101DE0006D8398878F83DE0111967D0110EC0E9430
:101DF0002E0E812F0E94500ED701ED91FD917D0195
:101E0000EC5DFD4F80810E94500E0E943F0E1F5FCF
:101E1000143C69F728960FB6F894DEBF0FBECDBF0D
:101E2000DF91CF911F910F91FF90EF900895E12CDA
:101E3000F12CB6CF00E010E0BDCF1F93CF93DF931E
:101E4000C82FD92F162F0E942E0E80EC810F0E94D2
:101E5000500EC05FDD4F88810E94500E0E943F0EE1
:101E6000DF91CF911F910895EAE0F1E080818068D1
:101E70008083808180628083EBE0F1E080818068F4
:101E8000808380818062808382E00E94780E089542
:101E900060E083E190E00E941D0F61E083E090E04C
:101EA0000E941D0F62E086E090E00E941D0F63E03B
:101EB00087E090E00E941D0F089584E090E00E946A
:101EC000850E61E081E090E00E941D0F62E085E0F8
:101ED00090E00E941D0F63E088E090E00E941D0FDB
:101EE000089560E081E190E00E941D0F61E088E0CC
:101EF00090E00E941D0F62E087E090E00E941D0FBD
:101F000063E08BE090E00E941D0F089560E083E1A4
:101F100090E00E941D0F61E086E090E00E941D0F9E
:101F200062E08DE090E00E941D0F63E08BE090E0A6
:101F30000E941D0F089560E083E190E00E941D0F54
:101F400061E083E090E00E941D0F62E08CE090E091
:101F50000E941D0F63E081E190E00E941D0F089533
:101F600060E081E190E00E941D0F61E082E190E07D
:101F70000E941D0F62E08FE090E00E941D0F63E061
:101F80008CE090E00E941D0F089560E084E090E0F6
:101F90000E941D0F61E089E090E00E941D0F62E049
:101FA00080E190E00E941D0F63E081E190E00E94DB
:101FB0001D0F089560E083E190E00E941D0F61E035
:101FC0008EE090E00E941D0F62E081E090E00E94B0
:101FD0001D0F63E083E090E00E941D0F08958823A9
:101FE00019F00E94860F08950E94DA0F089560E0AC
:101FF0008BE090E00E941D0F61E085E090E00E9480
:102000001D0F62E086E090E00E941D0F63E081E119
:1020100090E00E941D0F089560E08FE090E00E9424
:102020001D0F61E087E090E00E941D0F62E088E0F4
:1020300090E00E941D0F63E081E190E00E941D0F7F
:102040000895882319F00E940C1008950E94F70F3C
:10205000089560E083E190E00E941D0F61E083E15C
:1020600090E00E941D0F62E087E090E00E941D0F4B
:1020700063E08DE090E00E941D0F089560E083E131
:1020800090E00E941D0F61E085E090E00E941D0F2E
:1020900062E08CE090E00E941D0F63E084E090E03D
:1020A0000E941D0F089560E080E190E00E941D0FE6
:1020B00061E08FE090E00E941D0F62E083E090E01D
:1020C0000E941D0F63E088E090E00E941D0F0895BC
:1020D00060E080E190E00E941D0F61E081E190E00E
:1020E0000E941D0F62E08DE090E00E941D0F63E0F2
:1020F0008EE090E00E941D0F089597FB072E16F4C6
:10210000009407D077FD09D00E94E91007FC05D0A4
:102110003EF4909581959F4F0895709561957F4FFE
:102120000895A1E21A2EAA1BBB1BFD010DC0AA1F18
:10213000BB1FEE1FFF1FA217B307E407F50720F030
:10214000A21BB30BE40BF50B661F771F881F991FAB
:102150001A9469F760957095809590959B01AC01F4
:10216000BD01CF010895052E97FB1EF400940E9437
:10217000CA1057FD07D00E94911007FC03D04EF4FF
:102180000C94CA1050954095309521953F4F4F4F74
:102190005F4F089590958095709561957F4F8F4F13
:1021A0009F4F0895EE0FFF1F881F8BBF0790F6917A
:1021B000E02D1994A29FB001B39FC001A39F700DA1
:1021C000811D1124911DB29F700D811D1124911D3F
:1021D0000895AA1BBB1B51E107C0AA1FBB1FA6176E
:1021E000B70710F0A61BB70B881F991F5A95A9F7C0
:1021F00080959095BC01CD0108950E9404116894CA
:10220000B1110C94931108950E94781188F09F5792
:1022100098F0B92F9927B751B0F0E1F0660F771F0A
:10222000881F991F1AF0BA95C9F714C0B13091F000
:102230000E949211B1E008950C949211672F782FAB
:102240008827B85F39F0B93FCCF3869577956795C5
:10225000B395D9F73EF490958095709561957F4F31
:102260008F4F9F4F0895E89409C097FB3EF49095D7
:102270008095709561957F4F8F4F9F4F9923A9F05F
:10228000F92F96E9BB279395F695879577956795EE
:10229000B795F111F8CFFAF4BB0F11F460FF1BC032
:1022A0006F5F7F4F8F4F9F4F16C0882311F096E9C5
:1022B00011C0772321F09EE8872F762F05C0662373
:1022C00071F096E8862F70E060E02AF09A95660F2C
:1022D000771F881FDAF7880F9695879597F90895E5
:1022E00057FD9058440F551F59F05F3F71F04795C7
:1022F000880F97FB991F61F09F3F79F087950895AC
:10230000121613061406551FF2CF4695F1DF08C0CA
:10231000161617061806991FF1CF869571056105E7
:1023200008940895E894BB2766277727CB0197F98F
:1023300008950E94AC110C941D120E940F1238F0E7
:102340000E94161220F0952311F00C9406120C94A2
:102350000C1211240C9493110E94701170F3959F2C
:10236000C1F3950F50E0551F629FF001729FBB278C
:10237000F00DB11D639FAA27F00DB11DAA1F649F28
:102380006627B00DA11D661F829F2227B00DA11DDB
:10239000621F739FB00DA11D621F839FA00D611D61
:1023A000221F749F3327A00D611D231F849F600D82
:1023B000211D822F762F6A2F11249F5750409AF0AB
:1023C000F1F088234AF0EE0FFF1FBB1F661F771F37
:1023D000881F91505040A9F79E3F510580F00C9402
:1023E00006120C9493115F3FE4F3983ED4F3869564
:1023F00077956795B795F795E7959F5FC1F7FE2BA2
:10240000880F911D9695879597F9089597F99F677D
:1024100080E870E060E008959FEF80EC089500246C
:102420000A941616170618060906089500240A9439
:1024300012161306140605060895092E0394000CBF
:1024400011F4882352F0BB0F40F4BF2B11F460FF4E
:1024500004C06F5F7F4F8F4F9F4F0895F894FFCF59
:10246000C502CB02D102D702DD02E302E902EF028C
:10247000F502E808F40800090C09180924093009D4
:102480003C094809540960096C09780984099009D4
:10249000FFFFFF00FF0025000024000B01000A01E0
:1024A00040777C395E79713D74060E38373F733161
:1024B0006D783E003F065B4F666D7D077F6F003095
:1024C000313233343536373839414243444546009A
:1024D0004D41535445523A2053656E64696E6720EE
:1024E000746F20536C6176653A20004D415354451A
:1024F000523A20436F6D6D616E642073656E742E69
:042500000D0A0000C0
:00000001FF
