:100000000C94A2000C948D010C94C3000C94C300BA
:100010000C94C3000C94C3000C94C3000C94C30054
:100020000C94C3000C94C3000C94C3000C94C30044
:100030000C94C3000C94C3000C94C3000C94C30034
:100040000C94C3000C94C3000C94C3000C94C30024
:100050000C94C3000C94C3000C94C3000C94C30014
:100060000C94C3000C94C3000C94C3000C94C30004
:100070000C94C3000C94C3000C94C3000C94C300F4
:100080000C94C3000C94C3000C94C3000C94C300E4
:100090000C94C3000C94C3000C94C3000C94C300D4
:1000A0000C94C3000C94C3000C94C3000C94C300C4
:1000B0000C94C3000C94C3000C94C3000C94C300B4
:1000C0000C94C3000C94C3000C94C3000C94C300A4
:1000D0000C94C3000C94C3000C94C3000C94C30094
:1000E0000C94C3000C94E3020C94CD060C94D90636
:1000F0000C94CB020C94F1060C94D7020C942D07AF
:100100000C949D060C94B5060C94C5020C94C10683
:100110000C9409070C94D1020C9421070C949106BD
:100120000C94A9060C94DD020C94BF020C94E90215
:100130000C94E5060C9485060C94FD060C94EF02D5
:100140000C94150711241FBECFEFD1E2DEBFCDBF47
:1001500000E00CBF12E0A0E0B2E0ECECF7E100E060
:100160000BBF02C007900D92A237B107D9F722E06A
:10017000A2E7B2E001C01D92AE37B207E1F70E94DC
:10018000C6030C94CC0B0C940000EAE0F1E08081F3
:10019000877F808380818B7F8083EBE0F1E08081AB
:1001A0008860808380818460808308950E94C50078
:1001B000089552985A9A8198599A53985B9A08953B
:1001C0005098E9E6F0E0808183608083E89A0895A2
:1001D0008091090183FB882780F991E089270895A0
:1001E0008091090182FB882780F991E08927089591
:1001F00089B182FB882780F991E08927089589B128
:100200008695817091E08927089589B183FB8827BD
:1002100080F991E08927089589B1817008950E943D
:10022000F8008823A9F08091760290917702892BBB
:1002300011F080E008958FE39CE90197F1F700C089
:10024000000081E090E09093770280937602089519
:100250002091760230917702232B61F3EFE3FCE9E2
:100260003197F1F700C000001092770210927602E9
:1002700008950E94FF008823A9F080917402909154
:100280007502892B11F080E008958FE39CE90197B6
:10029000F1F700C0000081E090E090937502809338
:1002A000740208952091740230917502232B61F33A
:1002B000EFE3FCE93197F1F700C0000010927502FE
:1002C0001092740208950E9405018823A9F080917C
:1002D000720290917302892B11F080E008958FE3F0
:1002E0009CE90197F1F700C0000081E090E0909355
:1002F000730280937202089520917202309173020A
:10030000232B61F3EFE3FCE93197F1F700C0000024
:10031000109273021092720208951F920F920FB6FC
:100320000F9211240BB60F922F933F934F935F932D
:100330006F937F938F939F93AF93BF93CF93DF93ED
:10034000EF93FF93C1E0D1E0489920C0FF91EF9176
:10035000DF91CF91BF91AF919F918F917F916F91DD
:100360005F914F913F912F910F900BBE0F900FBE59
:100370000F901F9018959D9888818F7B888380E0CF
:100380000E944505489B0FC00E94460B0E940F012A
:10039000882389F34899EFCF9D9AE1E0F1E08081CD
:1003A00080648083D3CF0E946301882379F34899C6
:1003B000EDCFF89488E180936000FFCF882311F09F
:1003C0005F9808955F9A0895579A80E00E94DE0131
:1003D00008959C0140E050E060E472E48FE090E01A
:1003E0000E946F0B215031093093C5002093C40047
:1003F00088E18093C10086E08093C20008959C014B
:1004000040E050E060E472E48FE090E00E946F0B07
:10041000215031093093CD002093CC0088E18093A6
:10042000C90086E08093CA000895E0ECF0E0908176
:1004300095FFFDCF8093C6000895CF93DF93C82F1B
:10044000D92F8881882331F021960E941502899145
:100450008111FBCFDF91CF9108951F93CF93DF934D
:10046000CDB7DEB761970FB6F894DEBF0FBECDBF34
:10047000182F81E1EDE2F2E0DE01119601900D927C
:100480008A95E1F7812F82958F70E1E0F0E0EC0F23
:10049000FD1FE80FF11D80810E9415021F70E1E031
:1004A000F0E0EC0FFD1FE10FF11D80810E941502AD
:1004B00061960FB6F894DEBF0FBECDBFDF91CF912E
:1004C0001F9108950F931F93CF93DF93082F162F3B
:1004D000D42FC22F8EE392E00E941D02802F0E9433
:1004E0002D0280E20E941502812F0E942D0280E2DF
:1004F0000E9415028D2F0E942D0280E20E9415029B
:100500008C2F0E942D028EE692E00E941D02E8ECE4
:10051000F0E0908195FFFDCF0093CE00E8ECF0E095
:10052000908195FFFDCF1093CE00E8ECF0E0908134
:1005300095FFFDCFD093CE00E8ECF0E0908195FFE1
:10054000FDCFC093CE0089E592E00E941D02DF91AD
:10055000CF911F910F910895E8ECF0E080818823FE
:10056000ECF78091CE000895E82FF92F242F0997FA
:10057000D8F58827E253F44F8F4F0C94B00B462FD9
:1005800060E881E00E9462020895462F6FEF81E0EB
:100590000E9462020895462F60E081E00E9462029C
:1005A0000895462F6EE781E00E9462020895462F6B
:1005B0006FE781E00E9462020895462F61E082E0C9
:1005C0000E9462020895462F62E082E00E94620269
:1005D0000895462F61E083E00E9462020895462F4D
:1005E00062E083E00E9462020895109280008BE036
:1005F0008093810088EA91E6909389008093880037
:100600000895109220018BE08093210188EA91E601
:10061000909329018093280108950E94F5020E9479
:10062000010308950E94D6000E94120A0E940D0341
:100630000E94360578940895282F392F2F3F3207CE
:10064000C9F080910202909103028F3F980791F0C8
:1006500018161906DCF4B19B25C082E086BB809198
:100660000202909103020197909303028093020289
:1006700080E00895309303022093020282E086BB5B
:10068000109285001092840080E00895892B11F06B
:1006900080E008958FEF9FEF909303028093020212
:1006A00081E0089580E00895282F392F2F3F3207E9
:1006B000C9F080910002909101028F3F980791F05C
:1006C00018161906DCF4D19B25C082E08ABB809104
:1006D0000002909101020197909301028093000221
:1006E00080E00895309301022093000282E08ABBEB
:1006F000109225011092240180E00895892B11F0B9
:1007000080E008958FEF9FEF9093010280930002A5
:1007100081E0089580E008950F931F93CF93DF93B6
:10072000C82FD92F062F172F0E94E800811101C072
:1007300018820E94F000811102C0F80110820E940C
:10074000E800882319F08881882351F00E94F00086
:10075000882371F0F8018081882311F080E008C0BF
:100760000E94E80088830E94F000F801808381E005
:10077000DF91CF911F910F9108955198599A089543
:1007800089B18695817091E089270895CDB7DEB74C
:100790002C970FB6F894DEBF0FBECDBF19821A8218
:1007A0000E94BD0385E0E4E0F2E0DE0113960190D3
:1007B0000D928A95E1F785E0E9E0F2E0DE01189616
:1007C00001900D928A95E1F70E94120380E895E26C
:1007D0000E94FF0180E895E20E94E9014B815C8163
:1007E0006D817E818F810E94B807488559856A8511
:1007F0007B858C850E94B807712C212CC12CD12CB3
:10080000E12CF12CA12CB12C01E010E04424439404
:10081000512C312C662463940F2EF8EC8F2E912CE2
:10082000F02D2EC00115110559F54B815C816D81AC
:100830007E818F810E94DD088823C9F00E94260AEC
:100840001FC00430110509F4F8C005301105C1F4CA
:10085000A114B10409F4E7C00E948E0A0E94AC0200
:10086000813071F4A12CB12C03E0132D09C00E943A
:100870001C0B06C00E94B80A0E94C00381112DC043
:100880000330110599F1E8F60130110599F30230B2
:10089000110541F6A114B10409F464C0B601C70101
:1008A0000E94940987E00E9456090E949B05182F18
:1008B000882309F490C0B601C7010E9494094885B5
:1008C00059856A857B858C850E946B08882309F48D
:1008D0006DC0762CEACF0E94070B85E090E00E9465
:1008E0001C038823C1F303E0132DCACFA114B10464
:1008F000F1F0B601C7010E949409BE016E5F7F4FFF
:10090000CE0101960E948C0381111CC0F4018081EC
:1009100088230CF0B5CF20E820830E94AC02813000
:1009200009F0AECFA12CB12C05E010E0A9CF4FEF1C
:100930006FEF842D952D0E94B40219821A82A42C87
:10094000B52C9ECF0E94260A2FEF89E698E1215010
:1009500080409040E1F700C00000A12CB12C02E0E3
:1009600010E0D4CF488559856A857B858C850E94A7
:100970006B08882331F0762C222079F004E010E017
:100980007FCF4B815C816D817E818F810E946B085E
:10099000882391F377247394EFCF4FEF6FEF84E0C8
:1009A00090E00E94B402A42CB52C6ACF4B815C81EC
:1009B0006D817E818F810E946B08882309F475CF39
:1009C000762C73CF4B815C816D817E818F810E94FB
:1009D0006B088111762C8AE090E00E941C03811143
:1009E0000FC0B601C7010E949409488559856A85E0
:1009F0007B858C850E946B08882321F3762CEBCFB6
:100A0000772049F08FEFE81AF80A712EA12CB12C4B
:100A100003E0132D35CF9FEFC91AD90AA12CB12CB1
:100A200003E0132D2DCF4FEF6FEF86E090E00E9493
:100A3000B402262CA42CB52C23CFA114B10419F098
:100A40000E941C0B1DCF4FEF6FEF84E090E00E94DF
:100A5000B4020E941C0B8FEF9FEF0E941C030E94A8
:100A60006D068111FCCFA42CB52C0ACF6D98759A18
:100A700082E08093900089E1809391008EE195E07F
:100A800090939D0080939C000895882339F06D9A7F
:100A9000E0E9F0E080818C60808308956D98E0E962
:100AA000F0E08081837F808308959C01990F440B3F
:100AB000550B60E074E284EF90E00E94910BC90155
:100AC0000895EF92FF920F931F93CF93DF93C82F58
:100AD000D92FCB01E42EF52E022F132F0E941C03D9
:100AE000811122C09E01DD0F440B550B60E074E2C2
:100AF00084EF90E00E94910B309397002093960032
:100B00002FE832E0E29EC001E39E900DF29E900D30
:100B1000112490939D0080939C00DF91CF911F91B1
:100B20000F91FF90EF900895F801808191810196D7
:100B300091838083F2CF80917C0290917D02892BFA
:100B4000D9F080917C0290917D028330910509F467
:100B500043C034F58130910599F18230910581F4DB
:100B60002CE732E04AE050E061E070E08AE691E094
:100B70000E94610581E0089581E00E944505E1CF72
:100B8000892B61F42CE732E04AE050E061E070E04C
:100B90008CEE91E00E94610581E0089581E0089566
:100BA0008430910529F1059749F480E00E944505BC
:100BB00010927D0210927C0280E0089581E00895F9
:100BC0002CE732E040E050E061E070E08EEA91E036
:100BD0000E94610581E008952CE732E04AE050E090
:100BE00061E070E08FE692E00E94610581E0089587
:100BF0002CE732E040E050E061E070E08FE692E008
:100C00000E94610581E0089580917A0290917B02B3
:100C1000892BD9F080917A0290917B0283309105E3
:100C200009F443C034F58130910599F18230910582
:100C300081F42AE732E041E050E063E070E08AE8C6
:100C400091E00E94610581E0089581E00E944505E0
:100C5000E1CF892B61F42AE732E041E050E063E024
:100C600070E08EEA91E00E94610581E0089581E0E4
:100C700008958430910529F1059749F480E00E9498
:100C8000450510927B0210927A0280E0089581E07F
:100C900008952AE732E040E050E062E070E08EEA3A
:100CA00091E00E94610581E008952AE732E041E089
:100CB00050E067E070E08AE691E00E94610581E023
:100CC00008952AE732E040E050E06EE170E08FE600
:100CD00092E00E94610581E00895809178029091F0
:100CE0007902892B71F0E0917802F0917902EF306E
:100CF000F10508F0BBC08827E952F44F8F4F0C94E0
:100D0000B00B81E00E944505EECF28E732E041E0DC
:100D100050E061E070E08FE692E00E94610581E0C2
:100D2000089528E732E041E050E061E070E082E5BC
:100D300092E00E94610581E0089528E732E041E0F9
:100D400050E062E070E08EEA91E00E94610581E08F
:100D5000089528E732E041E050E062E070E081EC85
:100D600091E00E94610581E0089528E732E041E0CA
:100D700050E061E070E082E592E00E94610581E070
:100D8000089528E732E041E050E061E070E08CE156
:100D900092E00E94610581E0089528E732E041E099
:100DA00050E062E070E08AE691E00E94610581E037
:100DB000089528E732E041E050E062E070E08AE820
:100DC00091E00E94610581E0089528E732E041E06A
:100DD00050E061E070E08CE192E00E94610581E00A
:100DE000089528E732E041E050E061E070E08CEEE9
:100DF00091E00E94610581E0089528E732E041E03A
:100E000050E062E070E08AE691E00E94610581E0D6
:100E1000089528E732E041E050E062E070E08AE8BF
:100E200091E00E94610581E0089528E732E041E009
:100E300050E065E070E08EEA91E00E94610581E09B
:100E4000089528E732E040E050E065E070E08AE68F
:100E500091E00E94610581E0089580E00E944505CF
:100E6000109279021092780280E0089581E008954E
:100E700084B1876084B9239881E58CBD08958EBDC7
:100E80000DB407FEFDCF8EB50895EF92FF920F933C
:100E90001F93CF93DF9300D00F920F92CDB7DEB7A1
:100EA00049835A836B837C838D83822F09811A81C6
:100EB000F801408121E030E0790102C0EE0CFF1C16
:100EC0006A95E2F79E2D909594239083880F8E77F4
:100ED00080680E943F0780E00E943F07F8019081F0
:100EE0009E2990830F900F900F900F900F90DF919D
:100EF000CF911F910F91FF90EF900895CF92DF92C5
:100F0000EF92FF920F93CF93DF9300D00F920F9247
:100F1000CDB7DEB749835A836B837C838D83E980A9
:100F2000FA80F701908141E050E06A0102C0CC0CE8
:100F3000DD1C6A95E2F78C2D809589238083822FB2
:100F4000880F8E770E943F07802F0E943F07F7018E
:100F500080818C2980830F900F900F900F900F90BD
:100F6000DF91CF910F91FF90EF90DF90CF90089598
:100F7000AF92BF92DF92EF92FF920F931F93CF93A6
:100F8000DF9300D00F920F92CDB7DEB749835A831B
:100F9000D62E6B837C838D8309811A81EC80FD8042
:100FA000F701208181E090E002C0880F991F6A95C7
:100FB000E2F7922F982B9083E1E0F1E0908190642A
:100FC0009083F8019081892B80836894AA24A1F8EA
:100FD000BB24B394F5018081806480830E9438072C
:100FE000F50180818F7B8083808180648083402FA6
:100FF000512F1A830983DB827E2DFD82EC8227E349
:101000006D2D8F2D0E944507823989F700E726E272
:1010100049815A816B817C818D810E947E0700E825
:101020002AE249815A816B817C818D810E947E07F1
:1010300009EA2BE249815A816B817C818D810E9472
:101040007E0708EE2DE249815A816B817C818D817A
:101050000E947E0703E02CE249815A816B817C81EA
:101060008D810E947E0700E425E149815A816B81D0
:101070007C818D810E947E070DE321E149815A81A7
:101080006B817C818D810E947E0724E149815A8198
:101090006B817C818D810E944507982F93709923E5
:1010A00079F00F900F900F900F900F90DF91CF91EC
:1010B0001F910F91FF90EF90DF90BF90AF90089538
:1010C000082F036024E149815A816B817C818D81E5
:1010D0000E947E07E6CF0F931F93CF93DF9300D03C
:1010E0000F920F92CDB7DEB749835A836B837C830F
:1010F0008D8307E02DE00E947E0700E021E049811A
:101100005A816B817C818D810E947E0706E229E0F5
:1011100049815A816B817C818D810E947E070CE020
:1011200021E049815A816B817C818D810E947E07FB
:1011300007E82DE049815A816B817C818D810E9475
:101140007E0718EC24E049815A816B817C818D8176
:101150000E9445078073811103C011501111F2CF15
:1011600026E049815A816B817C818D810E944507EF
:101170008B71882359F080E00F900F900F900F90A3
:101180000F90DF91CF911F910F9108952AE049812F
:101190005A816B817C818D810E944507182F00E860
:1011A0002AE049815A816B817C818D810E947E0772
:1011B00081E01111E1CF80E0DFCFCF93DF9300D04A
:1011C0000F920F92CDB7DEB749835A836B837C832E
:1011D0008D830E946B0881111DC08FE99FE00197EC
:1011E000F1F700C0000049815A816B817C818D81BB
:1011F0000E946B0881110EC0EFE9FFE03197F1F713
:1012000000C000000F900F900F900F900F90DF9193
:10121000CF91089581E0F6CFEAE0F1E08081806827
:101220008083EBE0F1E08081806880838081806250
:10123000808380818F7780830895EAE0F1E0808168
:1012400080688083EBE0F1E080818F7D8083808106
:10125000806280838081806880830895EAE0F1E085
:1012600090819068908328E030E0EBE0F1E00CC0E2
:1012700090819F7790839081906290838695215092
:1012800031092115310549F090819F7D908380FFC0
:10129000EFCF908190689083EECFEBE0F1E080811A
:1012A0008F7D80838081806280830895CF93C82F53
:1012B0000E940C098C2F877088680E942E090E945A
:1012C0001D09CF910895EF92FF921F93CF93DF9363
:1012D000D82FC92F0E940C0980E40E942E090E9479
:1012E0001D0913EC0F2EFAE0EF2EF12CF02D0E94C9
:1012F0000C09812F0E942E098D2F9C2FB7010E946F
:101300005B0BD62FC72FFC01EE5DFD4F80810E9445
:101310002E090E941D0911501F3B49F7DF91CF9103
:101320001F91FF90EF900895EF92FF920F931F93FC
:10133000CF93DF9300D000D00F920F92CDB7DEB7DE
:10134000E82EF92E84E6E816F1042CF00F2EF3E6D1
:10135000EF2EF12CF02DFF200CF447C0062F172F95
:101360000436110514F003E610E011230CF440C01C
:101370000E940C0980E40E942E090E941D092AE0A7
:1013800030E0C701B9010E945B0B7A8369839C83BB
:101390008B83C801B9010E945B0B7E836D839887A4
:1013A0008F83DE0111967D0110EC0E940C09812FC4
:1013B0000E942E09D701ED91FD917D01EE5DFD4F5B
:1013C00080810E942E090E941D091F5F143C69F74D
:1013D00028960FB6F894DEBF0FBECDBFDF91CF9138
:1013E0001F910F91FF90EF900895E12CF12CB6CF53
:1013F00000E010E0BDCF1F93CF93DF93C82FD92F0C
:10140000162F0E940C0980EC810F0E942E09C25FEA
:10141000DD4F88810E942E090E941D09DF91CF9126
:101420001F910895EAE0F1E08081806880838081E7
:1014300080628083EBE0F1E080818068808380813E
:101440008062808382E00E945609089560E083E113
:1014500090E00E94FB0961E083E090E00E94FB09BC
:1014600062E086E090E00E94FB0963E087E090E0A4
:101470000E94FB09089584E090E00E94630961E006
:1014800081E090E00E94FB0962E085E090E00E942C
:10149000FB0963E088E090E00E94FB09089560E0AA
:1014A00081E190E00E94FB0961E088E090E00E9409
:1014B000FB0962E087E090E00E94FB0963E08BE0BB
:1014C00090E00E94FB09089560E083E190E00E94B3
:1014D000FB0961E086E090E00E94FB0962E08DE09C
:1014E00090E00E94FB0963E08BE090E00E94FB0922
:1014F000089560E083E190E00E94FB0961E083E0F1
:1015000090E00E94FB0962E08CE090E00E94FB0901
:1015100063E081E190E00E94FB09089560E081E1D1
:1015200090E00E94FB0961E082E190E00E94FB09EB
:1015300062E08FE090E00E94FB0963E08CE090E0C5
:101540000E94FB09089560E084E090E00E94FB099E
:1015500061E089E090E00E94FB0962E080E190E0B8
:101560000E94FB0963E081E190E00E94FB0908957D
:1015700060E083E190E00E94FB0961E08EE090E092
:101580000E94FB0962E081E090E00E94FB0963E0B9
:1015900083E090E00E94FB090895882319F00E94DF
:1015A000640A08950E94B80A089560E08BE090E014
:1015B0000E94FB0961E085E090E00E94FB0962E087
:1015C00086E090E00E94FB0963E081E190E00E94E8
:1015D000FB09089560E08FE090E00E94FB0961E064
:1015E00087E090E00E94FB0962E088E090E00E94C2
:1015F000FB0963E081E190E00E94FB0908958823E4
:1016000019F00E94EA0A08950E94D50A089560E040
:1016100083E190E00E94FB0961E083E190E00E9499
:10162000FB0962E087E090E00E94FB0963E08DE047
:1016300090E00E94FB09089560E083E190E00E9441
:10164000FB0961E085E090E00E94FB0962E08CE02C
:1016500090E00E94FB0963E084E090E00E94FB09B7
:10166000089560E080E190E00E94FB0961E08FE076
:1016700090E00E94FB0962E083E090E00E94FB0999
:1016800063E088E090E00E94FB09089560E080E15B
:1016900090E00E94FB0961E081E190E00E94FB097B
:1016A00062E08DE090E00E94FB0963E08EE090E054
:1016B0000E94FB09089597FB072E16F4009407D0AB
:1016C00077FD09D00E94B80B07FC05D03EF4909539
:1016D00081959F4F0895709561957F4F0895A1E280
:1016E0001A2EAA1BBB1BFD010DC0AA1FBB1FEE1F9C
:1016F000FF1FA217B307E407F50720F0A21BB30BE7
:10170000E40BF50B661F771F881F991F1A9469F762
:1017100060957095809590959B01AC01BD01CF01BE
:101720000895052E97FB1EF400940E94A80B57FD08
:1017300007D00E946F0B07FC03D04EF40C94A80B4B
:1017400050954095309521953F4F4F4F5F4F0895ED
:1017500090958095709561957F4F8F4F9F4F08951D
:10176000EE0FFF1F881F8BBF0790F691E02D199495
:10177000AA1BBB1B51E107C0AA1FBB1FA617B707B7
:1017800010F0A61BB70B881F991F5A95A9F78095D3
:101790009095BC01CD010895F894FFCFBF02C5021A
:1017A000CB02D102D702DD02E302E902EF02850695
:1017B00091069D06A906B506C106CD06D906E50621
:0C17C000F106FD060907150721072D079B
:1017CC00FFFFFFFF25000024000B01000A014077FA
:1017DC007C395E79713D74060E38373F73316D7804
:1017EC003E003F065B4F666D7D077F6F00303132E8
:1017FC0033343536373839414243444546004D4140
:10180C00535445523A2053656E64696E6720746F69
:10181C0020536C6176653A20004D41535445523A41
:10182C0020436F6D6D616E642073656E742E0D0AAE
:02183C000000AA
:00000001FF
