:100000000C94A2000C9404010C94C3000C94C30043
:100010000C94C3000C94C3000C94C3000C94C30054
:100020000C94C3000C94C3000C94C3000C94C30044
:100030000C94C3000C94C3000C94C3000C94C30034
:100040000C94C3000C94C3000C94C3000C94C30024
:100050000C94C3000C94C3000C94C3000C94C30014
:100060000C94C3000C94C3000C94C3000C94C30004
:100070000C94C3000C94C3000C94C3000C94C300F4
:100080000C94C3000C94C3000C94C3000C94C300E4
:100090000C94C3000C94C3000C94C3000C94C300D4
:1000A0000C94C3000C94C3000C94C3000C94C300C4
:1000B0000C94C3000C94C3000C94C3000C94C300B4
:1000C0000C94C3000C94C3000C94C3000C94C300A4
:1000D0000C94C3000C94C3000C94C3000C94C30094
:1000E0000C94C3000C9423060C94FF050C941C0282
:1000F0000C94B7050C9417060C94FE010C94DB05C8
:100100000C9493050C94CF050C94C3050C94E7054F
:100110000C9416020C94AB050C9422020C94F3057B
:100120000C9404020C940A020C949F050C94100287
:100130000C94F8010C942F060C943B060C940B06BF
:100140000C94F20111241FBECFEFD1E2DEBFCDBF70
:1001500000E00CBF12E0A0E0B2E0E8EEF5E100E064
:100160000BBF02C007900D92A237B107D9F722E06A
:10017000A2E7B2E001C01D92A837B207E1F70E94E2
:10018000F0020C94DA0A0C940000EAE0F1E08081BD
:10019000877F808380818B7F8083EBE0F1E08081AB
:1001A0008860808380818460808308955098589A05
:1001B000089A109AE9E6F0E0808183608083E89AEB
:1001C00008958091090183FB882780F991E08927B0
:1001D00008958091090182FB882780F991E08927A1
:1001E000089589B1817008955198599A08950E948F
:1001F000F4000E94C5000E94D600089589B186953A
:10020000817091E0892708951F920F920FB60F9287
:10021000112402C00E94540A109880E00E945304E6
:100220004899F8CF0E94FE008823B1F3109AF89401
:1002300088E180936000FFCF9C0140E050E060E4E3
:1002400072E48FE090E00E947D0A215031093093E2
:10025000C5002093C40088E18093C10086E08093AC
:10026000C20008959C0140E050E060E472E48FE039
:1002700090E00E947D0A215031093093CD002093F7
:10028000CC0088E18093C90086E08093CA0008957D
:10029000E0ECF0E0908195FFFDCF8093C6000895DB
:1002A000CF93DF93C82FD92F8881882331F02196EF
:1002B0000E94480189918111FBCFDF91CF91089570
:1002C0001F93CF93DF93CDB7DEB761970FB6F89446
:1002D000DEBF0FBECDBF182F81E1EDE2F2E0DE01FF
:1002E000119601900D928A95E1F7812F82958F707A
:1002F000E1E0F0E0EC0FFD1FE80FF11D80810E94AE
:1003000048011F70E1E0F0E0EC0FFD1FE10FF11D6F
:1003100080810E94480161960FB6F894DEBF0FBE3F
:10032000CDBFDF91CF911F9108950F931F93CF936E
:10033000DF93082F162FD42FC22F8EE392E00E9456
:100340005001802F0E94600180E20E944801812FAD
:100350000E94600180E20E9448018D2F0E9460018E
:1003600080E20E9448018C2F0E9460018EE692E09C
:100370000E945001E8ECF0E0908195FFFDCF0093E2
:10038000CE00E8ECF0E0908195FFFDCF1093CE0019
:10039000E8ECF0E0908195FFFDCFD093CE00E8EC43
:1003A000F0E0908195FFFDCFC093CE0089E592E00B
:1003B0000E945001DF91CF911F910F910895E8ECB9
:1003C000F0E080818823ECF78091CE000895E82F3B
:1003D000F92F242F0997D8F58827E452F54F8F4F2E
:1003E0000C94BE0A462F60E881E00E9495010895B2
:1003F000462F6FEF81E00E9495010895462F60E03F
:1004000081E00E9495010895462F6EE781E00E94E9
:1004100095010895462F6FE781E00E9495010895A8
:10042000462F61E082E00E9495010895462F62E028
:1004300082E00E9495010895462F61E083E00E94CA
:1004400095010895462F62E083E00E94950108958A
:10045000109280008BE08093810088EA91E690936F
:100460008900809388000895109220018BE080938A
:10047000210188EA91E6909329018093280108954B
:100480000E9428020E94340208950E94F7000E94F0
:1004900020090E9440020E94440478940895282F65
:1004A000392F2F3F3207C9F0809102029091030249
:1004B0008F3F980791F018161906DCF4B19B25C000
:1004C00082E086BB80910202909103020197909393
:1004D00003028093020280E0089530930302209388
:1004E000020282E086BB109285001092840080E0B8
:1004F0000895892B11F080E008958FEF9FEF90937E
:1005000003028093020281E0089580E00895282F7D
:10051000392F2F3F3207C9F08091000290910102DC
:100520008F3F980791F018161906DCF4D19B25C06F
:1005300082E08ABB80910002909101020197909322
:1005400001028093000280E008953093010220931D
:10055000000282E08ABB109225011092240180E003
:100560000895892B11F080E008958FEF9FEF90930D
:1005700001028093000281E0089580E008950F93C6
:100580001F93CF93DF93C82FD92F062F172F0E94C9
:10059000E100811101C018820E94E900811102C0AE
:1005A000F80110820E94E100882319F088818823D5
:1005B00051F00E94E900882371F0F80180818823BE
:1005C00011F080E008C00E94E10088830E94E900E9
:1005D000F801808381E0DF91CF911F910F91089501
:1005E000CDB7DEB72C970FB6F894DEBF0FBECDBFE8
:1005F00019821A8285E0E4E0F2E0DE0113960190B0
:100600000D928A95E1F785E0E9E0F2E0DE011896C7
:1006100001900D928A95E1F70E94450280E895E2EB
:100620000E94320180E895E20E941C014B815C81AE
:100630006D817E818F810E94C606488559856A85B5
:100640007B858C850E94C606712C212CA12CB12C97
:10065000C12CD12CE12CF12C01E010E04424439476
:10066000512C312C662463940F2EF8EC8F2E912C94
:10067000F02D2EC00115110559F54B815C816D815E
:100680007E818F810E94EB078823C9F00E94340984
:100690001FC00430110509F4DEC005301105C1F496
:1006A000E114F10409F4CDC00E949C090E94DF010D
:1006B000813071F4E12CF12C03E0132D09C00E946C
:1006C0002A0A06C00E94C6090E94FE0081112DC0A0
:1006D0000330110599F1E8F60130110599F3023064
:1006E000110541F6E114F10409F45FC0B501C6013A
:1006F0000E94A20887E00E9464088AE090E00E94BD
:100700004F02811182C0B501C6010E94A20848852E
:1007100059856A857B858C850E947907882309F431
:1007200068C0762CEACF0E94150A85E090E00E940E
:100730004F028823C1F303E0132DCACFE114F10463
:1007400049F1B501C6010E94A208BE016E5F7F4F4C
:10075000CE0101960E94BF02882369F02FEF89E63F
:1007600098E1215080409040E1F700C00000E12C6A
:10077000F12C02E010E0F401808188230CF0A8CF76
:100780000E94DF01813009F0A3CFE12CF12C05E0BC
:1007900010E09ECF4FEF6FEF842D952D0E94E70163
:1007A00019821A82E42CF52C93CF488559856A85E5
:1007B0007B858C850E947907882331F0762C222056
:1007C00079F004E010E084CF4B815C816D817E8103
:1007D0008F810E947907882391F377247394EFCF58
:1007E0004FEF6FEF84E090E00E94E701E42CF52CDE
:1007F0006FCF4B815C816D817E818F810E947907F3
:10080000882309F47ACF762C78CF772069F0FFEF30
:10081000CF1ADF0A0E94A904782E8111FBCFE12CA8
:10082000F12C03E0132D54CF2FEFA21AB20A0E942D
:100830001205782E8111FBCFE12CF12C03E0132D52
:1008400047CF4FEF6FEF86E090E00E94E701262C44
:10085000E42CF52C3DCFE114F10419F00E942A0A92
:1008600037CF4FEF6FEF84E090E00E94E7010E94E6
:100870002A0A8FEF9FEF0E944F020E947B05811191
:10088000FCCFE42CF52C24CF6D98759A82E08093F0
:10089000900089E1809391008EE195E090939D0016
:1008A00080939C000895882339F06D9AE0E9F0E088
:1008B00080818C60808308956D98E0E9F0E080810C
:1008C000837F808308959C01990F440B550B60E052
:1008D00074E284EF90E00E949F0AC9010895EF92AC
:1008E000FF920F931F93CF93DF93C82FD92FCB0184
:1008F000E42EF52E022F132F0E944F02811122C0E9
:100900009E01DD0F440B550B60E074E284EF90E034
:100910000E949F0A30939700209396002FE832E0C0
:10092000E29EC001E39E900DF29E900D11249093E3
:100930009D0080939C00DF91CF911F910F91FF90BC
:10094000EF900895F80180819181019691838083D1
:10095000F2CF8091760290917702892BD9F0809125
:100960007602909177028330910509F443C034F503
:100970008130910599F18230910581F426E732E0CA
:100980004FE050E061E070E08AE691E00E946F0481
:1009900081E0089581E00E945304E1CF892B61F446
:1009A00026E732E04FE050E061E070E08CEE91E04D
:1009B0000E946F0481E0089581E0089584309105DC
:1009C00029F1059749F480E00E94530410927702C0
:1009D0001092760280E0089581E0089526E732E0E3
:1009E00040E050E061E070E08EEA91E00E946F0428
:1009F00081E0089526E732E04FE050E061E070E0EA
:100A00008FE692E00E946F0481E0089526E732E0CD
:100A100040E050E061E070E08FE692E00E946F04F9
:100A200081E008958091740290917502892BD9F02C
:100A300080917402909175028330910509F443C04E
:100A400034F58130910599F18230910581F424E7E4
:100A500032E04FE050E063E070E08AE891E00E940D
:100A60006F0481E0089581E00E945304E1CF892B57
:100A700061F424E732E04FE050E063E070E08EEA9A
:100A800091E00E946F0481E0089581E00895843030
:100A9000910529F1059749F480E00E9453041092D2
:100AA00075021092740280E0089581E0089524E7B1
:100AB00032E040E050E062E070E08EEA91E00E94B7
:100AC0006F0481E0089524E732E04FE050E067E0F2
:100AD00070E08AE691E00E946F0481E0089524E7C7
:100AE00032E040E050E061E070E08FE692E00E948A
:100AF0006F0481E008958091720290917302892BB6
:100B000071F0E0917202F0917302EF30F10508F09C
:100B1000BBC08827EB51F54F8F4F0C94BE0A81E084
:100B20000E945304EECF22E732E04FE050E061E054
:100B300070E08FE692E00E946F0481E0089522E762
:100B400032E04FE050E061E070E082E592E00E9428
:100B50006F0481E0089522E732E04FE050E062E068
:100B600070E08EEA91E00E946F0481E0089522E730
:100B700032E04FE050E062E070E081EC91E00E94F2
:100B80006F0481E0089522E732E04FE050E061E039
:100B900070E082E592E00E946F0481E0089522E710
:100BA00032E04FE050E061E070E08CE192E00E94C2
:100BB0006F0481E0089522E732E04FE050E062E008
:100BC00070E08AE691E00E946F0481E0089522E7D8
:100BD00032E04FE050E062E070E08AE891E00E948D
:100BE0006F0481E0089522E732E04FE050E061E0D9
:100BF00070E08CE192E00E946F0481E0089522E7AA
:100C000032E04FE050E061E070E08CEE91E00E9455
:100C10006F0481E0089522E732E04FE050E062E0A7
:100C200070E08AE691E00E946F0481E0089522E777
:100C300032E04FE050E062E070E08AE891E00E942C
:100C40006F0481E0089522E732E04FE050E065E074
:100C500070E08EEA91E00E946F0481E0089522E73F
:100C600032E040E050E065E070E08AE691E00E940A
:100C70006F0481E0089580E00E9453041092730293
:100C80001092720280E0089581E0089584B1876037
:100C900084B9239881E58CBD08958EBD0DB407FEFF
:100CA000FDCF8EB50895EF92FF920F931F93CF93D0
:100CB000DF9300D00F920F92CDB7DEB749835A83EE
:100CC0006B837C838D83822F09811A81F801408197
:100CD00021E030E0790102C0EE0CFF1C6A95E2F7DA
:100CE0009E2D909594239083880F8E7780680E9424
:100CF0004D0680E00E944D06F80190819E29908368
:100D00000F900F900F900F900F90DF91CF911F9148
:100D10000F91FF90EF900895CF92DF92EF92FF92A4
:100D20000F93CF93DF9300D00F920F92CDB7DEB722
:100D300049835A836B837C838D83E980FA80F70132
:100D4000908141E050E06A0102C0CC0CDD1C6A9544
:100D5000E2F78C2D809589238083822F880F8E77F0
:100D60000E944D06802F0E944D06F70180818C293C
:100D700080830F900F900F900F900F90DF91CF9185
:100D80000F91FF90EF90DF90CF900895AF92BF92B8
:100D9000DF92EF92FF920F931F93CF93DF9300D0D8
:100DA0000F920F92CDB7DEB749835A83D62E6B834D
:100DB0007C838D8309811A81EC80FD80F70120817D
:100DC00081E090E002C0880F991F6A95E2F7922FA8
:100DD000982B9083E1E0F1E0908190649083F8019A
:100DE0009081892B80836894AA24A1F8BB24B394B2
:100DF000F5018081806480830E944606F501808130
:100E00008F7B8083808180648083402F512F1A8361
:100E10000983DB827E2DFD82EC8227E36D2D8F2DF1
:100E20000E945306823989F700E726E249815A81F8
:100E30006B817C818D810E948C0600E82AE24981C9
:100E40005A816B817C818D810E948C0609EA2BE29C
:100E500049815A816B817C818D810E948C0608EECC
:100E60002DE249815A816B817C818D810E948C06A3
:100E700003E02CE249815A816B817C818D810E9443
:100E80008C0600E425E149815A816B817C818D814A
:100E90000E948C060DE321E149815A816B817C819E
:100EA0008D810E948C0624E149815A816B817C816D
:100EB0008D810E945306982F9370992379F00F909B
:100EC0000F900F900F900F90DF91CF911F910F9186
:100ED000FF90EF90DF90BF90AF900895082F0360D0
:100EE00024E149815A816B817C818D810E948C062D
:100EF000E6CF0F931F93CF93DF9300D00F920F9203
:100F0000CDB7DEB749835A836B837C838D8307E03B
:100F10002DE00E948C0600E021E049815A816B811E
:100F20007C818D810E948C0606E229E049815A81EC
:100F30006B817C818D810E948C060CE021E04981CF
:100F40005A816B817C818D810E948C0607E82DE09F
:100F500049815A816B817C818D810E948C0618ECBD
:100F600024E049815A816B817C818D810E945306E6
:100F70008073811103C011501111F2CF26E0498115
:100F80005A816B817C818D810E9453068B718823ED
:100F900059F080E00F900F900F900F900F90DF911D
:100FA000CF911F910F9108952AE049815A816B8159
:100FB0007C818D810E945306182F00E82AE0498128
:100FC0005A816B817C818D810E948C0681E0111198
:100FD000E1CF80E0DFCFCF93DF9300D00F920F926D
:100FE000CDB7DEB749835A836B837C838D830E94A0
:100FF000790781111DC08FE99FE00197F1F700C0CB
:10100000000049815A816B817C818D810E94790722
:1010100081110EC0EFE9FFE03197F1F700C0000049
:101020000F900F900F900F900F90DF91CF91089538
:1010300081E0F6CFEAE0F1E0808180688083EBE038
:10104000F1E08081806880838081806280838081FC
:101050008F7780830895EAE0F1E080818068808363
:10106000EBE0F1E080818F7D8083808180628083EE
:101070008081806880830895EAE0F1E09081906843
:10108000908328E030E0EBE0F1E00CC090819F77A6
:10109000908390819062908386952150310921152B
:1010A000310549F090819F7D908380FFEFCF908143
:1010B00090689083EECFEBE0F1E080818F7D8083BC
:1010C0008081806280830895CF93C82F0E941A0880
:1010D0008C2F877088680E943C080E942B08CF9153
:1010E0000895EF92FF921F93CF93DF93D82FC92FCC
:1010F0000E941A0880E40E943C080E942B0813EC0E
:101100000F2EFAE0EF2EF12CF02D0E941A08812FFD
:101110000E943C088D2F9C2FB7010E94690AD62F90
:10112000C72FFC01EE5DFD4F80810E943C080E94AC
:101130002B0811501F3B49F7DF91CF911F91FF9072
:10114000EF900895EF92FF920F931F93CF93DF9349
:1011500000D000D00F920F92CDB7DEB7E82EF92E57
:1011600084E6E816F1042CF00F2EF3E6EF2EF12CB6
:10117000F02DFF200CF447C0062F172F0436110561
:1011800014F003E610E011230CF440C00E941A088A
:1011900080E40E943C080E942B082AE030E0C7014E
:1011A000B9010E94690A7A8369839C838B83C80191
:1011B000B9010E94690A7E836D8398878F83DE015F
:1011C00011967D0110EC0E941A08812F0E943C08A4
:1011D000D701ED91FD917D01EE5DFD4F80810E9473
:1011E0003C080E942B081F5F143C69F728960FB635
:1011F000F894DEBF0FBECDBFDF91CF911F910F914D
:10120000FF90EF900895E12CF12CB6CF00E010E0B4
:10121000BDCF1F93CF93DF93C82FD92F162F0E94D6
:101220001A0880EC810F0E943C08C25FDD4F888164
:101230000E943C080E942B08DF91CF911F910895D6
:10124000EAE0F1E080818068808380818062808331
:10125000EBE0F1E080818068808380818062808320
:1012600082E00E946408089560E083E190E00E94BB
:10127000090961E083E090E00E94090962E086E0EC
:1012800090E00E94090963E087E090E00E9409096C
:10129000089584E090E00E94710861E081E090E0B0
:1012A0000E94090962E085E090E00E94090963E07C
:1012B00088E090E00E940909089560E081E190E0F3
:1012C0000E94090961E088E090E00E94090962E05B
:1012D00087E090E00E94090963E08BE090E00E94C3
:1012E0000909089560E083E190E00E94090961E046
:1012F00086E090E00E94090962E08DE090E00E94A3
:10130000090963E08BE090E00E940909089560E01C
:1013100083E190E00E94090961E083E090E00E948F
:10132000090962E08CE090E00E94090963E081E134
:1013300090E00E940909089560E081E190E00E9438
:10134000090961E082E190E00E94090962E08FE012
:1013500090E00E94090963E08CE090E00E94090996
:10136000089560E084E090E00E94090961E089E06E
:1013700090E00E94090962E080E190E00E94090982
:1013800063E081E190E00E940909089560E083E153
:1013900090E00E94090961E08EE090E00E94090956
:1013A00062E081E090E00E94090963E083E090E060
:1013B0000E9409090895882319F00E94720908956E
:1013C0000E94C609089560E08BE090E00E94090940
:1013D00061E085E090E00E94090962E086E090E02B
:1013E0000E94090963E081E190E00E9409090895E3
:1013F00060E08FE090E00E94090961E087E090E002
:101400000E94090962E088E090E00E94090963E017
:1014100081E190E00E9409090895882319F00E9453
:10142000F80908950E94E309089560E083E190E0DF
:101430000E94090961E083E190E00E94090962E0ED
:1014400087E090E00E94090963E08DE090E00E944F
:101450000909089560E083E190E00E94090961E0D4
:1014600085E090E00E94090962E08CE090E00E9433
:10147000090963E084E090E00E940909089560E0B2
:1014800080E190E00E94090961E08FE090E00E9415
:10149000090962E083E090E00E94090963E088E0C6
:1014A00090E00E940909089560E080E190E00E94C8
:1014B000090961E081E190E00E94090962E08DE0A4
:1014C00090E00E94090963E08EE090E00E94090923
:1014D000089597FB072E16F4009407D077FD09D0E6
:1014E0000E94C60A07FC05D03EF4909581959F4F57
:1014F0000895709561957F4F0895A1E21A2EAA1B59
:10150000BB1BFD010DC0AA1FBB1FEE1FFF1FA217B3
:10151000B307E407F50720F0A21BB30BE40BF50BB0
:10152000661F771F881F991F1A9469F76095709539
:10153000809590959B01AC01BD01CF010895052ECA
:1015400097FB1EF400940E94B60A57FD07D00E9434
:101550007D0A07FC03D04EF40C94B60A50954095D2
:10156000309521953F4F4F4F5F4F0895909580954F
:10157000709561957F4F8F4F9F4F0895EE0FFF1F1E
:10158000881F8BBF0790F691E02D1994AA1BBB1BF7
:1015900051E107C0AA1FBB1FA617B70710F0A61B73
:1015A000B70B881F991F5A95A9F780959095BC0194
:1015B000CD010895F894FFCFF201F801FE01040275
:1015C0000A02100216021C02220293059F05AB05B7
:1015D000B705C305CF05DB05E705F305FF050B06DA
:0815E000170623062F063B0647
:1015E800FFFFFFFF25000024000B01000A014077E0
:1015F8007C395E79713D74060E38373F73316D78EA
:101608003E003F065B4F666D7D077F6F00303132CD
:1016180033343536373839414243444546004D4125
:10162800535445523A2053656E64696E6720746F4F
:1016380020536C6176653A20004D41535445523A27
:1016480020436F6D6D616E642073656E742E0D0A94
:02165800000090
:00000001FF
