:100000000C94A2000C9404010C94C3000C94C30043
:100010000C94C3000C94C3000C94C3000C94C30054
:100020000C94C3000C94C3000C94C3000C94C30044
:100030000C94C3000C94C3000C94C3000C94C30034
:100040000C94C3000C94C3000C94C3000C94C30024
:100050000C94C3000C94C3000C94C3000C94C30014
:100060000C94C3000C94C3000C94C3000C94C30004
:100070000C94C3000C94C3000C94C3000C94C300F4
:100080000C94C3000C94C3000C94C3000C94C300E4
:100090000C94C3000C94C3000C94C3000C94C300D4
:1000A0000C94C3000C94C3000C94C3000C94C300C4
:1000B0000C94C3000C94C3000C94C3000C94C300B4
:1000C0000C94C3000C94C3000C94C3000C94C300A4
:1000D0000C94C3000C94C3000C94C3000C94C30094
:1000E0000C94C3000C9421060C94FD050C941C0286
:1000F0000C94B5050C9415060C94FE010C94D905CE
:100100000C9491050C94CD050C94C1050C94E50557
:100110000C9416020C94A9050C9422020C94F1057F
:100120000C9404020C940A020C949D050C94100289
:100130000C94F8010C942D060C9439060C940906C5
:100140000C94F20111241FBECFEFD1E2DEBFCDBF70
:1001500000E00CBF12E0A0E0B2E0E4EEF5E100E068
:100160000BBF02C007900D92A237B107D9F722E06A
:10017000A2E7B2E001C01D92A837B207E1F70E94E2
:10018000F0020C94D80A0C940000EAE0F1E08081BF
:10019000877F808380818B7F8083EBE0F1E08081AB
:1001A0008860808380818460808308955098589A05
:1001B000089A109AE9E6F0E0808183608083E89AEB
:1001C00008958091090183FB882780F991E08927B0
:1001D00008958091090182FB882780F991E08927A1
:1001E000089589B1817008955198599A08950E948F
:1001F000F4000E94C5000E94D600089589B186953A
:10020000817091E0892708951F920F920FB60F9287
:10021000112402C00E94520A109880E00E945104EA
:100220004899F8CF0E94FE008823B1F3109AF89401
:1002300088E180936000FFCF9C0140E050E060E4E3
:1002400072E48FE090E00E947B0A215031093093E4
:10025000C5002093C40088E18093C10086E08093AC
:10026000C20008959C0140E050E060E472E48FE039
:1002700090E00E947B0A215031093093CD002093F9
:10028000CC0088E18093C90086E08093CA0008957D
:10029000E0ECF0E0908195FFFDCF8093C6000895DB
:1002A000CF93DF93C82FD92F8881882331F02196EF
:1002B0000E94480189918111FBCFDF91CF91089570
:1002C0001F93CF93DF93CDB7DEB761970FB6F89446
:1002D000DEBF0FBECDBF182F81E1EDE2F2E0DE01FF
:1002E000119601900D928A95E1F7812F82958F707A
:1002F000E1E0F0E0EC0FFD1FE80FF11D80810E94AE
:1003000048011F70E1E0F0E0EC0FFD1FE10FF11D6F
:1003100080810E94480161960FB6F894DEBF0FBE3F
:10032000CDBFDF91CF911F9108950F931F93CF936E
:10033000DF93082F162FD42FC22F8EE392E00E9456
:100340005001802F0E94600180E20E944801812FAD
:100350000E94600180E20E9448018D2F0E9460018E
:1003600080E20E9448018C2F0E9460018EE692E09C
:100370000E945001E8ECF0E0908195FFFDCF0093E2
:10038000CE00E8ECF0E0908195FFFDCF1093CE0019
:10039000E8ECF0E0908195FFFDCFD093CE00E8EC43
:1003A000F0E0908195FFFDCFC093CE0089E592E00B
:1003B0000E945001DF91CF911F910F910895E8ECB9
:1003C000F0E080818823ECF78091CE000895E82F3B
:1003D000F92F242F0997D8F58827E652F54F8F4F2C
:1003E0000C94BC0A462F60E881E00E9495010895B4
:1003F000462F6FEF81E00E9495010895462F60E03F
:1004000081E00E9495010895462F6EE781E00E94E9
:1004100095010895462F6FE781E00E9495010895A8
:10042000462F61E082E00E9495010895462F62E028
:1004300082E00E9495010895462F61E083E00E94CA
:1004400095010895462F62E083E00E94950108958A
:10045000109280008BE08093810088EA91E690936F
:100460008900809388000895109220018BE080938A
:10047000210188EA91E6909329018093280108954B
:100480000E9428020E94340208950E94F7000E94F0
:100490001E090E9440020E94420478940895282F69
:1004A000392F2F3F3207C9F0809102029091030249
:1004B0008F3F980791F018161906DCF4B19B25C000
:1004C00082E086BB80910202909103020197909393
:1004D00003028093020280E0089530930302209388
:1004E000020282E086BB109285001092840080E0B8
:1004F0000895892B11F080E008958FEF9FEF90937E
:1005000003028093020281E0089580E00895282F7D
:10051000392F2F3F3207C9F08091000290910102DC
:100520008F3F980791F018161906DCF4D19B25C06F
:1005300082E08ABB80910002909101020197909322
:1005400001028093000280E008953093010220931D
:10055000000282E08ABB109225011092240180E003
:100560000895892B11F080E008958FEF9FEF90930D
:1005700001028093000281E0089580E008950F93C6
:100580001F93CF93DF93C82FD92F062F172F0E94C9
:10059000E100811101C018820E94E900811102C0AE
:1005A000F80110820E94E100882319F088818823D5
:1005B00051F00E94E900882371F0F80180818823BE
:1005C00011F080E008C00E94E10088830E94E900E9
:1005D000F801808381E0DF91CF911F910F91089501
:1005E000CDB7DEB72C970FB6F894DEBF0FBECDBFE8
:1005F00019821A8285E0E4E0F2E0DE0113960190B0
:100600000D928A95E1F785E0E9E0F2E0DE011896C7
:1006100001900D928A95E1F70E94450280E895E2EB
:100620000E94320180E895E20E941C014B815C81AE
:100630006D817E818F810E94C406488559856A85B7
:100640007B858C850E94C406712C212CA12CB12C99
:10065000C12CD12CE12CF12C01E010E04424439476
:10066000512C312C662463940F2EF8EC8F2E912C94
:10067000F02D2EC00115110559F54B815C816D815E
:100680007E818F810E94E9078823C9F00E94320988
:100690001FC00430110509F4DCC005301105C1F498
:1006A000E114F10409F4CBC00E949A090E94DF0111
:1006B000813071F4E12CF12C03E0132D09C00E946C
:1006C000280A06C00E94C4090E94FE0081112DC0A4
:1006D0000330110599F1E8F60130110599F3023064
:1006E000110541F6E114F10409F45DC0B501C6013C
:1006F0000E94A00887E00E9462088AE090E00E94C1
:100700004F02811180C0B501C6010E94A008488532
:1007100059856A857B858C850E947707882309F433
:1007200066C0762CEACF0E94130A85E090E00E9412
:100730004F028823C1F303E0132DCACFE114F10463
:10074000E1F0B501C6010E94A008BE016E5F7F4FB7
:10075000CE0101960E94BF0281111AC0F40180816E
:1007600088230CF0B5CF0E94DF01813009F0B0CFB3
:10077000E12CF12C05E010E0ABCF4FEF6FEF842DB3
:10078000952D0E94E70119821A82E42CF52CA0CF46
:1007900085E090E00E944F028823D1F3E12CF12CF8
:1007A00002E010E0DBCF488559856A857B858C8522
:1007B0000E947707882331F0762C222079F004E01C
:1007C00010E086CF4B815C816D817E818F810E949C
:1007D0007707882391F377247394EFCF4FEF6FEF70
:1007E00084E090E00E94E701E42CF52C71CF4B816E
:1007F0005C816D817E818F810E947707882309F457
:100800007CCF762C7ACF772069F0FFEFCF1ADF0A02
:100810000E94A704782E8111FBCFE12CF12C03E07C
:10082000132D56CF8FEFA81AB80A0E941005782E04
:100830008111FBCFE12CF12C03E0132D49CF4FEFB9
:100840006FEF86E090E00E94E701262CE42CF52C67
:100850003FCFE114F10419F00E94280A39CF4FEF7D
:100860006FEF84E090E00E94E7010E94280A8FEF7A
:100870009FEF0E944F020E9479058111FCCFE42C6A
:10088000F52C26CF6D98759A82E08093900089E1CF
:10089000809391008EE195E090939D0080939C0061
:1008A0000895882339F06D9AE0E9F0E080818C604A
:1008B000808308956D98E0E9F0E08081837F8083F4
:1008C00008959C01990F440B550B60E074E284EF8E
:1008D00090E00E949D0AC9010895EF92FF920F9344
:1008E0001F93CF93DF93C82FD92FCB01E42EF52E82
:1008F000022F132F0E944F02811122C09E01DD0F93
:10090000440B550B60E074E284EF90E00E949D0A76
:1009100030939700209396002FE832E0E29EC001CA
:10092000E39E900DF29E900D112490939D00809374
:100930009C00DF91CF911F910F91FF90EF90089550
:10094000F80180819181019691838083F2CF80911B
:10095000760290917702892BD9F08091760290915E
:1009600077028330910509F443C034F58130910555
:1009700099F18230910581F426E732E044E150E0BC
:1009800061E070E08AE691E00E946D0481E00895E4
:1009900081E00E945104E1CF892B61F426E732E027
:1009A00044E150E061E070E08CEE91E00E946D0463
:1009B00081E0089581E008958430910529F105973B
:1009C00049F480E00E94510410927702109276025E
:1009D00080E0089581E0089526E732E040E050E0AD
:1009E00061E070E08EEA91E00E946D0481E008957C
:1009F00026E732E044E150E061E070E08FE692E00B
:100A00000E946D0481E0089526E732E040E050E066
:100A100061E070E08FE692E00E946D0481E008954D
:100A20008091740290917502892BD9F080917402A3
:100A3000909175028330910509F443C034F58130FB
:100A4000910599F18230910581F424E732E044E187
:100A500050E063E070E08AE891E00E946D0481E07C
:100A6000089581E00E945104E1CF892B61F424E7CD
:100A700032E044E150E063E070E08EEA91E00E94F1
:100A80006D0481E0089581E008958430910529F195
:100A9000059749F480E00E9451041092750210926B
:100AA000740280E0089581E0089524E732E040E098
:100AB00050E062E070E08EEA91E00E946D0481E017
:100AC000089524E732E044E150E067E070E08AE610
:100AD00091E00E946D0481E0089524E732E040E057
:100AE00050E061E070E08FE692E00E946D0481E0EA
:100AF00008958091720290917302892B71F0E091B8
:100B00007202F0917302EF30F10508F0BBC0882744
:100B1000ED51F54F8F4F0C94BC0A81E00E945104B7
:100B2000EECF22E732E044E150E061E070E08FE692
:100B300092E00E946D0481E0089522E732E044E1F2
:100B400050E061E070E082E592E00E946D0481E097
:100B5000089522E732E044E150E062E070E08EEA7E
:100B600091E00E946D0481E0089522E732E044E1C3
:100B700050E062E070E081EC91E00E946D0481E061
:100B8000089522E732E044E150E061E070E082E560
:100B900092E00E946D0481E0089522E732E044E192
:100BA00050E061E070E08CE192E00E946D0481E031
:100BB000089522E732E044E150E062E070E08AE626
:100BC00091E00E946D0481E0089522E732E044E163
:100BD00050E062E070E08AE891E00E946D0481E0FC
:100BE000089522E732E044E150E061E070E08CE1FA
:100BF00092E00E946D0481E0089522E732E044E132
:100C000050E061E070E08CEE91E00E946D0481E0C4
:100C1000089522E732E044E150E062E070E08AE6C5
:100C200091E00E946D0481E0089522E732E044E102
:100C300050E062E070E08AE891E00E946D0481E09B
:100C4000089522E732E044E150E065E070E08EEA8A
:100C500091E00E946D0481E0089522E732E040E0D7
:100C600050E065E070E08AE691E00E946D0481E06A
:100C7000089580E00E945104109273021092720253
:100C800080E0089581E0089584B1876084B9239855
:100C900081E58CBD08958EBD0DB407FEFDCF8EB5E8
:100CA0000895EF92FF920F931F93CF93DF9300D09D
:100CB0000F920F92CDB7DEB749835A836B837C8343
:100CC0008D83822F09811A81F801408121E030E073
:100CD000790102C0EE0CFF1C6A95E2F79E2D9095FB
:100CE00094239083880F8E7780680E944B0680E063
:100CF0000E944B06F80190819E2990830F900F90DF
:100D00000F900F900F90DF91CF911F910F91FF9057
:100D1000EF900895CF92DF92EF92FF920F93CF93CF
:100D2000DF9300D00F920F92CDB7DEB749835A837D
:100D30006B837C838D83E980FA80F701908141E0A9
:100D400050E06A0102C0CC0CDD1C6A95E2F78C2DE4
:100D5000809589238083822F880F8E770E944B068F
:100D6000802F0E944B06F70180818C2980830F9091
:100D70000F900F900F900F90DF91CF910F91FF90F8
:100D8000EF90DF90CF900895AF92BF92DF92EF92F5
:100D9000FF920F931F93CF93DF9300D00F920F9288
:100DA000CDB7DEB749835A83D62E6B837C838D8380
:100DB00009811A81EC80FD80F701208181E090E0BB
:100DC00002C0880F991F6A95E2F7922F982B9083A3
:100DD000E1E0F1E0908190649083F8019081892BAB
:100DE00080836894AA24A1F8BB24B394F501808180
:100DF000806480830E944406F50180818F7B80831C
:100E0000808180648083402F512F1A830983DB8285
:100E10007E2DFD82EC8227E36D2D8F2D0E945106E1
:100E2000823989F700E726E249815A816B817C810A
:100E30008D810E948A0600E82AE249815A816B81ED
:100E40007C818D810E948A0609EA2BE249815A81C0
:100E50006B817C818D810E948A0608EE2DE249819A
:100E60005A816B817C818D810E948A0603E02CE28D
:100E700049815A816B817C818D810E948A0600E4C0
:100E800025E149815A816B817C818D810E948A068E
:100E90000DE321E149815A816B817C818D810E9422
:100EA0008A0624E149815A816B817C818D810E946F
:100EB0005106982F9370992379F00F900F900F900F
:100EC0000F900F90DF91CF911F910F91FF90EF90B6
:100ED000DF90BF90AF900895082F036024E149810F
:100EE0005A816B817C818D810E948A06E6CF0F93A7
:100EF0001F93CF93DF9300D00F920F92CDB7DEB741
:100F000049835A836B837C838D8307E02DE00E94A5
:100F10008A0600E021E049815A816B817C818D81C4
:100F20000E948A0606E229E049815A816B817C8110
:100F30008D810E948A060CE021E049815A816B81F3
:100F40007C818D810E948A0607E82DE049815A81C3
:100F50006B817C818D810E948A0618EC24E0498196
:100F60005A816B817C818D810E9451068073811131
:100F700003C011501111F2CF26E049815A816B81D3
:100F80007C818D810E9451068B71882359F080E00D
:100F90000F900F900F900F900F90DF91CF911F91B6
:100FA0000F9108952AE049815A816B817C818D815E
:100FB0000E945106182F00E82AE049815A816B816E
:100FC0007C818D810E948A0681E01111E1CF80E051
:100FD000DFCFCF93DF9300D00F920F92CDB7DEB764
:100FE00049835A836B837C838D830E9477078111A9
:100FF0001DC08FE99FE00197F1F700C00000498113
:101000005A816B817C818D810E94770781110EC08E
:10101000EFE9FFE03197F1F700C000000F900F906B
:101020000F900F900F90DF91CF91089581E0F6CF50
:10103000EAE0F1E0808180688083EBE0F1E080818C
:101040008068808380818062808380818F778083C5
:101050000895EAE0F1E0808180688083EBE0F1E0D0
:1010600080818F7D808380818062808380818068A1
:1010700080830895EAE0F1E090819068908328E011
:1010800030E0EBE0F1E00CC090819F77908390819D
:10109000906290838695215031092115310549F0E0
:1010A00090819F7D908380FFEFCF908190689083A7
:1010B000EECFEBE0F1E080818F7D808380818062E4
:1010C00080830895CF93C82F0E9418088C2F8770B3
:1010D00088680E943A080E942908CF910895EF92EB
:1010E000FF921F93CF93DF93D82FC92F0E94180828
:1010F00080E40E943A080E94290813EC0F2EFAE0BF
:10110000EF2EF12CF02D0E941808812F0E943A0832
:101110008D2F9C2FB7010E94670AD62FC72FFC0185
:10112000EE5DFD4F80810E943A080E94290811500F
:101130001F3B49F7DF91CF911F91FF90EF900895EA
:10114000EF92FF920F931F93CF93DF9300D000D0C5
:101150000F920F92CDB7DEB7E82EF92E84E6E8168F
:10116000F1042CF00F2EF3E6EF2EF12CF02DFF20E2
:101170000CF447C0062F172F0436110514F003E6B0
:1011800010E011230CF440C00E94180880E40E9473
:101190003A080E9429082AE030E0C701B9010E94FC
:1011A000670A7A8369839C838B83C801B9010E9493
:1011B000670A7E836D8398878F83DE0111967D0198
:1011C00010EC0E941808812F0E943A08D701ED9177
:1011D000FD917D01EE5DFD4F80810E943A080E94E5
:1011E00029081F5F143C69F728960FB6F894DEBFF4
:1011F0000FBECDBFDF91CF911F910F91FF90EF9068
:101200000895E12CF12CB6CF00E010E0BDCF1F9384
:10121000CF93DF93C82FD92F162F0E94180880EC88
:10122000810F0E943A08C25FDD4F88810E943A0810
:101230000E942908DF91CF911F910895EAE0F1E023
:10124000808180688083808180628083EBE0F1E030
:1012500080818068808380818062808382E00E94B8
:101260006208089560E083E190E00E94070961E070
:1012700083E090E00E94070962E086E090E00E942F
:10128000070963E087E090E00E940709089584E081
:1012900090E00E946F0861E081E090E00E94070901
:1012A00062E085E090E00E94070963E088E090E05A
:1012B0000E940709089560E081E190E00E9407091B
:1012C00061E088E090E00E94070962E087E090E03A
:1012D0000E94070963E08BE090E00E9407090895EF
:1012E00060E083E190E00E94070961E086E090E021
:1012F0000E94070962E08DE090E00E94070963E028
:101300008BE090E00E940709089560E083E190E09F
:101310000E94070961E083E090E00E94070962E013
:101320008CE090E00E94070963E081E190E00E9478
:101330000709089560E081E190E00E94070961E0FB
:1013400082E190E00E94070962E08FE090E00E9455
:10135000070963E08CE090E00E940709089560E0CF
:1013600084E090E00E94070961E089E090E00E943B
:10137000070962E080E190E00E94070963E081E1F3
:1013800090E00E940709089560E083E190E00E94E8
:10139000070961E08EE090E00E94070962E081E0C9
:1013A00090E00E94070963E083E090E00E94070953
:1013B0000895882319F00E94700908950E94C409B5
:1013C000089560E08BE090E00E94070961E085E00D
:1013D00090E00E94070962E086E090E00E94070921
:1013E00063E081E190E00E940709089560E08FE0EA
:1013F00090E00E94070961E087E090E00E94070901
:1014000062E088E090E00E94070963E081E190E0FB
:101410000E9407090895882319F00E94F60908958B
:101420000E94E109089560E083E190E00E940709CD
:1014300061E083E190E00E94070962E087E090E0CC
:101440000E94070963E08DE090E00E94070908957B
:1014500060E083E190E00E94070961E085E090E0B0
:101460000E94070962E08CE090E00E94070963E0B7
:1014700084E090E00E940709089560E080E190E038
:101480000E94070961E08FE090E00E94070962E096
:1014900083E090E00E94070963E088E090E00E940A
:1014A0000709089560E080E190E00E94070961E08B
:1014B00081E190E00E94070962E08DE090E00E94E7
:1014C000070963E08EE090E00E940709089597FB0A
:1014D000072E16F4009407D077FD09D00E94C40AA5
:1014E00007FC05D03EF4909581959F4F0895709527
:1014F00061957F4F0895A1E21A2EAA1BBB1BFD0127
:101500000DC0AA1FBB1FEE1FFF1FA217B307E407E2
:10151000F50720F0A21BB30BE40BF50B661F771F3A
:10152000881F991F1A9469F760957095809590951A
:101530009B01AC01BD01CF010895052E97FB1EF460
:1015400000940E94B40A57FD07D00E947B0A07FC52
:1015500003D04EF40C94B40A5095409530952195E3
:101560003F4F4F4F5F4F08959095809570956195CF
:101570007F4F8F4F9F4F0895EE0FFF1F881F8BBF28
:101580000790F691E02D1994AA1BBB1B51E107C0EF
:10159000AA1FBB1FA617B70710F0A61BB70B881F03
:1015A000991F5A95A9F780959095BC01CD01089592
:1015B000F894FFCFF201F801FE0104020A021002C2
:1015C00016021C02220291059D05A905B505C1055B
:1015D000CD05D905E505F105FD0509061506210628
:0415E0002D06390695
:1015E400FFFFFFFF25000024000B01000A014077E4
:1015F4007C395E79713D74060E38373F73316D78EE
:101604003E003F065B4F666D7D077F6F00303132D1
:1016140033343536373839414243444546004D4129
:10162400535445523A2053656E64696E6720746F53
:1016340020536C6176653A20004D41535445523A2B
:1016440020436F6D6D616E642073656E742E0D0A98
:02165400000094
:00000001FF
