:100000000C94A2000C9404010C94C3000C94C30043
:100010000C94C3000C94C3000C94C3000C94C30054
:100020000C94C3000C94C3000C94C3000C94C30044
:100030000C94C3000C94C3000C94C3000C94C30034
:100040000C94C3000C94C3000C94C3000C94C30024
:100050000C94C3000C94C3000C94C3000C94C30014
:100060000C94C3000C94C3000C94C3000C94C30004
:100070000C94C3000C94C3000C94C3000C94C300F4
:100080000C94C3000C94C3000C94C3000C94C300E4
:100090000C94C3000C94C3000C94C3000C94C300D4
:1000A0000C94C3000C94C3000C94C3000C94C300C4
:1000B0000C94C3000C94C3000C94C3000C94C300B4
:1000C0000C94C3000C94C3000C94C3000C94C300A4
:1000D0000C94C3000C94C3000C94C3000C94C30094
:1000E0000C94C3000C9430060C940C060C941C0267
:1000F0000C94C4050C9424060C94FE010C94E805A1
:100100000C94A0050C94DC050C94D0050C94F4051B
:100110000C9416020C94B8050C9422020C94000660
:100120000C9404020C940A020C94AC050C9410027A
:100130000C94F8010C943C060C9448060C94180698
:100140000C94F20111241FBECFEFD1E2DEBFCDBF70
:1001500000E00CBF12E0A0E0B2E0E2E0F6E100E077
:100160000BBF02C007900D92A237B107D9F722E06A
:10017000A2E7B2E001C01D92A837B207E1F70E94E2
:10018000EA020C94E70A0C940000EAE0F1E08081B6
:10019000877F808380818B7F8083EBE0F1E08081AB
:1001A0008860808380818460808308955098589A05
:1001B000089A109AE9E6F0E0808183608083E89AEB
:1001C00008958091090183FB882780F991E08927B0
:1001D00008958091090182FB882780F991E08927A1
:1001E000089589B1817008955198599A08950E948F
:1001F000F4000E94C5000E94D600089589B186953A
:10020000817091E0892708951F920F920FB60F9287
:10021000112402C00E94610A109880E00E946004CC
:100220004899F8CF0E94FE008823B1F3109AF89401
:1002300088E180936000FFCF9C0140E050E060E4E3
:1002400072E48FE090E00E948A0A215031093093D5
:10025000C5002093C40088E18093C10086E08093AC
:10026000C20008959C0140E050E060E472E48FE039
:1002700090E00E948A0A215031093093CD002093EA
:10028000CC0088E18093C90086E08093CA0008957D
:10029000E0ECF0E0908195FFFDCF8093C6000895DB
:1002A000CF93DF93C82FD92F8881882331F02196EF
:1002B0000E94480189918111FBCFDF91CF91089570
:1002C0001F93CF93DF93CDB7DEB761970FB6F89446
:1002D000DEBF0FBECDBF182F81E1EDE2F2E0DE01FF
:1002E000119601900D928A95E1F7812F82958F707A
:1002F000E1E0F0E0EC0FFD1FE80FF11D80810E94AE
:1003000048011F70E1E0F0E0EC0FFD1FE10FF11D6F
:1003100080810E94480161960FB6F894DEBF0FBE3F
:10032000CDBFDF91CF911F9108950F931F93CF936E
:10033000DF93082F162FD42FC22F8EE392E00E9456
:100340005001802F0E94600180E20E944801812FAD
:100350000E94600180E20E9448018D2F0E9460018E
:1003600080E20E9448018C2F0E9460018EE692E09C
:100370000E945001E8ECF0E0908195FFFDCF0093E2
:10038000CE00E8ECF0E0908195FFFDCF1093CE0019
:10039000E8ECF0E0908195FFFDCFD093CE00E8EC43
:1003A000F0E0908195FFFDCFC093CE0089E592E00B
:1003B0000E945001DF91CF911F910F910895E8ECB9
:1003C000F0E080818823ECF78091CE000895E82F3B
:1003D000F92F242F0997D8F58827E751F54F8F4F2C
:1003E0000C94CB0A462F60E881E00E9495010895A5
:1003F000462F6FEF81E00E9495010895462F60E03F
:1004000081E00E9495010895462F6EE781E00E94E9
:1004100095010895462F6FE781E00E9495010895A8
:10042000462F61E082E00E9495010895462F62E028
:1004300082E00E9495010895462F61E083E00E94CA
:1004400095010895462F62E083E00E94950108958A
:10045000109280008BE08093810088EA91E690936F
:100460008900809388000895109220018BE080938A
:10047000210188EA91E6909329018093280108954B
:100480000E9428020E94340208950E94F7000E94F0
:100490002D090E9440020E94510478940895282F4B
:1004A000392F2F3F3207C9F0809102029091030249
:1004B0008F3F980791F018161906DCF4B19B25C000
:1004C00082E086BB80910202909103020197909393
:1004D00003028093020280E0089530930302209388
:1004E000020282E086BB109285001092840080E0B8
:1004F0000895892B11F080E008958FEF9FEF90937E
:1005000003028093020281E0089580E00895282F7D
:10051000392F2F3F3207C9F08091000290910102DC
:100520008F3F980791F018161906DCF4D19B25C06F
:1005300082E08ABB80910002909101020197909322
:1005400001028093000280E008953093010220931D
:10055000000282E08ABB109225011092240180E003
:100560000895892B11F080E008958FEF9FEF90930D
:1005700001028093000281E0089580E008950F93C6
:100580001F93CF93DF93C82FD92F062F172F0E94C9
:10059000E100811101C018820E94E900811102C0AE
:1005A000F80110820E94E100882319F088818823D5
:1005B00059F00E94E900882341F081E0F801908120
:1005C000992319F080E001C081E0DF91CF911F9164
:1005D0000F910895CDB7DEB72C970FB6F894DEBF14
:1005E0000FBECDBF19821A8285E0E4E0F2E0DE01A1
:1005F000139601900D928A95E1F785E0E9E0F2E02B
:10060000DE01189601900D928A95E1F70E9445024D
:1006100080E895E20E94320180E895E20E941C0188
:100620004B815C816D817E818F810E94D3064885DC
:1006300059856A857B858C850E94D306712C212C77
:10064000A12CB12CC12CD12CE12CF12C01E010E01B
:1006500044244394512C312C662463940F2EF8ECDF
:100660008F2E912CF02D2EC00115110559F54B81BF
:100670005C816D817E818F810E94F8078823C9F09B
:100680000E9441091FC00430110509F4F1C0053072
:100690001105C1F4E114F10409F4E0C00E94A909B4
:1006A0000E94DF01813071F4E12CF12C03E0132D65
:1006B00009C00E94370A06C00E94D3090E94FE00AA
:1006C00081112DC00330110599F1E8F601301105B3
:1006D00099F30230110541F6E114F10409F472C0F6
:1006E000B501C6010E94AF0887E00E9471088AE048
:1006F00090E00E944F02811195C0B501C6010E9491
:10070000AF08488559856A857B858C850E94860758
:10071000882309F47BC0762CEACF0E94220A85E068
:1007200090E00E944F028823C1F303E0132DCACF4B
:10073000E114F104E1F0B501C6010E94AF08BE0169
:100740006E5F7F4FCE0101960E94BF02811124C0CF
:10075000F401808188230CF0B5CF0E94DF01813045
:1007600009F0B0CFE12CF12C05E010E0ABCF4FEF5A
:100770006FEF842D952D0E94E701712CE42CF52C50
:10078000A1CF4B815C816D817E818F810E94860724
:10079000882311F07724739484E090E00E944F0244
:1007A00081110BC0488559856A857B858C850E949F
:1007B0008607882331F3762CEFCFE12CF12C02E071
:1007C00010E0C6CF488559856A857B858C850E9457
:1007D0008607882331F0762C222079F004E010E09F
:1007E00071CF4B815C816D817E818F810E948607F4
:1007F000882391F377247394EFCF4FEF6FEF84E06A
:1008000090E00E94E701E42CF52C5CCF4B815C81E9
:100810006D817E818F810E948607882309F467CFCE
:10082000762C65CF772069F0FFEFCF1ADF0A0E94A0
:10083000B604782E8111FBCFE12CF12C03E0132DAF
:1008400041CF8FEFA81AB80A0E941F05782E811198
:10085000FBCFE12CF12C03E0132D34CF4FEF6FEFE2
:1008600086E090E00E94E701262CE42CF52C2ACFAC
:10087000E114F10419F00E94370A24CF4FEF6FEF13
:1008800084E090E00E94E7010E94370A8FEF9FEF1B
:100890000E944F020E9488058111FCCFE42CF52CA8
:1008A00011CF6D98759A82E08093900089E18093D2
:1008B00091008EE195E090939D0080939C000895B7
:1008C000882339F06D9AE0E9F0E080818C608083C4
:1008D00008956D98E0E9F0E08081837F808308953A
:1008E0009C01990F440B550B60E074E284EF90E09B
:1008F0000E94AC0AC9010895EF92FF920F931F93D3
:10090000CF93DF93C82FD92FCB01E42EF52E022FE2
:10091000132F0E944F02811122C09E01DD0F440B54
:10092000550B60E074E284EF90E00E94AC0A3093D3
:100930009700209396002FE832E0E29EC001E39EEC
:10094000900DF29E900D112490939D0080939C0039
:10095000DF91CF911F910F91FF90EF900895F801D3
:1009600080819181019691838083F2CF809176027C
:1009700090917702892BD9F080917602909177023D
:100980008330910509F443C034F58130910599F124
:100990008230910581F426E732E04FE050E061E0DB
:1009A00070E08AE691E00E947C0481E0089581E095
:1009B0000E946004E1CF892B61F426E732E04FE02A
:1009C00050E061E070E08CEE91E00E947C0481E0F8
:1009D000089581E008958430910529F1059749F43F
:1009E00080E00E946004109277021092760280E00C
:1009F000089581E0089526E732E040E050E061E0AC
:100A000070E08EEA91E00E947C0481E0089526E780
:100A100032E04FE050E061E070E08FE692E00E944B
:100A20007C0481E0089526E732E040E050E061E098
:100A300070E08FE692E00E947C0481E0089580914E
:100A4000740290917502892BD9F080917402909173
:100A500075028330910509F443C034F58130910566
:100A600099F18230910581F424E732E04FE050E0C3
:100A700063E070E08AE891E00E947C0481E00895E0
:100A800081E00E946004E1CF892B61F424E732E029
:100A90004FE050E063E070E08EEA91E00E947C0459
:100AA00081E0089581E008958430910529F105974A
:100AB00049F480E00E946004109275021092740262
:100AC00080E0089581E0089524E732E040E050E0BE
:100AD00062E070E08EEA91E00E947C0481E008957B
:100AE00024E732E04FE050E067E070E08AE691E012
:100AF0000E947C0481E0089524E732E040E050E069
:100B000061E070E08FE692E00E947C0481E008954D
:100B10008091720290917302892B71F0E0917202C0
:100B2000F0917302EF30F10508F0BBC08827EE505A
:100B3000F54F8F4F0C94CB0A81E00E946004EECFFA
:100B400022E732E04FE050E061E070E08FE692E0B3
:100B50000E947C0481E0089522E732E04FE050E0FB
:100B600061E070E082E592E00E947C0481E00895FB
:100B700022E732E04FE050E062E070E08EEA91E080
:100B80000E947C0481E0089522E732E04FE050E0CB
:100B900062E070E081EC91E00E947C0481E00895C5
:100BA00022E732E04FE050E061E070E082E592E061
:100BB0000E947C0481E0089522E732E04FE050E09B
:100BC00061E070E08CE192E00E947C0481E0089595
:100BD00022E732E04FE050E062E070E08AE691E028
:100BE0000E947C0481E0089522E732E04FE050E06B
:100BF00062E070E08AE891E00E947C0481E0089560
:100C000022E732E04FE050E061E070E08CE192E0FA
:100C10000E947C0481E0089522E732E04FE050E03A
:100C200061E070E08CEE91E00E947C0481E0089528
:100C300022E732E04FE050E062E070E08AE691E0C7
:100C40000E947C0481E0089522E732E04FE050E00A
:100C500062E070E08AE891E00E947C0481E00895FF
:100C600022E732E04FE050E065E070E08EEA91E08C
:100C70000E947C0481E0089522E732E040E050E0E9
:100C800065E070E08AE691E00E947C0481E00895CE
:100C900080E00E946004109273021092720280E061
:100CA000089581E0089584B1876084B9239881E52F
:100CB0008CBD08958EBD0DB407FEFDCF8EB5089591
:100CC000EF92FF920F931F93CF93DF9300D00F9279
:100CD0000F92CDB7DEB749835A836B837C838D83B4
:100CE000822F09811A81F801408121E030E07901E9
:100CF00002C0EE0CFF1C6A95E2F79E2D909594239E
:100D00009083880F8E7780680E945A0680E00E9448
:100D10005A06F80190819E2990830F900F900F90B2
:100D20000F900F90DF91CF911F910F91FF90EF9057
:100D30000895CF92DF92EF92FF920F93CF93DF93BC
:100D400000D00F920F92CDB7DEB749835A836B83E1
:100D50007C838D83E980FA80F701908141E050E047
:100D60006A0102C0CC0CDD1C6A95E2F78C2D8095DF
:100D700089238083822F880F8E770E945A06802FC6
:100D80000E945A06F70180818C2980830F900F9072
:100D90000F900F900F90DF91CF910F91FF90EF90F8
:100DA000DF90CF900895AF92BF92DF92EF92FF92C3
:100DB0000F931F93CF93DF9300D00F920F92CDB775
:100DC000DEB749835A83D62E6B837C838D8309815A
:100DD0001A81EC80FD80F701208181E090E002C063
:100DE000880F991F6A95E2F7922F982B9083E1E084
:100DF000F1E0908190649083F8019081892B808349
:100E00006894AA24A1F8BB24B394F501808180647E
:100E100080830E945306F50180818F7B80838081CF
:100E200080648083402F512F1A830983DB827E2DBB
:100E3000FD82EC8227E36D2D8F2D0E9460068239A2
:100E400089F700E726E249815A816B817C818D8197
:100E50000E94990600E82AE249815A816B817C81CF
:100E60008D810E94990609EA2BE249815A816B81A2
:100E70007C818D810E94990608EE2DE249815A817C
:100E80006B817C818D810E94990603E02CE249816F
:100E90005A816B817C818D810E94990600E425E155
:100EA00049815A816B817C818D810E9499060DE375
:100EB00021E149815A816B817C818D810E94990653
:100EC00024E149815A816B817C818D810E94600679
:100ED000982F9370992379F00F900F900F900F90A7
:100EE0000F90DF91CF911F910F91FF90EF90DF90C6
:100EF000BF90AF900895082F036024E149815A8183
:100F00006B817C818D810E949906E6CF0F931F93A0
:100F1000CF93DF9300D00F920F92CDB7DEB7498306
:100F20005A836B837C838D8307E02DE00E949906B2
:100F300000E021E049815A816B817C818D810E9492
:100F4000990606E229E049815A816B817C818D8175
:100F50000E9499060CE021E049815A816B817C81D5
:100F60008D810E94990607E82DE049815A816B81A5
:100F70007C818D810E94990618EC24E049815A8178
:100F80006B817C818D810E9460068073811103C01A
:100F900011501111F2CF26E049815A816B817C8179
:100FA0008D810E9460068B71882359F080E00F903C
:100FB0000F900F900F900F90DF91CF911F910F9195
:100FC00008952AE049815A816B817C818D810E943C
:100FD0006006182F00E82AE049815A816B817C81E4
:100FE0008D810E94990681E01111E1CF80E0DFCF71
:100FF000CF93DF9300D00F920F92CDB7DEB7498326
:101000005A836B837C838D830E94860781111DC068
:101010008FE99FE00197F1F700C0000049815A81F4
:101020006B817C818D810E94860781110EC0EFE962
:10103000FFE03197F1F700C000000F900F900F9084
:101040000F900F90DF91CF91089581E0F6CFEAE005
:10105000F1E0808180688083EBE0F1E0808180684E
:10106000808380818062808380818F7780830895F0
:10107000EAE0F1E0808180688083EBE0F1E080814C
:101080008F7D80838081806280838081806880837F
:101090000895EAE0F1E090819068908328E030E0E4
:1010A000EBE0F1E00CC090819F779083908190629B
:1010B00090838695215031092115310549F09081A1
:1010C0009F7D908380FFEFCF908190689083EECFDB
:1010D000EBE0F1E080818F7D80838081806280837E
:1010E0000895CF93C82F0E9427088C2F8770886897
:1010F0000E9449080E943808CF910895EF92FF920C
:101100001F93CF93DF93D82FC92F0E94270880E425
:101110000E9449080E94380813EC0F2EFAE0EF2EC7
:10112000F12CF02D0E942708812F0E9449088D2F55
:101130009C2FB7010E94760AD62FC72FFC01EE5DC7
:10114000FD4F80810E9449080E94380811501F3BC2
:1011500049F7DF91CF911F91FF90EF900895EF92A3
:10116000FF920F931F93CF93DF9300D000D00F9285
:101170000F92CDB7DEB7E82EF92E84E6E816F1041B
:101180002CF00F2EF3E6EF2EF12CF02DFF200CF4B7
:1011900047C0062F172F0436110514F003E610E0A0
:1011A00011230CF440C00E94270880E40E944908E3
:1011B0000E9438082AE030E0C701B9010E94760A8F
:1011C0007A8369839C838B83C801B9010E94760A64
:1011D0007E836D8398878F83DE0111967D0110ECED
:1011E0000E942708812F0E944908D701ED91FD91A7
:1011F0007D01EE5DFD4F80810E9449080E94380804
:101200001F5F143C69F728960FB6F894DEBF0FBE37
:10121000CDBFDF91CF911F910F91FF90EF90089577
:10122000E12CF12CB6CF00E010E0BDCF1F93CF939F
:10123000DF93C82FD92F162F0E94270880EC810F2B
:101240000E944908C25FDD4F88810E9449080E94C0
:101250003808DF91CF911F910895EAE0F1E0808195
:1012600080688083808180628083EBE0F1E0808110
:101270008068808380818062808382E00E94710820
:10128000089560E083E190E00E94160961E083E048
:1012900090E00E94160962E086E090E00E94160944
:1012A00063E087E090E00E941609089584E090E0F2
:1012B0000E947E0861E081E090E00E94160962E0F1
:1012C00085E090E00E94160963E088E090E00E94CB
:1012D0001609089560E081E190E00E94160961E03E
:1012E00088E090E00E94160962E087E090E00E94AA
:1012F000160963E08BE090E00E941609089560E013
:1013000083E190E00E94160961E086E090E00E948F
:10131000160962E08DE090E00E94160963E08BE020
:1013200090E00E941609089560E083E190E00E9439
:10133000160961E083E090E00E94160962E08CE00B
:1013400090E00E94160963E081E190E00E94160996
:10135000089560E081E190E00E94160961E082E179
:1013600090E00E94160962E08FE090E00E9416096A
:1013700063E08CE090E00E941609089560E084E04C
:1013800090E00E94160961E089E090E00E94160951
:1013900062E080E190E00E94160963E081E190E064
:1013A0000E941609089560E083E190E00E9416090A
:1013B00061E08EE090E00E94160962E081E090E03A
:1013C0000E94160963E083E090E00E9416090895E8
:1013D000882319F00E947F0908950E94D309089577
:1013E00060E08BE090E00E94160961E085E090E00B
:1013F0000E94160962E086E090E00E94160963E010
:1014000081E190E00E941609089560E08FE090E08D
:101410000E94160961E087E090E00E94160962E0F0
:1014200088E090E00E94160963E081E190E00E946C
:1014300016090895882319F00E94050A08950E944C
:10144000F009089560E083E190E00E94160961E0F0
:1014500083E190E00E94160962E087E090E00E943C
:10146000160963E08DE090E00E941609089560E09F
:1014700083E190E00E94160961E085E090E00E941F
:10148000160962E08CE090E00E94160963E084E0B7
:1014900090E00E941609089560E080E190E00E94CB
:1014A000160961E08FE090E00E94160962E083E097
:1014B00090E00E94160963E088E090E00E9416091F
:1014C000089560E080E190E00E94160961E081E10A
:1014D00090E00E94160962E08DE090E00E941609FB
:1014E00063E08EE090E00E941609089597FB072EB6
:1014F00016F4009407D077FD09D00E94D30A07FCA8
:1015000005D03EF4909581959F4F08957095619513
:101510007F4F0895A1E21A2EAA1BBB1BFD010DC02F
:10152000AA1FBB1FEE1FFF1FA217B307E407F50793
:1015300020F0A21BB30BE40BF50B661F771F881F6F
:10154000991F1A9469F760957095809590959B0105
:10155000AC01BD01CF010895052E97FB1EF4009448
:101560000E94C30A57FD07D00E948A0A07FC03D0D5
:101570004EF40C94C30A50954095309521953F4FF9
:101580004F4F5F4F089590958095709561957F4F6F
:101590008F4F9F4F0895EE0FFF1F881F8BBF07903F
:1015A000F691E02D1994AA1BBB1B51E107C0AA1F9D
:1015B000BB1FA617B70710F0A61BB70B881F991FF4
:1015C0005A95A9F780959095BC01CD010895F8949E
:1015D000FFCFF201F801FE0104020A021002160216
:1015E0001C022202A005AC05B805C405D005DC0527
:1015F000E805F40500060C061806240630063C062D
:0216000048069A
:10160200FFFFFFFF25000024000B01000A014077C5
:101612007C395E79713D74060E38373F73316D78CF
:101622003E003F065B4F666D7D077F6F00303132B3
:1016320033343536373839414243444546004D410B
:10164200535445523A2053656E64696E6720746F35
:1016520020536C6176653A20004D41535445523A0D
:1016620020436F6D6D616E642073656E742E0D0A7A
:02167200000076
:00000001FF
