:100000000C94A2000C9404010C94C3000C94C30043
:100010000C94C3000C94C3000C94C3000C94C30054
:100020000C94C3000C94C3000C94C3000C94C30044
:100030000C94C3000C94C3000C94C3000C94C30034
:100040000C94C3000C94C3000C94C3000C94C30024
:100050000C94C3000C94C3000C94C3000C94C30014
:100060000C94C3000C94C3000C94C3000C94C30004
:100070000C94C3000C94C3000C94C3000C94C300F4
:100080000C94C3000C94C3000C94C3000C94C300E4
:100090000C94C3000C94C3000C94C3000C94C300D4
:1000A0000C94C3000C94C3000C94C3000C94C300C4
:1000B0000C94C3000C94C3000C94C3000C94C300B4
:1000C0000C94C3000C94C3000C94C3000C94C300A4
:1000D0000C94C3000C94C3000C94C3000C94C30094
:1000E0000C94C3000C943B060C9417060C941C0251
:1000F0000C94CF050C942F060C94FE010C94F30580
:100100000C94AB050C94E7050C94DB050C94FF05EF
:100110000C9416020C94C3050C9422020C940B064A
:100120000C9404020C940A020C94B7050C9410026F
:100130000C94F8010C9447060C9453060C94230677
:100140000C94F20111241FBECFEFD1E2DEBFCDBF70
:1001500000E00CBF12E0A0E0B2E0E8E1F6E100E070
:100160000BBF02C007900D92A237B107D9F722E06A
:10017000A2E7B2E001C01D92A837B207E1F70E94E2
:10018000F0020C94F20A0C940000EAE0F1E08081A5
:10019000877F808380818B7F8083EBE0F1E08081AB
:1001A0008860808380818460808308955098589A05
:1001B000089A109AE9E6F0E0808183608083E89AEB
:1001C00008958091090183FB882780F991E08927B0
:1001D00008958091090182FB882780F991E08927A1
:1001E000089589B1817008955198599A08950E948F
:1001F000F4000E94C5000E94D600089589B186953A
:10020000817091E0892708951F920F920FB60F9287
:10021000112402C00E946C0A109880E00E946B04B6
:100220004899F8CF0E94FE008823B1F3109AF89401
:1002300088E180936000FFCF9C0140E050E060E4E3
:1002400072E48FE090E00E94950A215031093093CA
:10025000C5002093C40088E18093C10086E08093AC
:10026000C20008959C0140E050E060E472E48FE039
:1002700090E00E94950A215031093093CD002093DF
:10028000CC0088E18093C90086E08093CA0008957D
:10029000E0ECF0E0908195FFFDCF8093C6000895DB
:1002A000CF93DF93C82FD92F8881882331F02196EF
:1002B0000E94480189918111FBCFDF91CF91089570
:1002C0001F93CF93DF93CDB7DEB761970FB6F89446
:1002D000DEBF0FBECDBF182F81E1EDE2F2E0DE01FF
:1002E000119601900D928A95E1F7812F82958F707A
:1002F000E1E0F0E0EC0FFD1FE80FF11D80810E94AE
:1003000048011F70E1E0F0E0EC0FFD1FE10FF11D6F
:1003100080810E94480161960FB6F894DEBF0FBE3F
:10032000CDBFDF91CF911F9108950F931F93CF936E
:10033000DF93082F162FD42FC22F8EE392E00E9456
:100340005001802F0E94600180E20E944801812FAD
:100350000E94600180E20E9448018D2F0E9460018E
:1003600080E20E9448018C2F0E9460018EE692E09C
:100370000E945001E8ECF0E0908195FFFDCF0093E2
:10038000CE00E8ECF0E0908195FFFDCF1093CE0019
:10039000E8ECF0E0908195FFFDCFD093CE00E8EC43
:1003A000F0E0908195FFFDCFC093CE0089E592E00B
:1003B0000E945001DF91CF911F910F910895E8ECB9
:1003C000F0E080818823ECF78091CE000895E82F3B
:1003D000F92F242F0997D8F58827EC50F54F8F4F28
:1003E0000C94D60A462F60E881E00E94950108959A
:1003F000462F6FEF81E00E9495010895462F60E03F
:1004000081E00E9495010895462F6EE781E00E94E9
:1004100095010895462F6FE781E00E9495010895A8
:10042000462F61E082E00E9495010895462F62E028
:1004300082E00E9495010895462F61E083E00E94CA
:1004400095010895462F62E083E00E94950108958A
:10045000109280008BE08093810088EA91E690936F
:100460008900809388000895109220018BE080938A
:10047000210188EA91E6909329018093280108954B
:100480000E9428020E94340208950E94F7000E94F0
:1004900038090E9440020E945C0478940895282F35
:1004A000392F2F3F3207C9F0809102029091030249
:1004B0008F3F980791F018161906DCF4B19B25C000
:1004C00082E086BB80910202909103020197909393
:1004D00003028093020280E0089530930302209388
:1004E000020282E086BB109285001092840080E0B8
:1004F0000895892B11F080E008958FEF9FEF90937E
:1005000003028093020281E0089580E00895282F7D
:10051000392F2F3F3207C9F08091000290910102DC
:100520008F3F980791F018161906DCF4D19B25C06F
:1005300082E08ABB80910002909101020197909322
:1005400001028093000280E008953093010220931D
:10055000000282E08ABB109225011092240180E003
:100560000895892B11F080E008958FEF9FEF90930D
:1005700001028093000281E0089580E008950F93C6
:100580001F93CF93DF93C82FD92F062F172F0E94C9
:10059000E100811101C018820E94E900811102C0AE
:1005A000F80110820E94E100882319F088818823D5
:1005B00051F00E94E900882371F0F80180818823BE
:1005C00011F080E008C00E94E10088830E94E900E9
:1005D000F801808381E0DF91CF911F910F91089501
:1005E000CDB7DEB72C970FB6F894DEBF0FBECDBFE8
:1005F00019821A8285E0E4E0F2E0DE0113960190B0
:100600000D928A95E1F785E0E9E0F2E0DE011896C7
:1006100001900D928A95E1F70E94450280E895E2EB
:100620000E94320180E895E20E941C014B815C81AE
:100630006D817E818F810E94DE06488559856A859D
:100640007B858C850E94DE06712C212CC12CD12C3F
:10065000E12CF12CA12CB12C01E010E044244394B6
:10066000512C312C662463940F2EF8EC8F2E912C94
:10067000F02D2EC00115110559F54B815C816D815E
:100680007E818F810E9403088823C9F00E944C0953
:100690001FC00430110509F4F6C005301105C1F47E
:1006A000A114B10409F4E5C00E94B4090E94DF015D
:1006B000813071F4A12CB12C03E0132D09C00E94EC
:1006C000420A06C00E94DE090E94FE0081112DC070
:1006D0000330110599F1E8F60130110599F3023064
:1006E000110541F6A114B10409F462C0B601C701B5
:1006F0000E94BA0887E00E947C080E94C104182F5B
:10070000882309F48EC0B601C7010E94BA08488543
:1007100059856A857B858C850E949107882309F419
:100720006BC0762CEACF0E942D0A85E090E00E94F3
:100730004F028823C1F303E0132DCACFA114B104E3
:10074000E1F0B601C7010E94BA08BE016E5F7F4F9B
:10075000CE0101960E94BF0281111AC0F40180816E
:1007600088230CF0B5CF0E94DF01813009F0B0CFB3
:10077000A12CB12C05E010E0ABCF4FEF6FEF842D33
:10078000952D0E94E70119821A82A42CB52CA0CFC6
:100790000E944C092FEF89E698E12150804090405B
:1007A000E1F700C00000A12CB12C02E010E0D6CF90
:1007B000488559856A857B858C850E9491078823A9
:1007C00031F0762C222079F004E010E081CF4B81CB
:1007D0005C816D817E818F810E949107882391F3D6
:1007E00077247394EFCF4FEF6FEF84E090E00E9497
:1007F000E701A42CB52C6CCF4B815C816D817E818F
:100800008F810E949107882309F477CF762C75CFCA
:100810004B815C816D817E818F810E949107811166
:10082000762C8AE090E00E944F0281110FC0B60141
:10083000C7010E94BA08488559856A857B858C85E1
:100840000E949107882321F3762CEBCF772049F083
:10085000FFEFEF1AFF0A712EA12CB12C03E0132D2C
:1008600037CF2FEFC21AD20AA12CB12C03E0132DDF
:100870002FCF4FEF6FEF86E090E00E94E701262C2C
:10088000A42CB52C25CFA114B10419F00E94420A62
:100890001FCF4FEF6FEF84E090E00E94E7010E94CE
:1008A000420A8FEF9FEF0E944F020E949305811131
:1008B000FCCFA42CB52C0CCF6D98759A82E0809358
:1008C000900089E1809391008EE195E090939D00E6
:1008D00080939C000895882339F06D9AE0E9F0E058
:1008E00080818C60808308956D98E0E9F0E08081DC
:1008F000837F808308959C01990F440B550B60E022
:1009000074E284EF90E00E94B70AC9010895EF9263
:10091000FF920F931F93CF93DF93C82FD92FCB0153
:10092000E42EF52E022F132F0E944F02811122C0B8
:100930009E01DD0F440B550B60E074E284EF90E004
:100940000E94B70A30939700209396002FE832E078
:10095000E29EC001E39E900DF29E900D11249093B3
:100960009D0080939C00DF91CF911F910F91FF908C
:10097000EF900895F80180819181019691838083A1
:10098000F2CF8091760290917702892BD9F08091F5
:100990007602909177028330910509F443C034F5D3
:1009A0008130910599F18230910581F426E732E09A
:1009B0004AE050E061E070E08AE691E00E9487043E
:1009C00081E0089581E00E946B04E1CF892B61F4FE
:1009D00026E732E04AE050E061E070E08CEE91E022
:1009E0000E94870481E0089581E008958430910594
:1009F00029F1059749F480E00E946B041092770278
:100A00001092760280E0089581E0089526E732E0B2
:100A100040E050E061E070E08EEA91E00E948704DF
:100A200081E0089526E732E04AE050E061E070E0BE
:100A30008FE692E00E94870481E0089526E732E085
:100A400040E050E061E070E08FE692E00E948704B1
:100A500081E008958091740290917502892BD9F0FC
:100A600080917402909175028330910509F443C01E
:100A700034F58130910599F18230910581F424E7B4
:100A800032E041E050E063E070E08AE891E00E94EB
:100A9000870481E0089581E00E946B04E1CF892BF7
:100AA00061F424E732E041E050E063E070E08EEA78
:100AB00091E00E94870481E0089581E008958430E8
:100AC000910529F1059749F480E00E946B0410928A
:100AD00075021092740280E0089581E0089524E781
:100AE00032E040E050E062E070E08EEA91E00E9487
:100AF000870481E0089524E732E041E050E067E0B8
:100B000070E08AE691E00E94870481E0089524E77E
:100B100032E040E050E06EE170E08FE692E00E944B
:100B2000870481E008958091720290917302892B6D
:100B300071F0E0917202F0917302EF30F10508F06C
:100B4000BBC08827E350F54F8F4F0C94D60A81E045
:100B50000E946B04EECF22E732E041E050E061E01A
:100B600070E08FE692E00E94870481E0089522E71A
:100B700032E041E050E061E070E082E592E00E9406
:100B8000870481E0089522E732E041E050E062E02E
:100B900070E08EEA91E00E94870481E0089522E7E8
:100BA00032E041E050E062E070E081EC91E00E94D0
:100BB000870481E0089522E732E041E050E061E0FF
:100BC00070E082E592E00E94870481E0089522E7C8
:100BD00032E041E050E061E070E08CE192E00E94A0
:100BE000870481E0089522E732E041E050E062E0CE
:100BF00070E08AE691E00E94870481E0089522E790
:100C000032E041E050E062E070E08AE891E00E946A
:100C1000870481E0089522E732E041E050E061E09E
:100C200070E08CE192E00E94870481E0089522E761
:100C300032E041E050E061E070E08CEE91E00E9433
:100C4000870481E0089522E732E041E050E062E06D
:100C500070E08AE691E00E94870481E0089522E72F
:100C600032E041E050E062E070E08AE891E00E940A
:100C7000870481E0089522E732E041E050E065E03A
:100C800070E08EEA91E00E94870481E0089522E7F7
:100C900032E040E050E065E070E08AE691E00E94DA
:100CA000870481E0089580E00E946B041092730233
:100CB0001092720280E0089581E0089584B1876007
:100CC00084B9239881E58CBD08958EBD0DB407FECF
:100CD000FDCF8EB50895EF92FF920F931F93CF93A0
:100CE000DF9300D00F920F92CDB7DEB749835A83BE
:100CF0006B837C838D83822F09811A81F801408167
:100D000021E030E0790102C0EE0CFF1C6A95E2F7A9
:100D10009E2D909594239083880F8E7780680E94F3
:100D2000650680E00E946506F80190819E29908307
:100D30000F900F900F900F900F90DF91CF911F9118
:100D40000F91FF90EF900895CF92DF92EF92FF9274
:100D50000F93CF93DF9300D00F920F92CDB7DEB7F2
:100D600049835A836B837C838D83E980FA80F70102
:100D7000908141E050E06A0102C0CC0CDD1C6A9514
:100D8000E2F78C2D809589238083822F880F8E77C0
:100D90000E946506802F0E946506F70180818C29DC
:100DA00080830F900F900F900F900F90DF91CF9155
:100DB0000F91FF90EF90DF90CF900895AF92BF9288
:100DC000DF92EF92FF920F931F93CF93DF9300D0A8
:100DD0000F920F92CDB7DEB749835A83D62E6B831D
:100DE0007C838D8309811A81EC80FD80F70120814D
:100DF00081E090E002C0880F991F6A95E2F7922F78
:100E0000982B9083E1E0F1E0908190649083F80169
:100E10009081892B80836894AA24A1F8BB24B39481
:100E2000F5018081806480830E945E06F5018081E7
:100E30008F7B8083808180648083402F512F1A8331
:100E40000983DB827E2DFD82EC8227E36D2D8F2DC1
:100E50000E946B06823989F700E726E249815A81B0
:100E60006B817C818D810E94A40600E82AE2498181
:100E70005A816B817C818D810E94A40609EA2BE254
:100E800049815A816B817C818D810E94A40608EE84
:100E90002DE249815A816B817C818D810E94A4065B
:100EA00003E02CE249815A816B817C818D810E9413
:100EB000A40600E425E149815A816B817C818D8102
:100EC0000E94A4060DE321E149815A816B817C8156
:100ED0008D810E94A40624E149815A816B817C8125
:100EE0008D810E946B06982F9370992379F00F9053
:100EF0000F900F900F900F90DF91CF911F910F9156
:100F0000FF90EF90DF90BF90AF900895082F03609F
:100F100024E149815A816B817C818D810E94A406E4
:100F2000E6CF0F931F93CF93DF9300D00F920F92D2
:100F3000CDB7DEB749835A836B837C838D8307E00B
:100F40002DE00E94A40600E021E049815A816B81D6
:100F50007C818D810E94A40606E229E049815A81A4
:100F60006B817C818D810E94A4060CE021E0498187
:100F70005A816B817C818D810E94A40607E82DE057
:100F800049815A816B817C818D810E94A40618EC75
:100F900024E049815A816B817C818D810E946B069E
:100FA0008073811103C011501111F2CF26E04981E5
:100FB0005A816B817C818D810E946B068B718823A5
:100FC00059F080E00F900F900F900F900F90DF91ED
:100FD000CF911F910F9108952AE049815A816B8129
:100FE0007C818D810E946B06182F00E82AE04981E0
:100FF0005A816B817C818D810E94A40681E0111150
:10100000E1CF80E0DFCFCF93DF9300D00F920F923C
:10101000CDB7DEB749835A836B837C838D830E946F
:10102000910781111DC08FE99FE00197F1F700C082
:10103000000049815A816B817C818D810E949107DA
:1010400081110EC0EFE9FFE03197F1F700C0000019
:101050000F900F900F900F900F90DF91CF91089508
:1010600081E0F6CFEAE0F1E0808180688083EBE008
:10107000F1E08081806880838081806280838081CC
:101080008F7780830895EAE0F1E080818068808333
:10109000EBE0F1E080818F7D8083808180628083BE
:1010A0008081806880830895EAE0F1E09081906813
:1010B000908328E030E0EBE0F1E00CC090819F7776
:1010C00090839081906290838695215031092115FB
:1010D000310549F090819F7D908380FFEFCF908113
:1010E00090689083EECFEBE0F1E080818F7D80838C
:1010F0008081806280830895CF93C82F0E94320838
:101100008C2F877088680E9454080E944308CF91F2
:101110000895EF92FF921F93CF93DF93D82FC92F9B
:101120000E94320880E40E9454080E94430813EC95
:101130000F2EFAE0EF2EF12CF02D0E943208812FB5
:101140000E9454088D2F9C2FB7010E94810AD62F30
:10115000C72FFC01EE5DFD4F80810E9454080E9464
:10116000430811501F3B49F7DF91CF911F91FF902A
:10117000EF900895EF92FF920F931F93CF93DF9319
:1011800000D000D00F920F92CDB7DEB7E82EF92E27
:1011900084E6E816F1042CF00F2EF3E6EF2EF12C86
:1011A000F02DFF200CF447C0062F172F0436110531
:1011B00014F003E610E011230CF440C00E94320842
:1011C00080E40E9454080E9443082AE030E0C701EE
:1011D000B9010E94810A7A8369839C838B83C80149
:1011E000B9010E94810A7E836D8398878F83DE0117
:1011F00011967D0110EC0E943208812F0E94540844
:10120000D701ED91FD917D01EE5DFD4F80810E9442
:1012100054080E9443081F5F143C69F728960FB6D4
:10122000F894DEBF0FBECDBFDF91CF911F910F911C
:10123000FF90EF900895E12CF12CB6CF00E010E084
:10124000BDCF1F93CF93DF93C82FD92F162F0E94A6
:10125000320880EC810F0E945408C25FDD4F888104
:101260000E9454080E944308DF91CF911F91089576
:10127000EAE0F1E080818068808380818062808301
:10128000EBE0F1E0808180688083808180628083F0
:1012900082E00E947C08089560E083E190E00E9473
:1012A000210961E083E090E00E94210962E086E08C
:1012B00090E00E94210963E087E090E00E9421090C
:1012C000089584E090E00E94890861E081E090E068
:1012D0000E94210962E085E090E00E94210963E01C
:1012E00088E090E00E942109089560E081E190E0AB
:1012F0000E94210961E088E090E00E94210962E0FB
:1013000087E090E00E94210963E08BE090E00E947A
:101310002109089560E083E190E00E94210961E0E5
:1013200086E090E00E94210962E08DE090E00E945A
:10133000210963E08BE090E00E942109089560E0BC
:1013400083E190E00E94210961E083E090E00E9447
:10135000210962E08CE090E00E94210963E081E1D4
:1013600090E00E942109089560E081E190E00E94F0
:10137000210961E082E190E00E94210962E08FE0B2
:1013800090E00E94210963E08CE090E00E94210936
:10139000089560E084E090E00E94210961E089E026
:1013A00090E00E94210962E080E190E00E94210922
:1013B00063E081E190E00E942109089560E083E10B
:1013C00090E00E94210961E08EE090E00E942109F6
:1013D00062E081E090E00E94210963E083E090E018
:1013E0000E9421090895882319F00E948A0908950E
:1013F0000E94DE09089560E08BE090E00E942109E0
:1014000061E085E090E00E94210962E086E090E0E2
:101410000E94210963E081E190E00E942109089582
:1014200060E08FE090E00E94210961E087E090E0B9
:101430000E94210962E088E090E00E94210963E0B7
:1014400081E190E00E9421090895882319F00E940B
:10145000100A08950E94FB09089560E083E190E07E
:101460000E94210961E083E190E00E94210962E08D
:1014700087E090E00E94210963E08DE090E00E9407
:101480002109089560E083E190E00E94210961E074
:1014900085E090E00E94210962E08CE090E00E94EB
:1014A000210963E084E090E00E942109089560E052
:1014B00080E190E00E94210961E08FE090E00E94CD
:1014C000210962E083E090E00E94210963E088E066
:1014D00090E00E942109089560E080E190E00E9480
:1014E000210961E081E190E00E94210962E08DE044
:1014F00090E00E94210963E08EE090E00E942109C3
:10150000089597FB072E16F4009407D077FD09D0B5
:101510000E94DE0A07FC05D03EF4909581959F4F0E
:101520000895709561957F4F0895A1E21A2EAA1B28
:10153000BB1BFD010DC0AA1FBB1FEE1FFF1FA21783
:10154000B307E407F50720F0A21BB30BE40BF50B80
:10155000661F771F881F991F1A9469F76095709509
:10156000809590959B01AC01BD01CF010895052E9A
:1015700097FB1EF400940E94CE0A57FD07D00E94EC
:10158000950A07FC03D04EF40C94CE0A5095409572
:10159000309521953F4F4F4F5F4F0895909580951F
:1015A000709561957F4F8F4F9F4F0895EE0FFF1FEE
:1015B000881F8BBF0790F691E02D1994AA1BBB1BC7
:1015C00051E107C0AA1FBB1FA617B70710F0A61B43
:1015D000B70B881F991F5A95A9F780959095BC0164
:1015E000CD010895F894FFCFF201F801FE01040245
:1015F0000A02100216021C022202AB05B705C3053F
:10160000CF05DB05E705F305FF050B0617062306E7
:081610002F063B0647065306B6
:10161800FFFFFFFF25000024000B01000A014077AF
:101628007C395E79713D74060E38373F73316D78B9
:101638003E003F065B4F666D7D077F6F003031329D
:1016480033343536373839414243444546004D41F5
:10165800535445523A2053656E64696E6720746F1F
:1016680020536C6176653A20004D41535445523AF7
:1016780020436F6D6D616E642073656E742E0D0A64
:02168800000060
:00000001FF
