:100000000C94A2000C948D010C94C3000C94C300BA
:100010000C94C3000C94C3000C94C3000C94C30054
:100020000C94C3000C94C3000C94C3000C94C30044
:100030000C94C3000C94C3000C94C3000C94C30034
:100040000C94C3000C94C3000C94C3000C94C30024
:100050000C94C3000C94C3000C94C3000C94C30014
:100060000C94C3000C94C3000C94C3000C94C30004
:100070000C94C3000C94C3000C94C3000C94C300F4
:100080000C94C3000C94C3000C94C3000C94C300E4
:100090000C94C3000C94C3000C94C3000C94C300D4
:1000A0000C94C3000C94C3000C94C3000C94C300C4
:1000B0000C94C3000C94C3000C94C3000C94C300B4
:1000C0000C94C3000C94C3000C94C3000C94C300A4
:1000D0000C94C3000C94C3000C94C3000C94C30094
:1000E0000C94C3000C94E3020C94B0060C94BC0670
:1000F0000C94CB020C94D4060C94D7020C941007E9
:100100000C9480060C9498060C94C5020C94A406DA
:100110000C94EC060C94D1020C9404070C94740615
:100120000C948C060C94DD020C94BF020C94E90232
:100130000C94C8060C9468060C94E0060C94EF022C
:100140000C94F80611241FBECFEFD1E2DEBFCDBF65
:1001500000E00CBF12E0A0E0B2E0E2E9F7E100E06D
:100160000BBF02C007900D92A237B107D9F722E06A
:10017000A2E7B2E001C01D92AE37B207E1F70E94DC
:10018000C6030C94AF0B0C940000EAE0F1E0808110
:10019000877F808380818B7F8083EBE0F1E08081AB
:1001A0008860808380818460808308950E94C50078
:1001B000089552985A9A8198599A53985B9A08953B
:1001C0005098E9E6F0E0808183608083E89A0895A2
:1001D0008091090183FB882780F991E089270895A0
:1001E0008091090182FB882780F991E08927089591
:1001F00089B182FB882780F991E08927089589B128
:100200008695817091E08927089589B183FB8827BD
:1002100080F991E08927089589B1817008950E943D
:10022000F8008823A9F08091760290917702892BBB
:1002300011F080E008958FE39CE90197F1F700C089
:10024000000081E090E09093770280937602089519
:100250002091760230917702232B61F3EFE3FCE9E2
:100260003197F1F700C000001092770210927602E9
:1002700008950E94FF008823A9F080917402909154
:100280007502892B11F080E008958FE39CE90197B6
:10029000F1F700C0000081E090E090937502809338
:1002A000740208952091740230917502232B61F33A
:1002B000EFE3FCE93197F1F700C0000010927502FE
:1002C0001092740208950E9405018823A9F080917C
:1002D000720290917302892B11F080E008958FE3F0
:1002E0009CE90197F1F700C0000081E090E0909355
:1002F000730280937202089520917202309173020A
:10030000232B61F3EFE3FCE93197F1F700C0000024
:10031000109273021092720208951F920F920FB6FC
:100320000F9211240BB60F922F933F934F935F932D
:100330006F937F938F939F93AF93BF93CF93DF93ED
:10034000EF93FF93C1E0D1E0489920C0FF91EF9176
:10035000DF91CF91BF91AF919F918F917F916F91DD
:100360005F914F913F912F910F900BBE0F900FBE59
:100370000F901F9018959D9888818F7B888380E0CF
:100380000E942805489B0FC00E94290B0E940F0164
:10039000882389F34899EFCF9D9AE1E0F1E08081CD
:1003A00080648083D3CF0E946301882379F34899C6
:1003B000EDCFF89488E180936000FFCF882311F09F
:1003C0005F9808955F9A0895579A80E00E94DE0131
:1003D00008959C0140E050E060E472E48FE090E01A
:1003E0000E94520B215031093093C5002093C40064
:1003F00088E18093C10086E08093C20008959C014B
:1004000040E050E060E472E48FE090E00E94520B24
:10041000215031093093CD002093CC0088E18093A6
:10042000C90086E08093CA000895E0ECF0E0908176
:1004300095FFFDCF8093C6000895CF93DF93C82F1B
:10044000D92F8881882331F021960E941502899145
:100450008111FBCFDF91CF9108951F93CF93DF934D
:10046000CDB7DEB761970FB6F894DEBF0FBECDBF34
:10047000182F81E1EDE2F2E0DE01119601900D927C
:100480008A95E1F7812F82958F70E1E0F0E0EC0F23
:10049000FD1FE80FF11D80810E9415021F70E1E031
:1004A000F0E0EC0FFD1FE10FF11D80810E941502AD
:1004B00061960FB6F894DEBF0FBECDBFDF91CF912E
:1004C0001F9108950F931F93CF93DF93082F162F3B
:1004D000D42FC22F8EE392E00E941D02802F0E9433
:1004E0002D0280E20E941502812F0E942D0280E2DF
:1004F0000E9415028D2F0E942D0280E20E9415029B
:100500008C2F0E942D028EE692E00E941D02E8ECE4
:10051000F0E0908195FFFDCF0093CE00E8ECF0E095
:10052000908195FFFDCF1093CE00E8ECF0E0908134
:1005300095FFFDCFD093CE00E8ECF0E0908195FFE1
:10054000FDCFC093CE0089E592E00E941D02DF91AD
:10055000CF911F910F910895E8ECF0E080818823FE
:10056000ECF78091CE000895E82FF92F242F0997FA
:10057000D8F58827EF54F44F8F4F0C94930B462FE8
:1005800060E881E00E9462020895462F6FEF81E0EB
:100590000E9462020895462F60E081E00E9462029C
:1005A0000895462F6EE781E00E9462020895462F6B
:1005B0006FE781E00E9462020895462F61E082E0C9
:1005C0000E9462020895462F62E082E00E94620269
:1005D0000895462F61E083E00E9462020895462F4D
:1005E00062E083E00E9462020895109280008BE036
:1005F0008093810088EA91E6909389008093880037
:100600000895109220018BE08093210188EA91E601
:10061000909329018093280108950E94F5020E9479
:10062000010308950E94D6000E94F5090E940D035F
:100630000E94190578940895282F392F2F3F3207EB
:10064000C9F080910202909103028F3F980791F0C8
:1006500018161906DCF4B19B25C082E086BB809198
:100660000202909103020197909303028093020289
:1006700080E00895309303022093020282E086BB5B
:10068000109285001092840080E00895892B11F06B
:1006900080E008958FEF9FEF909303028093020212
:1006A00081E0089580E00895282F392F2F3F3207E9
:1006B000C9F080910002909101028F3F980791F05C
:1006C00018161906DCF4D19B25C082E08ABB809104
:1006D0000002909101020197909301028093000221
:1006E00080E00895309301022093000282E08ABBEB
:1006F000109225011092240180E00895892B11F0B9
:1007000080E008958FEF9FEF9093010280930002A5
:1007100081E0089580E008950F931F93CF93DF93B6
:10072000C82FD92F062F172F0E94E800811101C072
:1007300018820E94F000811102C0F80110820E940C
:10074000E800882319F08881882351F00E94F00086
:10075000882371F0F8018081882311F080E008C0BF
:100760000E94E80088830E94F000F801808381E005
:10077000DF91CF911F910F9108955198599A089543
:1007800089B18695817091E089270895CDB7DEB74C
:100790002C970FB6F894DEBF0FBECDBF19821A8218
:1007A0000E94BD0385E0E4E0F2E0DE0113960190D3
:1007B0000D928A95E1F785E0E9E0F2E0DE01189616
:1007C00001900D928A95E1F70E94120380E895E26C
:1007D0000E94FF0180E895E20E94E9014B815C8163
:1007E0006D817E818F810E949B07488559856A852E
:1007F0007B858C850E949B07312C612C712C812C70
:10080000912CC12CD12CA12CB12CE12CF12C01E08C
:1008100010E044244394512C212C0CC004E010E03F
:1008200009C00115110531F40E94E800882379F10F
:100830000E94470A0330110509F440C090F40130CA
:10084000110561F10230110561F7E114F10409F4B9
:1008500099C0B601C5010E94770987E00E94390955
:10086000B4C00430110509F4CBC00530110511F7EF
:10087000E114F10409F4B9C00E94710A0E94AC02AB
:100880008130C1F6E12CF22C03E010E0D3CF0E94BE
:10089000F0008111CDCF0E949B0ACCCF0E94C003F3
:1008A000882341F202C00E94EA0A85E090E00E949B
:1008B0001C038823C1F303E010E0BCCFE114F10472
:1008C00099F1B601C5010E947709BE016E5F7F4FA5
:1008D000CE0101960E948C03882321F0E12CF22C9A
:1008E00002E010E08114910441F561147104B9F53E
:1008F000842D952D0E945403882361F08114910466
:1009000019F081E0881A91086114710419F081E0EE
:10091000681A71080E94AC02813009F08BCFE12C7B
:10092000F22C05E010E086CF4FEF6FEF842D952D70
:100930000E94B402E42CF52C7DCF4B815C816D814B
:100940007E818F810E944E08882379F281E0C81A47
:10095000D1088FEFA81AB80A812C912CC6CF4885F0
:1009600059856A857B858C850E944E08882309F409
:10097000BFCF81E0C81AD1088FEFA81AB80A612C3E
:10098000712CB6CF31104ACF8FEFC81AD80A89819F
:10099000811109C08A81882359F00F2EF4E16F2E4E
:1009A000712CF02D05C00F2EF4E18F2E912CF02D1F
:1009B0004FEF6FEF84E090E00E94B402E42CF52C3E
:1009C00039CFB601C5010E9477090E947E058111C9
:1009D000F8CF04C0B601C5010E9477098AE090E013
:1009E0000E941C038823B1F325CF4FEF6FEF86E001
:1009F00090E00E94B40233243394E42CF52C1ACFF7
:100A0000E114F10419F00E94FF0A14CF4FEF6FEFC9
:100A100084E090E00E94B4020E94FF0A8FEF9FEFF3
:100A20000E941C030E9450068111FCCFE42CF52C7F
:100A300001CF6D98759A82E08093900089E1809350
:100A400091008EE195E090939D0080939C00089525
:100A5000882339F06D9AE0E9F0E080818C60808332
:100A600008956D98E0E9F0E08081837F80830895A8
:100A70009C01990F440B550B60E074E284EF90E009
:100A80000E94740BC9010895EF92FF920F931F9378
:100A9000CF93DF93C82FD92FCB01E42EF52E022F51
:100AA000132F0E941C03811122C09E01DD0F440BF5
:100AB000550B60E074E284EF90E00E94740B309379
:100AC0009700209396002FE832E0E29EC001E39E5B
:100AD000900DF29E900D112490939D0080939C00A8
:100AE000DF91CF911F910F91FF90EF900895F80142
:100AF00080819181019691838083F2CF80917C02E5
:100B000090917D02892BD9F080917C0290917D0299
:100B10008330910509F443C034F58130910599F192
:100B20008230910581F42CE732E04AE050E061E048
:100B300070E08AE691E00E94440581E0089581E03A
:100B40000E942805E1CF892B61F42CE732E04AE0CE
:100B500050E061E070E08CEE91E00E94440581E09D
:100B6000089581E008958430910529F1059749F4AD
:100B700080E00E94280510927D0210927C0280E0A5
:100B8000089581E008952CE732E040E050E061E014
:100B900070E08EEA91E00E94440581E008952CE720
:100BA00032E04AE050E061E070E08FE692E00E94BF
:100BB000440581E008952CE732E040E050E061E038
:100BC00070E08FE692E00E94440581E008958091F4
:100BD0007A0290917B02892BD9F080917A029091D0
:100BE0007B028330910509F443C034F581309105CF
:100BF00099F18230910581F42AE732E041E050E03A
:100C000063E070E08AE891E00E94440581E0089585
:100C100081E00E942805E1CF892B61F42AE732E0C8
:100C200041E050E063E070E08EEA91E00E9444050C
:100C300081E0089581E008958430910529F10597B8
:100C400049F480E00E94280510927B0210927A02FB
:100C500080E0089581E008952AE732E040E050E026
:100C600062E070E08EEA91E00E94440581E0089520
:100C70002AE732E041E050E067E070E08AE691E088
:100C80000E94440581E008952AE732E040E050E008
:100C90006EE170E08FE692E00E94440581E00895E5
:100CA0008091780290917902892B71F0E09178021D
:100CB000F0917902EF30F10508F0BBC08827E654C7
:100CC000F44F8F4F0C94930B81E00E942805EECFD8
:100CD00028E732E041E050E061E070E08FE692E02A
:100CE0000E94440581E0089528E732E041E050E0A9
:100CF00061E070E082E592E00E94440581E00895A1
:100D000028E732E041E050E062E070E08EEA91E0F6
:100D10000E94440581E0089528E732E041E050E078
:100D200062E070E081EC91E00E94440581E008956A
:100D300028E732E041E050E061E070E082E592E0D7
:100D40000E94440581E0089528E732E041E050E048
:100D500061E070E08CE192E00E94440581E008953A
:100D600028E732E041E050E062E070E08AE691E09E
:100D70000E94440581E0089528E732E041E050E018
:100D800062E070E08AE891E00E94440581E0089505
:100D900028E732E041E050E061E070E08CE192E071
:100DA0000E94440581E0089528E732E041E050E0E8
:100DB00061E070E08CEE91E00E94440581E00895CE
:100DC00028E732E041E050E062E070E08AE691E03E
:100DD0000E94440581E0089528E732E041E050E0B8
:100DE00062E070E08AE891E00E94440581E00895A5
:100DF00028E732E041E050E065E070E08EEA91E003
:100E00000E94440581E0089528E732E040E050E088
:100E100065E070E08AE691E00E94440581E0089573
:100E200080E00E942805109279021092780280E0FA
:100E3000089581E0089584B1876084B9239881E59D
:100E40008CBD08958EBD0DB407FEFDCF8EB50895FF
:100E5000EF92FF920F931F93CF93DF9300D00F92E7
:100E60000F92CDB7DEB749835A836B837C838D8322
:100E7000822F09811A81F801408121E030E0790157
:100E800002C0EE0CFF1C6A95E2F79E2D909594230C
:100E90009083880F8E7780680E94220780E00E94EE
:100EA0002207F80190819E2990830F900F900F9058
:100EB0000F900F90DF91CF911F910F91FF90EF90C6
:100EC0000895CF92DF92EF92FF920F93CF93DF932B
:100ED00000D00F920F92CDB7DEB749835A836B8350
:100EE0007C838D83E980FA80F701908141E050E0B6
:100EF0006A0102C0CC0CDD1C6A95E2F78C2D80954E
:100F000089238083822F880F8E770E942207802F6B
:100F10000E942207F70180818C2980830F900F9017
:100F20000F900F900F90DF91CF910F91FF90EF9066
:100F3000DF90CF900895AF92BF92DF92EF92FF9231
:100F40000F931F93CF93DF9300D00F920F92CDB7E3
:100F5000DEB749835A83D62E6B837C838D830981C8
:100F60001A81EC80FD80F701208181E090E002C0D1
:100F7000880F991F6A95E2F7922F982B9083E1E0F2
:100F8000F1E0908190649083F8019081892B8083B7
:100F90006894AA24A1F8BB24B394F50180818064ED
:100FA00080830E941B07F50180818F7B8083808175
:100FB00080648083402F512F1A830983DB827E2D2A
:100FC000FD82EC8227E36D2D8F2D0E942807823948
:100FD00089F700E726E249815A816B817C818D8106
:100FE0000E94610700E82AE249815A816B817C8175
:100FF0008D810E94610709EA2BE249815A816B8148
:101000007C818D810E94610708EE2DE249815A8121
:101010006B817C818D810E94610703E02CE2498114
:101020005A816B817C818D810E94610700E425E1FA
:1010300049815A816B817C818D810E9461070DE31A
:1010400021E149815A816B817C818D810E946107F8
:1010500024E149815A816B817C818D810E9428071E
:10106000982F9370992379F00F900F900F900F9015
:101070000F90DF91CF911F910F91FF90EF90DF9034
:10108000BF90AF900895082F036024E149815A81F1
:101090006B817C818D810E946107E6CF0F931F9346
:1010A000CF93DF9300D00F920F92CDB7DEB7498375
:1010B0005A836B837C838D8307E02DE00E94610758
:1010C00000E021E049815A816B817C818D810E9401
:1010D000610706E229E049815A816B817C818D811B
:1010E0000E9461070CE021E049815A816B817C817B
:1010F0008D810E94610707E82DE049815A816B814B
:101100007C818D810E94610718EC24E049815A811D
:101110006B817C818D810E9428078073811103C0BF
:1011200011501111F2CF26E049815A816B817C81E7
:101130008D810E9428078B71882359F080E00F90E1
:101140000F900F900F900F90DF91CF911F910F9103
:1011500008952AE049815A816B817C818D810E94AA
:101160002807182F00E82AE049815A816B817C8189
:101170008D810E94610781E01111E1CF80E0DFCF16
:10118000CF93DF9300D00F920F92CDB7DEB7498394
:101190005A836B837C838D830E944E0881111DC00E
:1011A0008FE99FE00197F1F700C0000049815A8163
:1011B0006B817C818D810E944E0881110EC0EFE908
:1011C000FFE03197F1F700C000000F900F900F90F3
:1011D0000F900F90DF91CF91089581E0F6CFEAE074
:1011E000F1E0808180688083EBE0F1E080818068BD
:1011F000808380818062808380818F77808308955F
:10120000EAE0F1E0808180688083EBE0F1E08081BA
:101210008F7D8083808180628083808180688083ED
:101220000895EAE0F1E090819068908328E030E052
:10123000EBE0F1E00CC090819F7790839081906209
:1012400090838695215031092115310549F090810F
:101250009F7D908380FFEFCF908190689083EECF49
:10126000EBE0F1E080818F7D8083808180628083EC
:101270000895CF93C82F0E94EF088C2F877088683D
:101280000E9411090E940009CF910895EF92FF92E8
:101290001F93CF93DF93D82FC92F0E94EF0880E4CC
:1012A0000E9411090E94000913EC0F2EFAE0EF2EA4
:1012B000F12CF02D0E94EF08812F0E9411098D2F33
:1012C0009C2FB7010E943E0BD62FC72FFC01EE5D6D
:1012D000FD4F80810E9411090E94000911501F3B9F
:1012E00049F7DF91CF911F91FF90EF900895EF9212
:1012F000FF920F931F93CF93DF9300D000D00F92F4
:101300000F92CDB7DEB7E82EF92E84E6E816F10489
:101310002CF00F2EF3E6EF2EF12CF02DFF200CF425
:1013200047C0062F172F0436110514F003E610E00E
:1013300011230CF440C00E94EF0880E40E941109C0
:101340000E9400092AE030E0C701B9010E943E0B6B
:101350007A8369839C838B83C801B9010E943E0B09
:101360007E836D8398878F83DE0111967D0110EC5B
:101370000E94EF08812F0E941109D701ED91FD9184
:101380007D01EE5DFD4F80810E9411090E940009E0
:101390001F5F143C69F728960FB6F894DEBF0FBEA6
:1013A000CDBFDF91CF911F910F91FF90EF900895E6
:1013B000E12CF12CB6CF00E010E0BDCF1F93CF930E
:1013C000DF93C82FD92F162F0E94EF0880EC810FD2
:1013D0000E941109C25FDD4F88810E9411090E949D
:1013E0000009DF91CF911F910895EAE0F1E080813B
:1013F00080688083808180628083EBE0F1E080817F
:101400008068808380818062808382E00E943909C5
:10141000089560E083E190E00E94DE0961E083E0EE
:1014200090E00E94DE0962E086E090E00E94DE0922
:1014300063E087E090E00E94DE09089584E090E098
:101440000E94460961E081E090E00E94DE0962E0CE
:1014500085E090E00E94DE0963E088E090E00E9471
:10146000DE09089560E081E190E00E94DE0961E01C
:1014700088E090E00E94DE0962E087E090E00E9450
:10148000DE0963E08BE090E00E94DE09089560E0F1
:1014900083E190E00E94DE0961E086E090E00E9436
:1014A000DE0962E08DE090E00E94DE0963E08BE0FF
:1014B00090E00E94DE09089560E083E190E00E94E0
:1014C000DE0961E083E090E00E94DE0962E08CE0EA
:1014D00090E00E94DE0963E081E190E00E94DE0975
:1014E000089560E081E190E00E94DE0961E082E120
:1014F00090E00E94DE0962E08FE090E00E94DE0949
:1015000063E08CE090E00E94DE09089560E084E0F2
:1015100090E00E94DE0961E089E090E00E94DE092F
:1015200062E080E190E00E94DE0963E081E190E00A
:101530000E94DE09089560E083E190E00E94DE09E8
:1015400061E08EE090E00E94DE0962E081E090E0E0
:101550000E94DE0963E083E090E00E94DE090895C6
:10156000882319F00E94470A08950E949B0A089553
:1015700060E08BE090E00E94DE0961E085E090E0B1
:101580000E94DE0962E086E090E00E94DE0963E0EE
:1015900081E190E00E94DE09089560E08FE090E034
:1015A0000E94DE0961E087E090E00E94DE0962E0CF
:1015B00088E090E00E94DE0963E081E190E00E9413
:1015C000DE090895882319F00E94CD0A08950E942B
:1015D000B80A089560E083E190E00E94DE0961E0CE
:1015E00083E190E00E94DE0962E087E090E00E94E3
:1015F000DE0963E08DE090E00E94DE09089560E07E
:1016000083E190E00E94DE0961E085E090E00E94C5
:10161000DE0962E08CE090E00E94DE0963E084E095
:1016200090E00E94DE09089560E080E190E00E9471
:10163000DE0961E08FE090E00E94DE0962E083E075
:1016400090E00E94DE0963E088E090E00E94DE09FD
:10165000089560E080E190E00E94DE0961E081E1B0
:1016600090E00E94DE0962E08DE090E00E94DE09D9
:1016700063E08EE090E00E94DE09089597FB072E5C
:1016800016F4009407D077FD09D00E949B0B07FC4D
:1016900005D03EF4909581959F4F08957095619582
:1016A0007F4F0895A1E21A2EAA1BBB1BFD010DC09E
:1016B000AA1FBB1FEE1FFF1FA217B307E407F50702
:1016C00020F0A21BB30BE40BF50B661F771F881FDE
:1016D000991F1A9469F760957095809590959B0174
:1016E000AC01BD01CF010895052E97FB1EF40094B7
:1016F0000E948B0B57FD07D00E94520B07FC03D0B2
:101700004EF40C948B0B50954095309521953F4F9E
:101710004F4F5F4F089590958095709561957F4FDD
:101720008F4F9F4F0895EE0FFF1F881F8BBF0790AD
:10173000F691E02D1994AA1BBB1B51E107C0AA1F0B
:10174000BB1FA617B70710F0A61BB70B881F991F62
:101750005A95A9F780959095BC01CD010895F8940C
:10176000FFCFBF02C502CB02D102D702DD02E302E6
:10177000E902EF026806740680068C069806A40645
:10178000B006BC06C806D406E006EC06F806040758
:02179000100740
:10179200FFFFFFFF25000024000B01000A01407734
:1017A2007C395E79713D74060E38373F73316D783E
:1017B2003E003F065B4F666D7D077F6F0030313222
:1017C20033343536373839414243444546004D417A
:1017D200535445523A2053656E64696E6720746FA4
:1017E20020536C6176653A20004D41535445523A7C
:1017F20020436F6D6D616E642073656E742E0D0AE9
:021802000000E4
:00000001FF
