:100000000C94B0000C9402010C94D1000C94D1001B
:100010000C94D1000C94D1000C94D1000C94D1001C
:100020000C94D1000C94D1000C94D1000C94D1000C
:100030000C94D1000C94D1000C94D1000C94D100FC
:100040000C94D1000C94D1000C94D1000C94D100EC
:100050000C94D1000C94D1000C94D1000C94D100DC
:100060000C94D1000C94D1000C94D1000C94D100CC
:100070000C94D1000C94D1000C94D1000C94D100BC
:100080000C94D1000C94D1000C94D1000C94D100AC
:100090000C94D1000C94D1000C94D1000C94D1009C
:1000A0000C94D1000C94D1000C94D1000C94D1008C
:1000B0000C94D1000C94D1000C94D1000C94D1007C
:1000C0000C94D1000C94D1000C94D1000C94D1006C
:1000D0000C94D1000C94D1000C94D1000C94D1005C
:1000E0000C94D1000C94B1020C94DB050C94B70570
:1000F0000C941A020C946F050C94CF050C94FC011F
:100100000C9425030C9493050C944B050C948705D3
:100110000C947B050C949F050C9414020C946305BD
:100120000C9420020C94AB050C9402020C9408026F
:100130000C94CD020C94CC030C9457050C940E0235
:100140000C94F6010C94E7050C94F3050C940B0346
:100150000C94C3050C94A0020C9494030C94F0012D
:1001600011241FBECFEFD1E2DEBFCDBF00E00CBF38
:1001700012E0A0E0B2E0EEEBF1E100E00BBF02C064
:1001800007900D92A636B107D9F722E0A6E6B2E0B5
:1001900001C01D92AC36B207E1F70E947F020C94B9
:1001A000BE080C9400005098589A089A109AE9E6F4
:1001B000F0E0808183608083E89A089589B181703E
:1001C000089581B1877E81B982B1886182B95198E1
:1001D000599A08950E94D3000E94E100089580B1C9
:1001E00083FB882780F991E08927089580B1829563
:1001F000817091E08927089589B18695817091E099
:10020000892708951F920F920FB60F92112402C0F2
:100210000E943808109880E00E940B044899F8CF9B
:100220000E94FC008823B1F3109AF89488E180932F
:100230006000FFCF9C0140E050E060E472E48FE09A
:1002400090E00E946108215031093093C50020934D
:10025000C40088E18093C10086E08093C2000895C5
:100260009C0140E050E060E472E48FE090E00E9486
:100270006108215031093093CD002093CC0088E1F2
:100280008093C90086E08093CA000895E0ECF0E016
:10029000908195FFFDCF8093C6000895CF93DF93A3
:1002A000C82FD92F8881882331F021960E944601DA
:1002B00089918111FBCFDF91CF9108951F93CF9347
:1002C000DF93CDB7DEB761970FB6F894DEBF0FBEF0
:1002D000CDBF182F81E1E1E2F2E0DE01119601903D
:1002E0000D928A95E1F7812F82958F70E1E0F0E021
:1002F000EC0FFD1FE80FF11D80810E9446011F7069
:10030000E1E0F0E0EC0FFD1FE10FF11D80810E94A4
:10031000460161960FB6F894DEBF0FBECDBFDF91E8
:10032000CF911F9108950F931F93CF93DF93082FC1
:10033000162FD42FC22F82E392E00E944E01802F0D
:100340000E945E0180E20E944601812F0E945E01B0
:1003500080E20E9446018D2F0E945E0180E20E9491
:1003600046018C2F0E945E0182E692E00E944E01BF
:10037000E8ECF0E0908195FFFDCF0093CE00E8EC33
:10038000F0E0908195FFFDCF1093CE00E8ECF0E017
:10039000908195FFFDCFD093CE00E8ECF0E0908106
:1003A00095FFFDCFC093CE008DE492E00E944E01F8
:1003B000DF91CF911F910F910895E8ECF0E08081DB
:1003C0008823ECF78091CE000895E82FF92F242F91
:1003D0000997D8F58827E054F74F8F4F0C94A2085F
:1003E000462F60E881E00E9493010895462F6FEF49
:1003F00081E00E9493010895462F60E081E00E9411
:1004000093010895462F6EE781E00E9493010895BD
:10041000462F6FE781E00E9493010895462F61E027
:1004200082E00E9493010895462F62E082E00E94DC
:1004300093010895462F61E083E00E94930108959F
:10044000462F62E083E00E9493010895109280009D
:100450008BE08093810088EA91E6909389008093F5
:10046000880008950E94260208950E94EA000E94D2
:1004700004070E9426020E94FC03789480E895E21B
:100480000E941A0180E895E20E9430010895282F09
:10049000392F2F3F3207C9F080910002909101025D
:1004A0008F3F980791F018161906DCF4B19B25C010
:1004B00082E086BB809100029091010201979093A7
:1004C00001028093000280E008953093010220939E
:1004D000000282E086BB109285001092840080E0CA
:1004E0000895892B11F080E008958FEF9FEF90938E
:1004F00001028093000281E0089580E008950E9447
:100500003502712C0F2EFAE58F2E912CF02DC12C77
:10051000D12CE12CF12C212CC0E0D0E001E010E046
:1005200055245394612C0F2EF8ECAF2EB12CF02DE6
:10053000412C312C1CC0C0E0D0E005E010E017C019
:100540000E94F600882319F00E94950710C00E94AF
:10055000EF00882319F00E940E0809C00E94F907D5
:1005600006C00E9418070E94FC0081110AC00730D3
:100570001105E8F7F8018827E753F74F8F4F0C94E0
:10058000A20885E090E00E944702811103C00E940A
:10059000F907F7CF02E010E0EACFC130D10591F0C2
:1005A000C230D10549F1209711F78FEF9FEF0E94DC
:1005B00047024FEF6FEF852D962D0E94E501C52D67
:1005C000D62DD5CFB701C6010E948606C4010E9470
:1005D0004702811109C00E94EF00882341F2C42D17
:1005E000D32D03E010E0C3CF4FEF60E2852D962DB1
:1005F0000E94E501E801EFCFB701C6010E9486061F
:100600000E94EF008E01882309F4B1CFC42DD32DB1
:1006100003E010E0ACCFC130D10549F04FEF6FEFF0
:1006200083E090E00E94E501C52DD62DA0CFB70153
:10063000C6010E9486060E94DD01813009F097CF35
:10064000C42DD32D06E010E092CFC130D10581F04A
:10065000C230D10509F443C0209709F088CF4FEF8D
:1006600060E1852D962D0E94E501C52DD62D7FCF09
:10067000B701C6010E9486060E94F6008111A5C03E
:1006800087E090E00E944702882309F470CF8FEF43
:100690009FEF0E9447024FEF6FEF84E090E00E94CF
:1006A000E5017110A5C0FFEFEF1AFF0A10C0B701F6
:1006B000C6010E9486060E94CA04782E8111F7CFD7
:1006C000C2E0D0E054CFB701C6010E9486060E9466
:1006D0006104782E8111F7CFC2E0D0E048CFB70196
:1006E000C6010E94860686E090E00E9447028823A9
:1006F00009F43DCF211007C022242394C42DD32D0B
:1007000004E010E034CF8091C80088230CF013CFB0
:10071000C8ECD0E00E94DD0188818823DCF3C0E0D2
:10072000D0E005E010E023CFC130D10561F0C23048
:10073000D10539F14FEF6FEF87E090E00E94E501BE
:10074000C52DD62D14CF0E948007F5018081882306
:100750000CF00DCF0E94DD01813009F008CF4FEF82
:100760006FEF84E090E00E94E5018FEF9FEF0E9421
:1007700047020F2EF6E48F2E912CF02DC2E0D0E030
:10078000F6CE82E090E00E944702882309F4EFCE83
:100790008E01C42DD32DEBCEC130D10519F40E94AA
:1007A0000E08E5CE4FEF6FEF84E090E00E94E50188
:1007B0000E940E088FEF9FEF0E9447020E943305B0
:1007C0008111FCCFC52DD62DD2CE87E090E00E94BE
:1007D000470277247394882309F4C9CE8FEF9FEFE3
:1007E0000E9447024FEF6FEF84E090E00E94E50126
:1007F000EFEFCE1ADE0A5FCF6D98759A82E0809394
:10080000900089E1809391008EE195E090939D00A6
:1008100080939C000895882339F06D9AE0E9F0E018
:1008200080818C60808308956D98E0E9F0E080819C
:10083000837F808308959C01990F440B550B60E0E2
:1008400074E284EF90E00E948308C9010895EF925A
:10085000FF920F931F93CF93DF93C82FD92FCB0114
:10086000E42EF52E022F132F0E944702811122C081
:100870009E01DD0F440B550B60E074E284EF90E0C5
:100880000E94830830939700209396002FE832E06F
:10089000E29EC001E39E900DF29E900D1124909374
:1008A0009D0080939C00DF91CF911F910F91FF904D
:1008B000EF900895F8018081918101969183808362
:1008C000F2CF80916A0290916B02892BD9F08091CE
:1008D0006A0290916B028330910509F443C034F5AC
:1008E0008130910599F18230910581F42AE632E058
:1008F00048E250E061E070E08AE691E00E9427045F
:1009000081E0089581E00E940B04E1CF892B61F41E
:100910002AE632E048E250E061E070E08CEE91E0DF
:100920000E94270481E0089581E0089584309105B4
:1009300029F1059749F480E00E940B0410926B02A4
:1009400010926A0280E0089581E008952AE632E07C
:1009500040E050E061E070E08EEA91E00E94270400
:1009600081E008952AE632E048E250E061E070E07C
:100970008FE692E00E94270481E008952AE632E0A3
:1009800040E050E061E070E08FE692E00E942704D2
:1009900081E008958091680290916902892BD9F0D5
:1009A00080916802909169028330910509F443C0F7
:1009B00034F58130910599F18230910581F428E672
:1009C00032E048E250E063E070E08AE891E00E94A3
:1009D000270481E0089581E00E940B04E1CF892B78
:1009E00061F428E632E048E250E063E070E08EEA2D
:1009F00091E00E94270481E0089581E00895843009
:100A0000910529F1059749F480E00E940B041092AA
:100A100069021092680280E0089581E0089528E656
:100A200032E040E050E062E070E08EEA91E00E9447
:100A3000270481E0089528E632E048E250E067E0CC
:100A400070E08AE691E00E94270481E0089528E69C
:100A500032E040E050E061E070E08FE692E00E941A
:100A6000270481E008958091660290916702892BA6
:100A700071F0E0916602F0916702EF30F10508F045
:100A8000BBC08827E053F74F8F4F0C94A20881E03A
:100A90000E940B04EECF26E632E048E250E061E02F
:100AA00070E08FE692E00E94270481E0089526E638
:100AB00032E048E250E061E070E082E592E00E94BE
:100AC000270481E0089526E632E048E250E062E043
:100AD00070E08EEA91E00E94270481E0089526E606
:100AE00032E048E250E062E070E081EC91E00E9488
:100AF000270481E0089526E632E048E250E061E014
:100B000070E082E592E00E94270481E0089526E6E5
:100B100032E048E250E061E070E08CE192E00E9457
:100B2000270481E0089526E632E048E250E062E0E2
:100B300070E08AE691E00E94270481E0089526E6AD
:100B400032E048E250E062E070E08AE891E00E9422
:100B5000270481E0089526E632E048E250E061E0B3
:100B600070E08CE192E00E94270481E0089526E67F
:100B700032E048E250E061E070E08CEE91E00E94EB
:100B8000270481E0089526E632E048E250E062E082
:100B900070E08AE691E00E94270481E0089526E64D
:100BA00032E048E250E062E070E08AE891E00E94C2
:100BB000270481E0089526E632E048E250E065E04F
:100BC00070E08EEA91E00E94270481E0089526E615
:100BD00032E040E050E065E070E08AE691E00E949B
:100BE000270481E0089580E00E940B0410926702C0
:100BF0001092660280E0089581E00895EAE0F1E055
:100C0000808180688083EBE0F1E080818068808370
:100C100080818062808380818F7780830895EAE07D
:100C2000F1E0808180688083EBE0F1E080818F7D5E
:100C30008083808180628083808180688083089542
:100C4000EAE0F1E090819068908328E030E0EBE00A
:100C5000F1E00CC090819F779083908190629083A7
:100C60008695215031092115310549F090819F7DEC
:100C7000908380FFEFCF908190689083EECFEBE080
:100C8000F1E080818F7D8083808180628083089500
:100C9000CF93C82F0E94FE058C2F877088680E9412
:100CA00020060E940F06CF910895EF92FF921F93A6
:100CB000CF93DF93D82FC92F0E94FE0580E40E94B6
:100CC00020060E940F0613EC0F2EFAE0EF2EF12CF7
:100CD000F02D0E94FE05812F0E9420068D2F9C2F53
:100CE000B7010E944D08D62FC72FFC01EA5EFD4FC9
:100CF00080810E9420060E940F0611501F3B49F779
:100D0000DF91CF911F91FF90EF900895EF92FF92A6
:100D10000F931F93CF93DF9300D000D00F920F92C9
:100D2000CDB7DEB7E82EF92E84E6E816F1042CF0F4
:100D30000F2EF3E6EF2EF12CF02DFF200CF447C020
:100D4000062F172F0436110514F003E610E01123C7
:100D50000CF440C00E94FE0580E40E9420060E9420
:100D60000F062AE030E0C701B9010E944D087A83DE
:100D700069839C838B83C801B9010E944D087E83DF
:100D80006D8398878F83DE0111967D0110EC0E94A0
:100D9000FE05812F0E942006D701ED91FD917D0176
:100DA000EA5EFD4F80810E9420060E940F061F5FB1
:100DB000143C69F728960FB6F894DEBF0FBECDBF7E
:100DC000DF91CF911F910F91FF90EF900895E12C4B
:100DD000F12CB6CF00E010E0BDCF1F93CF93DF938F
:100DE000C82FD92F162F0E94FE0580EC810F0E947C
:100DF0002006CE5FDD4F88810E9420060E940F06EC
:100E0000DF91CF911F910895EAE0F1E08081806841
:100E10008083808180628083EBE0F1E08081806864
:100E2000808380818062808382E00E9448060895EA
:100E300060E083E190E00E94ED0661E083E090E0F5
:100E40000E94ED0662E086E090E00E94ED0663E01D
:100E500087E090E00E94ED06089584E090E00E9413
:100E6000550661E081E090E00E94ED0662E085E0D9
:100E700090E00E94ED0663E088E090E00E94ED06BD
:100E8000089560E081E190E00E94ED0661E088E075
:100E900090E00E94ED0662E087E090E00E94ED069F
:100EA00063E08BE090E00E94ED06089560E083E14E
:100EB00090E00E94ED0661E086E090E00E94ED0681
:100EC00062E08DE090E00E94ED0663E08BE090E050
:100ED0000E94ED06089560E083E190E00E94ED0637
:100EE00061E083E090E00E94ED0662E08CE090E03B
:100EF0000E94ED0663E081E190E00E94ED06089516
:100F000060E081E190E00E94ED0661E082E190E026
:100F10000E94ED0662E08FE090E00E94ED0663E043
:100F20008CE090E00E94ED06089560E084E090E09F
:100F30000E94ED0661E089E090E00E94ED0662E02B
:100F400080E190E00E94ED0663E081E190E00E9484
:100F5000ED06089560E083E190E00E94ED0661E017
:100F60008EE090E00E94ED0662E081E090E00E9459
:100F7000ED0663E083E090E00E94ED06089588238B
:100F800019F00E94560708950E94AA07089560E08C
:100F90008BE090E00E94ED0661E085E090E00E9429
:100FA000ED0662E086E090E00E94ED0663E081E1FC
:100FB00090E00E94ED06089560E08FE090E00E94CE
:100FC000ED0661E087E090E00E94ED0662E088E0D7
:100FD00090E00E94ED0663E081E190E00E94ED0662
:100FE0000895882319F00E94DC0708950E94C7071E
:100FF000089560E083E190E00E94ED0661E083E106
:1010000090E00E94ED0662E087E090E00E94ED062D
:1010100063E08DE090E00E94ED06089560E083E1DA
:1010200090E00E94ED0661E085E090E00E94ED0610
:1010300062E08CE090E00E94ED0663E084E090E0E6
:101040000E94ED06089560E080E190E00E94ED06C8
:1010500061E08FE090E00E94ED0662E083E090E0C6
:101060000E94ED0663E088E090E00E94ED0608959E
:1010700060E080E190E00E94ED0661E081E190E0B7
:101080000E94ED0662E08DE090E00E94ED0663E0D4
:101090008EE090E00E94ED06089597FB072E16F46F
:1010A000009407D077FD09D00E94AA0807FC05D05C
:1010B0003EF4909581959F4F0895709561957F4F6F
:1010C0000895A1E21A2EAA1BBB1BFD010DC0AA1F89
:1010D000BB1FEE1FFF1FA217B307E407F50720F0A1
:1010E000A21BB30BE40BF50B661F771F881F991F1C
:1010F0001A9469F760957095809590959B01AC0165
:10110000BD01CF010895052E97FB1EF400940E94A7
:101110009A0857FD07D00E94610807FC03D04EF4DF
:101120000C949A0850954095309521953F4F4F4F1C
:101130005F4F089590958095709561957F4F8F4F83
:101140009F4F0895EE0FFF1F881F8BBF0790F691EA
:10115000E02D1994AA1BBB1B51E107C0AA1FBB1F9E
:10116000A617B70710F0A61BB70B881F991F5A9533
:10117000A9F780959095BC01CD010895F894FFCF13
:10118000F001F601FC01020208020E0214021A022A
:101190002002A002B102CD02250394030B03CC036D
:1011A0004B05570563056F057B05870593059F056F
:0E11B000AB05B705C305CF05DB05E705F30565
:1011BE00FFFF40777C395E79713D74060E38373FFC
:1011CE0073316D783E003F065B4F666D7D077F6F16
:1011DE0000303132333435363738394142434445A5
:1011EE0046004D41535445523A2053656E64696E24
:1011FE006720746F20536C6176653A20004D415321
:10120E005445523A20436F6D6D616E642073656E66
:06121E00742E0D0A000011
:00000001FF
