:100000000C94A2000C94C5000C94C3000C94C30083
:100010000C94C3000C94C3000C94C3000C94C30054
:100020000C94C3000C94C3000C94C3000C94C30044
:100030000C94C3000C94C3000C94C3000C94C30034
:100040000C94C3000C94C3000C94C3000C94C30024
:100050000C94C3000C94C3000C94C3000C94C30014
:100060000C94C3000C94C3000C94C3000C94C30004
:100070000C94C3000C94C3000C94C3000C94C300F4
:100080000C94C3000C94C3000C94C3000C94C300E4
:100090000C94C3000C94C3000C94C3000C94C300D4
:1000A0000C94C3000C94C3000C94C3000C94C300C4
:1000B0000C94C3000C94C3000C94C3000C94C300B4
:1000C0000C94C3000C94C3000C94C3000C94C300A4
:1000D0000C94C3000C94C3000C94C3000C94C30094
:1000E0000C94C3000C94A1040C947D040C9438026D
:1000F0000C9420020C942C020C9435040C9495045E
:100100000C9459040C9411040C941A020C944D0490
:100110000C9441040C9465040C9429040C9471040F
:100120000C9426020C9432020C9414020C943E029D
:100130000C941D040C94AD040C94B9040C94890423
:100140000C94440211241FBECFEFD1E2DEBFCDBF1D
:1001500000E00CBF12E0A0E0B2E0ECE3FFE000E062
:100160000BBF02C007900D92A636B107D9F722E067
:10017000A6E6B2E001C01D92AC36B207E1F70E94DC
:10018000A3020C9484070C9400001F920F920FB6E8
:100190000F9211240BB60F922F933F934F935F93BF
:1001A0006F937F938F939F93AF93BF93CF93DF937F
:1001B000EF93FF93489B20C0489B18C0C1E0D1E05B
:1001C00004C0489B0EC0489B11C09D9888818F7BBE
:1001D000888380E00E94D102489BF3CF0E94FE06F4
:1001E000F2CFF89488E180936000FFCF9D9AE1E020
:1001F000F1E0808180648083FF91EF91DF91CF9166
:10020000BF91AF919F918F917F916F915F914F912E
:100210003F912F910F900BBE0F900FBE0F901F902C
:1002200018955098E9E6F0E0808183608083E89A31
:10023000089589B18170089581B1877E81B982B1B5
:10024000886182B95198599A08950E9411010E94BB
:100250001C01089580B183FB882780F991E08927EC
:10026000089580B182FB882780F991E0892708955D
:1002700089B18695817091E0892708959C0140E0BD
:1002800050E060E472E48FE090E00E942707215084
:1002900031093093C5002093C40088E18093C100E8
:1002A00086E08093C20008959C0140E050E060E445
:1002B00072E48FE090E00E942707215031093093CB
:1002C000CD002093CC0088E18093C90086E0809324
:1002D000CA000895E0ECF0E0908195FFFDCF809397
:1002E000C6000895CF93DF93C82FD92F8881882324
:1002F00031F021960E946A0189918111FBCFDF9133
:10030000CF9108951F93CF93DF93CDB7DEB7619759
:100310000FB6F894DEBF0FBECDBF182F81E1E1E22A
:10032000F2E0DE01119601900D928A95E1F7812F9E
:1003300082958F70E1E0F0E0EC0FFD1FE80FF11DFA
:1003400080810E946A011F70E1E0F0E0EC0FFD1F68
:10035000E10FF11D80810E946A0161960FB6F89449
:10036000DEBF0FBECDBFDF91CF911F9108950F93D8
:100370001F93CF93DF93082F162FD42FC22F82E322
:1003800092E00E947201802F0E94820180E20E940E
:100390006A01812F0E94820180E20E946A018D2FF2
:1003A0000E94820180E20E946A018C2F0E948201D9
:1003B00082E692E00E947201E8ECF0E0908195FF05
:1003C000FDCF0093CE00E8ECF0E0908195FFFDCFEB
:1003D0001093CE00E8ECF0E0908195FFFDCFD09334
:1003E000CE00E8ECF0E0908195FFFDCFC093CE0009
:1003F0008DE492E00E947201DF91CF911F910F91E5
:100400000895E8ECF0E080818823ECF78091CE003D
:100410000895E82FF92F242F0997D8F58827EA5750
:10042000F84F8F4F0C946807462F60E881E00E94D8
:10043000B7010895462F6FEF81E00E94B70108953C
:10044000462F60E081E00E94B7010895462F6EE7D5
:1004500081E00E94B7010895462F6FE781E00E9476
:10046000B7010895462F61E082E00E94B701089528
:10047000462F62E082E00E94B7010895462F61E0B6
:1004800083E00E94B7010895462F62E083E00E9456
:10049000B7010895109280008BE08093810088EA74
:1004A00091E6909389008093880008950E944A0203
:1004B00008950E9425010E94CA050E944A020E94D6
:1004C000C202789480E895E20E943E0180E895E2BD
:1004D0000E9454010895282F392F2F3F3207C9F069
:1004E00080910002909101028F3F980791F01816B9
:1004F0001906DCF4B19B25C082E086BB8091000226
:10050000909101020197909301028093000280E094
:100510000895309301022093000282E086BB10927E
:1005200085001092840080E00895892B11F080E00E
:1005300008958FEF9FEF909301028093000281E076
:10054000089580E008950E9459020E9438018111A7
:1005500009C00E94380181110EC080E090E008952A
:100560000E94BF0685E090E00E946B028823C1F3E1
:100570000E942A01EECF41E061E081E090E00E941C
:100580000902EBCF6D98759A82E08093900089E123
:10059000809391008EE195E090939D0080939C0064
:1005A0000895882339F06D9AE0E9F0E080818C604D
:1005B000808308956D98E0E9F0E08081837F8083F7
:1005C00008959C01990F440B550B60E074E284EF91
:1005D00090E00E944907C9010895EF92FF920F939E
:1005E0001F93CF93DF93C82FD92FCB01E42EF52E85
:1005F000022F132F0E946B02811122C09E01DD0F7A
:10060000440B550B60E074E284EF90E00E944907D0
:1006100030939700209396002FE832E0E29EC001CD
:10062000E39E900DF29E900D112490939D00809377
:100630009C00DF91CF911F910F91FF90EF90089553
:10064000F80180819181019691838083F2CF80911E
:100650006A0290916B02892BD9F080916A02909185
:100660006B028330910509F443C034F58130910564
:1006700099F18230910581F42AE632E04AE050E0B7
:1006800061E070E08AE691E00E94ED0281E0089569
:1006900081E00E94D102E1CF892B61F42AE632E0A9
:1006A0004AE050E061E070E08CEE91E00E94ED02E3
:1006B00081E0089581E008958430910529F105973E
:1006C00049F480E00E94D10210926B0210926A02FB
:1006D00080E0089581E008952AE632E040E050E0AD
:1006E00061E070E08EEA91E00E94ED0281E0089501
:1006F0002AE632E04AE050E061E070E08FE692E006
:100700000E94ED0281E008952AE632E040E050E0E8
:1007100061E070E08FE692E00E94ED0281E00895D2
:100720008091680290916902892BD9F080916802CA
:10073000909169028330910509F443C034F581300A
:10074000910599F18230910581F428E632E041E08B
:1007500050E063E070E08AE891E00E94ED0281E001
:10076000089581E00E94D102E1CF892B61F428E64F
:1007700032E041E050E063E070E08EEA91E00E94F8
:10078000ED0281E0089581E008958430910529F11A
:10079000059749F480E00E94D102109269021092FC
:1007A000680280E0089581E0089528E632E040E0A4
:1007B00050E062E070E08EEA91E00E94ED0281E09C
:1007C000089528E632E041E050E067E070E08AE614
:1007D00091E00E94ED0281E0089528E632E040E0D9
:1007E00050E06EE170E08FE692E00E94ED0281E061
:1007F00008958091660290916702892B71F0E091D3
:100800006602F0916702EF30F10508F0BBC088275F
:10081000E157F84F8F4F0C94680781E00E94D10296
:10082000EECF26E632E041E050E061E070E08FE696
:1008300092E00E94ED0281E0089526E632E041E078
:1008400050E061E070E082E592E00E94ED0281E01C
:10085000089526E632E041E050E062E070E08EEA82
:1008600091E00E94ED0281E0089526E632E041E049
:1008700050E062E070E081EC91E00E94ED0281E0E6
:10088000089526E632E041E050E061E070E082E564
:1008900092E00E94ED0281E0089526E632E041E018
:1008A00050E061E070E08CE192E00E94ED0281E0B6
:1008B000089526E632E041E050E062E070E08AE62A
:1008C00091E00E94ED0281E0089526E632E041E0E9
:1008D00050E062E070E08AE891E00E94ED0281E081
:1008E000089526E632E041E050E061E070E08CE1FE
:1008F00092E00E94ED0281E0089526E632E041E0B8
:1009000050E061E070E08CEE91E00E94ED0281E049
:10091000089526E632E041E050E062E070E08AE6C9
:1009200091E00E94ED0281E0089526E632E041E088
:1009300050E062E070E08AE891E00E94ED0281E020
:10094000089526E632E041E050E065E070E08EEA8E
:1009500091E00E94ED0281E0089526E632E040E059
:1009600050E065E070E08AE691E00E94ED0281E0EF
:10097000089580E00E94D1021092670210926602F0
:1009800080E0089581E00895EAE0F1E080818068E8
:100990008083EBE0F1E080818068808380818062E9
:1009A000808380818F7780830895EAE0F1E0808101
:1009B00080688083EBE0F1E080818F7D808380819F
:1009C000806280838081806880830895EAE0F1E01E
:1009D00090819068908328E030E0EBE0F1E00CC07B
:1009E00090819F779083908190629083869521502B
:1009F00031092115310549F090819F7D908380FF59
:100A0000EFCF908190689083EECFEBE0F1E08081B2
:100A10008F7D80838081806280830895CF93C82FEB
:100A20000E94C4048C2F877088680E94E6040E948C
:100A3000D504CF910895EF92FF921F93CF93DF9348
:100A4000D82FC92F0E94C40480E40E94E6040E94AB
:100A5000D50413EC0F2EFAE0EF2EF12CF02D0E94AE
:100A6000C404812F0E94E6048D2F9C2FB7010E94A1
:100A70001307D62FC72FFC01EA5EFD4F80810E942D
:100A8000E6040E94D50411501F3B49F7DF91CF9136
:100A90001F91FF90EF900895EF92FF920F931F9395
:100AA000CF93DF9300D000D00F920F92CDB7DEB777
:100AB000E82EF92E84E6E816F1042CF00F2EF3E66A
:100AC000EF2EF12CF02DFF200CF447C0062F172F2E
:100AD0000436110514F003E610E011230CF440C0B5
:100AE0000E94C40480E40E94E6040E94D5042AE027
:100AF00030E0C701B9010E9413077A8369839C83A0
:100B00008B83C801B9010E9413077E836D83988788
:100B10008F83DE0111967D0110EC0E94C404812FA9
:100B20000E94E604D701ED91FD917D01EA5EFD4F43
:100B300080810E94E6040E94D5041F5F143C69F77F
:100B400028960FB6F894DEBF0FBECDBFDF91CF91D0
:100B50001F910F91FF90EF900895E12CF12CB6CFEB
:100B600000E010E0BDCF1F93CF93DF93C82FD92FA4
:100B7000162F0E94C40480EC810F0E94E604CE5F11
:100B8000DD4F88810E94E6040E94D504DF91CF9159
:100B90001F910895EAE0F1E0808180688083808180
:100BA00080628083EBE0F1E08081806880838081D7
:100BB0008062808382E00E940E05089560E083E1F8
:100BC00090E00E94B30561E083E090E00E94B305ED
:100BD00062E086E090E00E94B30563E087E090E089
:100BE0000E94B305089584E090E00E941B0561E037
:100BF00081E090E00E94B30562E085E090E00E9411
:100C0000B30563E088E090E00E94B305089560E0DA
:100C100081E190E00E94B30561E088E090E00E94ED
:100C2000B30562E087E090E00E94B30563E08BE0EB
:100C300090E00E94B305089560E083E190E00E9497
:100C4000B30561E086E090E00E94B30562E08DE0CC
:100C500090E00E94B30563E08BE090E00E94B30552
:100C6000089560E083E190E00E94B30561E083E0D5
:100C700090E00E94B30562E08CE090E00E94B30532
:100C800063E081E190E00E94B305089560E081E1B6
:100C900090E00E94B30561E082E190E00E94B3051C
:100CA00062E08FE090E00E94B30563E08CE090E0AA
:100CB0000E94B305089560E084E090E00E94B305CF
:100CC00061E089E090E00E94B30562E080E190E09D
:100CD0000E94B30563E081E190E00E94B3050895AE
:100CE00060E083E190E00E94B30561E08EE090E077
:100CF0000E94B30562E081E090E00E94B30563E0EA
:100D000083E090E00E94B3050895882319F00E94C3
:100D10001C0608950E947006089560E08BE090E044
:100D20000E94B30561E085E090E00E94B30562E0B7
:100D300086E090E00E94B30563E081E190E00E94CC
:100D4000B305089560E08FE090E00E94B30561E094
:100D500087E090E00E94B30562E088E090E00E94A6
:100D6000B30563E081E190E00E94B3050895882314
:100D700019F00E94A20608950E948D06089560E071
:100D800083E190E00E94B30561E083E190E00E947E
:100D9000B30562E087E090E00E94B30563E08DE078
:100DA00090E00E94B305089560E083E190E00E9426
:100DB000B30561E085E090E00E94B30562E08CE05D
:100DC00090E00E94B30563E084E090E00E94B305E8
:100DD000089560E080E190E00E94B30561E08FE05B
:100DE00090E00E94B30562E083E090E00E94B305CA
:100DF00063E088E090E00E94B305089560E080E140
:100E000090E00E94B30561E081E190E00E94B305AB
:100E100062E08DE090E00E94B30563E08EE090E038
:100E20000E94B305089597FB072E16F4009407D08F
:100E300077FD09D00E94700707FC05D03EF490951D
:100E400081959F4F0895709561957F4F0895A1E218
:100E50001A2EAA1BBB1BFD010DC0AA1FBB1FEE1F34
:100E6000FF1FA217B307E407F50720F0A21BB30B7F
:100E7000E40BF50B661F771F881F991F1A9469F7FB
:100E800060957095809590959B01AC01BD01CF0157
:100E90000895052E97FB1EF400940E94600757FDED
:100EA00007D00E94270707FC03D04EF40C9460077C
:100EB00050954095309521953F4F4F4F5F4F089586
:100EC00090958095709561957F4F8F4F9F4F0895B6
:100ED000EE0FFF1F881F8BBF0790F691E02D19942E
:100EE000AA1BBB1B51E107C0AA1FBB1FA617B70750
:100EF00010F0A61BB70B881F991F5A95A9F780956C
:100F00009095BC01CD010895F894FFCF14021A0208
:100F1000200226022C02320238023E024402110450
:100F20001D042904350441044D0459046504710469
:0C0F30007D0489049504A104AD04B904FB
:100F3C00FFFF40777C395E79713D74060E38373F80
:100F4C0073316D783E003F065B4F666D7D077F6F9A
:100F5C000030313233343536373839414243444529
:100F6C0046004D41535445523A2053656E64696EA8
:100F7C006720746F20536C6176653A20004D4153A5
:100F8C005445523A20436F6D6D616E642073656EEB
:060F9C00742E0D0A000096
:00000001FF
