:100000000C94B0000C94D3000C94D1000C94D1004B
:100010000C94D1000C94D1000C94D1000C94D1001C
:100020000C94D1000C94D1000C94D1000C94D1000C
:100030000C94D1000C94D1000C94D1000C94D100FC
:100040000C94D1000C94D1000C94D1000C94D100EC
:100050000C94D1000C94D1000C94D1000C94D100DC
:100060000C94D1000C94D1000C94D1000C94D100CC
:100070000C94D1000C94D1000C94D1000C94D100BC
:100080000C94D1000C94D1000C94D1000C94D100AC
:100090000C94D1000C94D1000C94D1000C94D1009C
:1000A0000C94D1000C94D1000C94D1000C94D1008C
:1000B0000C94D1000C94D1000C94D1000C94D1007C
:1000C0000C94D1000C94D1000C94D1000C94D1006C
:1000D0000C94D1000C94D1000C94D1000C94D1005C
:1000E0000C94D1000C9445020C9492050C949E053E
:1000F0000C942D020C94B6050C9439020C94F80261
:100100000C9450030C94F2050C9462050C94DC02E0
:100110000C947A050C9427020C94CB020C9486055F
:100120000C94C2030C94CE050C9433020C94E60597
:100130000C9456050C946E050C943F020C9421020D
:100140000C944B020C94AA050C944A050C94C2051D
:100150000C9451020C9436030C949B030C94DA0516
:1001600011241FBECFEFD1E2DEBFCDBF00E00CBF38
:1001700012E0A0E0B2E0ECEBF1E100E00BBF02C066
:1001800007900D92A636B107D9F722E0A6E6B2E0B5
:1001900001C01D92AC36B207E1F70E94B0020C9488
:1001A000BD080C9400001F920F920FB60F921124FD
:1001B0000BB60F922F933F934F935F936F937F9361
:1001C0008F939F93AF93BF93CF93DF93EF93FF935F
:1001D000489B20C0489B18C0C1E0D1E004C0489BA8
:1001E0000EC0489B11C09D9888818F7B888380E0DA
:1001F0000E940A04489BF3CF0E943708F2CFF8947C
:1002000088E180936000FFCF9D9AE1E0F1E080817A
:1002100080648083FF91EF91DF91CF91BF91AF9187
:100220009F918F917F916F915F914F913F912F910E
:100230000F900BBE0F900FBE0F901F901895509807
:10024000E9E6F0E0808183608083E89A089589B1CF
:100250008170089581B1877E81B982B1886182B948
:100260005198599A08950E941F010E942A010895E9
:1002700080B183FB882780F991E08927089580B1B8
:100280008295817091E08927089589B18695817062
:1002900091E0892708959C0140E050E060E472E419
:1002A0008FE090E00E946008215031093093C50032
:1002B0002093C40088E18093C10086E08093C2004F
:1002C00008959C0140E050E060E472E48FE090E02B
:1002D0000E946008215031093093CD002093CC005A
:1002E00088E18093C90086E08093CA000895E0EC1D
:1002F000F0E0908195FFFDCF8093C6000895CF93E5
:10030000DF93C82FD92F8881882331F021960E944E
:10031000770189918111FBCFDF91CF9108951F93D0
:10032000CF93DF93CDB7DEB761970FB6F894DEBFFA
:100330000FBECDBF182F81E1E1E2F2E0DE011196A0
:1003400001900D928A95E1F7812F82958F70E1E0FF
:10035000F0E0EC0FFD1FE80FF11D80810E94770196
:100360001F70E1E0F0E0EC0FFD1FE10FF11D808157
:100370000E94770161960FB6F894DEBF0FBECDBF25
:10038000DF91CF911F9108950F931F93CF93DF9328
:10039000082F162FD42FC22F82E392E00E947F01F4
:1003A000802F0E948F0180E20E947701812F0E949E
:1003B0008F0180E20E9477018D2F0E948F0180E2E1
:1003C0000E9477018C2F0E948F0182E692E00E94AA
:1003D0007F01E8ECF0E0908195FFFDCF0093CE0027
:1003E000E8ECF0E0908195FFFDCF1093CE00E8ECB3
:1003F000F0E0908195FFFDCFD093CE00E8ECF0E0E7
:10040000908195FFFDCFC093CE008DE492E00E94D5
:100410007F01DF91CF911F910F910895E8ECF0E0FB
:1004200080818823ECF78091CE000895E82FF92F82
:10043000242F0997D8F58827E154F74F8F4F0C9454
:10044000A108462F60E881E00E94C4010895462F6C
:100450006FEF81E00E94C4010895462F60E081E0C3
:100460000E94C4010895462F6EE781E00E94C401F6
:100470000895462F6FE781E00E94C4010895462F3A
:1004800061E082E00E94C4010895462F62E082E0AC
:100490000E94C4010895462F61E083E00E94C401D8
:1004A0000895462F62E083E00E94C40108951092EF
:1004B00080008BE08093810088EA91E69093890028
:1004C0008093880008950E94570208950E94330186
:1004D0000E9403070E9457020E94FB03789480E861
:1004E00095E20E944B0180E895E20E946101089527
:1004F000282F392F2F3F3207C9F0809100029091A9
:1005000001028F3F980791F018161906DCF4B19B91
:1005100025C082E086BB8091000290910102019784
:10052000909301028093000280E0089530930102CD
:100530002093000282E086BB109285001092840016
:1005400080E00895892B11F080E008958FEF9FEFF0
:10055000909301028093000281E0089580E0089565
:100560000E946602212C0F2EFAE58F2E912CF02D81
:10057000A12CB12CC12CD12C312CC0E0D0E001E059
:1005800010E0EE24E394F12C612C712C6894442447
:1005900041F8512C17C00E943F01882319F00E9496
:1005A000940710C00E943801882319F00E940D089A
:1005B00009C00E94F80706C00E9417070E94450163
:1005C00081110AC007301105E8F7F8018827E853C0
:1005D000F74F8F4F0C94A10885E090E00E947802BD
:1005E000811103C00E94F807F7CF042D152DEACF23
:1005F000C130D10591F0C230D10549F1209711F7F2
:100600004FEF6FEF8E2D9F2D0E9416028FEF9FEF01
:100610000E947802CE2DDF2DD5CFB601C5010E94F4
:100620008506C4010E947802811109C00E94380128
:10063000882341F2C62DD72D03E010E0C3CF4FEF42
:1006400060E28E2D9F2D0E941602E801EFCFB601C9
:10065000C5010E9485060E9438018E01882309F495
:10066000B1CFC62DD72D03E010E0ACCFC130D105FE
:1006700049F04FEF6FEF83E090E00E941602CE2D1D
:10068000DF2DA0CFB601C5010E9485060E940E0293
:10069000813009F097CFC62DD72D06E010E092CF1C
:1006A000C130D10579F0C230D10569F1209709F048
:1006B00089CF4FEF60E18E2D9F2D0E941602CE2D27
:1006C000DF2D80CFB601C5010E9485060E943F0143
:1006D000811177C087E090E00E947802882309F4B6
:1006E00071CF8FEF9FEF0E9478024FEF6FEF84E0A2
:1006F00090E00E941602211077C08FEFC81AD80A26
:10070000C2E0D0E05FCFB601C5010E9485068AE055
:1007100090E00E947802882309F454CFC0E0D0E032
:1007200005E010E031104ECF33243394C0E0D0E028
:1007300004E010E047CFC130D10549F04FEF6FEF33
:1007400087E090E00E941602CE2DDF2D3BCF0E9465
:100750007F070E940E02813009F034CF4FEF6FEF18
:1007600084E090E00E9416028FEF9FEF0E947802D3
:100770000F2EF6E48F2E912CF02DC0E0D0E002E099
:1007800010E020CFC130D10549F40E940D084FEF91
:100790006FEF84E090E00E94160214CF4FEF6FEFEE
:1007A00084E090E00E9416020E940D088FEF9FEFF8
:1007B0000E9478020E9432058111FCCFCE2DDF2DE0
:1007C00001CF87E090E00E947802222423948823BE
:1007D00009F4F8CE8FEF9FEF0E9478024FEF6FEF92
:1007E00084E090E00E9416028FEFA81AB80A212C2C
:1007F000C2E0D0E0E7CE6D98759A82E080939000D9
:1008000089E1809391008EE195E090939D00809323
:100810009C000895882339F06D9AE0E9F0E080812A
:100820008C60808308956D98E0E9F0E08081837F9B
:10083000808308959C01990F440B550B60E074E28E
:1008400084EF90E00E948208C9010895EF92FF9220
:100850000F931F93CF93DF93C82FD92FCB01E42E93
:10086000F52E022F132F0E947802811122C09E01C3
:10087000DD0F440B550B60E074E284EF90E00E94C2
:10088000820830939700209396002FE832E0E29E92
:10089000C001E39E900DF29E900D112490939D0057
:1008A00080939C00DF91CF911F910F91FF90EF906B
:1008B0000895F80180819181019691838083F2CF20
:1008C00080916A0290916B02892BD9F080916A0223
:1008D00090916B028330910509F443C034F5813067
:1008E000910599F18230910581F42AE632E04AE0DF
:1008F00050E061E070E08AE691E00E94260481E029
:10090000089581E00E940A04E1CF892B61F42AE670
:1009100032E04AE050E061E070E08CEE91E00E944D
:10092000260481E0089581E008958430910529F13D
:10093000059749F480E00E940A0410926B0210921D
:100940006A0280E0089581E008952AE632E040E0FE
:1009500050E061E070E08EEA91E00E94260481E0C0
:1009600008952AE632E04AE050E061E070E08FE668
:1009700092E00E94260481E008952AE632E040E0F9
:1009800050E061E070E08FE692E00E94260481E092
:1009900008958091680290916902892BD9F0809125
:1009A0006802909169028330910509F443C034F5DF
:1009B0008130910599F18230910581F428E632E089
:1009C00041E050E063E070E08AE891E00E94260494
:1009D00081E0089581E00E940A04E1CF892B61F44F
:1009E00028E632E041E050E063E070E08EEA91E01A
:1009F0000E94260481E0089581E0089584309105E5
:100A000029F1059749F480E00E940A0410926902D6
:100A10001092680280E0089581E0089528E632E0AF
:100A200040E050E062E070E08EEA91E00E9426042F
:100A300081E0089528E632E041E050E067E070E0B0
:100A40008AE691E00E94260481E0089528E632E0DB
:100A500040E050E06EE170E08FE692E00E942604F4
:100A600081E008958091660290916702892B71F070
:100A7000E0916602F0916702EF30F10508F0BBC02B
:100A80008827E153F74F8F4F0C94A10881E00E9413
:100A90000A04EECF26E632E041E050E061E070E08B
:100AA0008FE692E00E94260481E0089526E632E077
:100AB00041E050E061E070E082E592E00E942604AF
:100AC00081E0089526E632E041E050E062E070E027
:100AD0008EEA91E00E94260481E0089526E632E045
:100AE00041E050E062E070E081EC91E00E94260479
:100AF00081E0089526E632E041E050E061E070E0F8
:100B000082E592E00E94260481E0089526E632E024
:100B100041E050E061E070E08CE192E00E94260448
:100B200081E0089526E632E041E050E062E070E0C6
:100B30008AE691E00E94260481E0089526E632E0EC
:100B400041E050E062E070E08AE891E00E94260413
:100B500081E0089526E632E041E050E061E070E097
:100B60008CE192E00E94260481E0089526E632E0BE
:100B700041E050E061E070E08CEE91E00E942604DC
:100B800081E0089526E632E041E050E062E070E066
:100B90008AE691E00E94260481E0089526E632E08C
:100BA00041E050E062E070E08AE891E00E942604B3
:100BB00081E0089526E632E041E050E065E070E033
:100BC0008EEA91E00E94260481E0089526E632E054
:100BD00040E050E065E070E08AE691E00E94260483
:100BE00081E0089580E00E940A041092670210924A
:100BF000660280E0089581E00895EAE0F1E08081F6
:100C000080688083EBE0F1E0808180688083808170
:100C10008062808380818F7780830895EAE0F1E0AD
:100C2000808180688083EBE0F1E080818F7D80832C
:100C30008081806280838081806880830895EAE07B
:100C4000F1E090819068908328E030E0EBE0F1E003
:100C50000CC090819F77908390819062908386955D
:100C6000215031092115310549F090819F7D9083F4
:100C700080FFEFCF908190689083EECFEBE0F1E0C2
:100C800080818F7D80838081806280830895CF936F
:100C9000C82F0E94FD058C2F877088680E941F0650
:100CA0000E940E06CF910895EF92FF921F93CF936B
:100CB000DF93D82FC92F0E94FD0580E40E941F06F4
:100CC0000E940E0613EC0F2EFAE0EF2EF12CF02D01
:100CD0000E94FD05812F0E941F068D2F9C2FB701BA
:100CE0000E944C08D62FC72FFC01EA5EFD4F808181
:100CF0000E941F060E940E0611501F3B49F7DF910C
:100D0000CF911F91FF90EF900895EF92FF920F9374
:100D10001F93CF93DF9300D000D00F920F92CDB7E7
:100D2000DEB7E82EF92E84E6E816F1042CF00F2E3B
:100D3000F3E6EF2EF12CF02DFF200CF447C0062F28
:100D4000172F0436110514F003E610E011230CF4FC
:100D500040C00E94FD0580E40E941F060E940E060E
:100D60002AE030E0C701B9010E944C087A83698308
:100D70009C838B83C801B9010E944C087E836D83DC
:100D800098878F83DE0111967D0110EC0E94FD058E
:100D9000812F0E941F06D701ED91FD917D01EA5E32
:100DA000FD4F80810E941F060E940E061F5F143CAB
:100DB00069F728960FB6F894DEBF0FBECDBFDF915E
:100DC000CF911F910F91FF90EF900895E12CF12C9E
:100DD000B6CF00E010E0BDCF1F93CF93DF93C82FB5
:100DE000D92F162F0E94FD0580EC810F0E941F064F
:100DF000CE5FDD4F88810E941F060E940E06DF91A4
:100E0000CF911F910895EAE0F1E0808180688083AE
:100E1000808180628083EBE0F1E080818068808364
:100E200080818062808382E00E944706089560E0AE
:100E300083E190E00E94EC0661E083E090E00E9494
:100E4000EC0662E086E090E00E94EC0663E087E05A
:100E500090E00E94EC06089584E090E00E94540621
:100E600061E081E090E00E94EC0662E085E090E0C5
:100E70000E94EC0663E088E090E00E94EC06089592
:100E800060E081E190E00E94EC0661E088E090E0A3
:100E90000E94EC0662E087E090E00E94EC0663E0CE
:100EA0008BE090E00E94EC06089560E083E190E022
:100EB0000E94EC0661E086E090E00E94EC0662E0B1
:100EC0008DE090E00E94EC0663E08BE090E00E94F1
:100ED000EC06089560E083E190E00E94EC0661E09A
:100EE00083E090E00E94EC0662E08CE090E00E94DB
:100EF000EC0663E081E190E00E94EC06089560E07A
:100F000081E190E00E94EC0661E082E190E00E94C5
:100F1000EC0662E08FE090E00E94EC0663E08CE07B
:100F200090E00E94EC06089560E084E090E00E946A
:100F3000EC0661E089E090E00E94EC0662E080E16E
:100F400090E00E94EC0663E081E190E00E94EC06F4
:100F5000089560E083E190E00E94EC0661E08EE09D
:100F600090E00E94EC0662E081E090E00E94EC06D6
:100F700063E083E090E00E94EC060895882319F076
:100F80000E94550708950E94A907089560E08BE02C
:100F900090E00E94EC0661E085E090E00E94EC06A3
:100FA00062E086E090E00E94EC0663E081E190E080
:100FB0000E94EC06089560E08FE090E00E94EC064D
:100FC00061E087E090E00E94EC0662E088E090E05B
:100FD0000E94EC0663E081E190E00E94EC06089537
:100FE000882319F00E94DB0708950E94C607089520
:100FF00060E083E190E00E94EC0661E083E190E034
:101000000E94EC0662E087E090E00E94EC0663E05C
:101010008DE090E00E94EC06089560E083E190E0AE
:101020000E94EC0661E085E090E00E94EC0662E040
:101030008CE090E00E94EC0663E084E090E00E9487
:10104000EC06089560E080E190E00E94EC0661E02B
:101050008FE090E00E94EC0662E083E090E00E9466
:10106000EC0663E088E090E00E94EC06089560E002
:1010700080E190E00E94EC0661E081E190E00E9456
:10108000EC0662E08DE090E00E94EC0663E08EE00A
:1010900090E00E94EC06089597FB072E16F400944A
:1010A00007D077FD09D00E94A90807FC05D03EF4BF
:1010B000909581959F4F0895709561957F4F089504
:1010C000A1E21A2EAA1BBB1BFD010DC0AA1FBB1F4C
:1010D000EE1FFF1FA217B307E407F50720F0A21BBE
:1010E000B30BE40BF50B661F771F881F991F1A942B
:1010F00069F760957095809590959B01AC01BD0155
:10110000CF010895052E97FB1EF400940E949908C4
:1011100057FD07D00E94600807FC03D04EF40C94E2
:10112000990850954095309521953F4F4F4F5F4F0F
:10113000089590958095709561957F4F8F4F9F4F43
:101140000895EE0FFF1F881F8BBF0790F691E02DCB
:101150001994AA1BBB1B51E107C0AA1FBB1FA617EE
:10116000B70710F0A61BB70B881F991F5A95A9F750
:1011700080959095BC01CD010895F894FFCF210290
:1011800027022D02330239023F0245024B0251026F
:10119000CB02DC02F80250039B033603C2034A056C
:1011A000560562056E057A05860592059E05AA0517
:0C11B000B605C205CE05DA05E605F2051D
:1011BC00FFFF40777C395E79713D74060E38373FFE
:1011CC0073316D783E003F065B4F666D7D077F6F18
:1011DC0000303132333435363738394142434445A7
:1011EC0046004D41535445523A2053656E64696E26
:1011FC006720746F20536C6176653A20004D415323
:10120C005445523A20436F6D6D616E642073656E68
:06121C00742E0D0A000013
:00000001FF
