:100000000C94A2000C94F4000C94C3000C94C30054
:100010000C94C3000C94C3000C94C3000C94C30054
:100020000C94C3000C94C3000C94C3000C94C30044
:100030000C94C3000C94C3000C94C3000C94C30034
:100040000C94C3000C94C3000C94C3000C94C30024
:100050000C94C3000C94C3000C94C3000C94C30014
:100060000C94C3000C94C3000C94C3000C94C30004
:100070000C94C3000C94C3000C94C3000C94C300F4
:100080000C94C3000C94C3000C94C3000C94C300E4
:100090000C94C3000C94C3000C94C3000C94C300D4
:1000A0000C94C3000C94C3000C94C3000C94C300C4
:1000B0000C94C3000C94C3000C94C3000C94C300B4
:1000C0000C94C3000C94C3000C94C3000C94C300A4
:1000D0000C94C3000C94C3000C94C3000C94C30094
:1000E0000C94C3000C9499050C9469050C94C905F3
:1000F0000C9451050C940C020C9481050C94EE01A7
:100100000C94F9050C9406020C9412020C945D05F3
:100110000C94F4010C94FA010C948D050C94750563
:100120000C94E1050C94D5050C9400020C94ED059B
:100130000C94A5050C94B1050C94E8010C94E20113
:100140000C94BD0511241FBECFEFD1E2DEBFCDBFA1
:1001500000E00CBF12E0A0E0B2E0E6EEF1E100E06A
:100160000BBF02C007900D92A636B107D9F722E067
:10017000A6E6B2E001C01D92AC36B207E1F70E94DC
:1001800071020C94D9080C9400005098589A089A5F
:10019000109AE9E6F0E0808183608083E89A089510
:1001A00089B18170089581B1877E81B982B18861FA
:1001B00082B95198599A08950E94C5000E94D300AF
:1001C000089580B183FB882780F991E089270895FD
:1001D00080B18295817091E08927089589B18695D3
:1001E000817091E0892708951F920F920FB60F92A8
:1001F000112402C00E945308109880E00E9411044C
:100200004899F8CF0E94EE008823B1F3109AF89431
:1002100088E180936000FFCF9C0140E050E060E403
:1002200072E48FE090E00E947C0821503109309305
:10023000C5002093C40088E18093C10086E08093CC
:10024000C20008959C0140E050E060E472E48FE059
:1002500090E00E947C08215031093093CD0020931A
:10026000CC0088E18093C90086E08093CA0008959D
:10027000E0ECF0E0908195FFFDCF8093C6000895FB
:10028000CF93DF93C82FD92F8881882331F021960F
:100290000E94380189918111FBCFDF91CF910895A0
:1002A0001F93CF93DF93CDB7DEB761970FB6F89466
:1002B000DEBF0FBECDBF182F81E1E1E2F2E0DE012B
:1002C000119601900D928A95E1F7812F82958F709A
:1002D000E1E0F0E0EC0FFD1FE80FF11D80810E94CE
:1002E00038011F70E1E0F0E0EC0FFD1FE10FF11DA0
:1002F00080810E94380161960FB6F894DEBF0FBE70
:10030000CDBFDF91CF911F9108950F931F93CF938E
:10031000DF93082F162FD42FC22F82E392E00E9482
:100320004001802F0E94500180E20E943801812FFD
:100330000E94500180E20E9438018D2F0E945001DE
:1003400080E20E9438018C2F0E94500182E692E0E8
:100350000E944001E8ECF0E0908195FFFDCF009312
:10036000CE00E8ECF0E0908195FFFDCF1093CE0039
:10037000E8ECF0E0908195FFFDCFD093CE00E8EC63
:10038000F0E0908195FFFDCFC093CE008DE492E028
:100390000E944001DF91CF911F910F910895E8ECE9
:1003A000F0E080818823ECF78091CE000895E82F5B
:1003B000F92F242F0997D8F58827E552F74F8F4F4B
:1003C0000C94BD08462F60E881E00E9485010895E5
:1003D000462F6FEF81E00E9485010895462F60E06F
:1003E00081E00E9485010895462F6EE781E00E941A
:1003F00085010895462F6FE781E00E9485010895E9
:10040000462F61E082E00E9485010895462F62E058
:1004100082E00E9485010895462F61E083E00E94FA
:1004200085010895462F62E083E00E9485010895CA
:10043000109280008BE08093810088EA91E690938F
:1004400089008093880008950E94180208950E94F0
:10045000DC000E940A070E9418020E94020478949D
:1004600080E895E20E940C0180E895E20E9422015A
:100470000895282F392F2F3F3207C9F080910002AD
:10048000909101028F3F980791F018161906DCF43D
:10049000B19B25C082E086BB809100029091010251
:1004A0000197909301028093000280E008953093B9
:1004B00001022093000282E086BB10928500109218
:1004C000840080E00895892B11F080E008958FEF7B
:1004D0009FEF909301028093000281E0089580E0F5
:1004E00008950E942702712C0F2EF0E5AF2EB12C3B
:1004F000F02DE12CF12C00E010E0212CC0E0D0E048
:1005000088248394912C412C312C55245394612CB4
:100510000F2EF8ECCF2ED12CF02D32C0C0E0D0E061
:100520000F2EF5E08F2E912CF02D2AC0F1E08F16C2
:10053000910431F50E941E070E94EE00882301F10C
:1005400042C085E08816910409F48DC0E6E08E165D
:100550009104B1F4C130D10509F43AC14FEF6FEF06
:1005600084E090E00E94D7010E9429088FEF9FEF5E
:100570000E9439020E9439058111FCCFC52DD62D6C
:10058000E4E08E16910409F4EBC0D8F682E08816F8
:10059000910421F1E3E08E16910441F6C130D105BA
:1005A00009F47EC0C230D10509F4B0C0209741F7EC
:1005B0004FEF60E1852D962D0E94D701C52DD62DD8
:1005C000DFCF0E94140885E090E00E943902882362
:1005D000C1F36894882481F8912CD2CFC130D10521
:1005E00091F0C230D10569F1209751F68FEF9FEF5E
:1005F0000E9439024FEF6FEF852D962D0E94D70193
:10060000C52DD62DBDCFB801C7010E948C06C501EE
:100610000E94390281110DC00E94E100882309F473
:10062000AFCFC42DD32D0F2EF3E08F2E912CF02DB4
:10063000A7CF4FEF60E2852D962D0E94D701E401F0
:10064000EBCFB801C7010E948C060E94E1004E0169
:10065000882309F495CFC42DD32D0F2EF3E08F2ED0
:10066000912CF02D8DCFC130D10549F04FEF6FEFB8
:1006700083E090E00E94D701C52DD62D81CFB8012F
:10068000C7010E948C060E94CF01813009F078CF0B
:10069000C42DD32D0F2EF6E08F2EF02D912C70CF80
:1006A000B801C7010E948C060E94E800811193C026
:1006B00087E090E00E943902882309F461CF8FEF30
:1006C0009FEF0E9439024FEF6FEF84E090E00E94AD
:1006D000D701711093C00F5F1F4F10C0B801C70141
:1006E0000E948C060E94D004782E8111F7CFC2E0C0
:1006F000D0E046CFB801C7010E948C060E94670473
:10070000782E8111F7CFC2E0D0E03ACFB801C7010F
:100710000E948C0686E090E00E943902882309F44A
:100720002FCF211009C022242394C42DD32D6894E7
:10073000882482F8912C24CF8091C80088230CF063
:10074000EDCEC8ECD0E00E94CF0188818823DCF395
:10075000C0E0D0E00F2EF5E08F2E912CF02D10CFC1
:10076000C130D10561F0C230D10539F14FEF6FEFE3
:1007700087E090E00E94D701C52DD62D01CF0E94C1
:100780009B07F601808188230CF0FACE0E94CF01EE
:10079000813009F0F5CE4FEF6FEF84E090E00E94DA
:1007A000D7018FEF9FEF0E9439020F2EF7E3AF2E94
:1007B000B12CF02DC2E0D0E0E3CE82E090E00E94C8
:1007C0003902882309F4DCCE4E01C42DD32DD8CEB6
:1007D0000E942908D5CE87E090E00E943902772454
:1007E0007394882309F4CCCE8FEF9FEF0E943902D7
:1007F0004FEF6FEF84E090E00E94D701FFEFEF1A18
:10080000FF0A70CF6D98759A82E08093900089E11D
:10081000809391008EE195E090939D0080939C00E1
:100820000895882339F06D9AE0E9F0E080818C60CA
:10083000808308956D98E0E9F0E08081837F808374
:1008400008959C01990F440B550B60E074E284EF0E
:1008500090E00E949E08C9010895EF92FF920F93C5
:100860001F93CF93DF93C82FD92FCB01E42EF52E02
:10087000022F132F0E943902811122C09E01DD0F29
:10088000440B550B60E074E284EF90E00E949E08F8
:1008900030939700209396002FE832E0E29EC0014B
:1008A000E39E900DF29E900D112490939D008093F5
:1008B0009C00DF91CF911F910F91FF90EF900895D1
:1008C000F80180819181019691838083F2CF80919C
:1008D0006A0290916B02892BD9F080916A02909103
:1008E0006B028330910509F443C034F581309105E2
:1008F00099F18230910581F42AE632E044E150E03A
:1009000061E070E08AE691E00E942D0481E00895A4
:1009100081E00E941104E1CF892B61F42AE632E0E4
:1009200044E150E061E070E08CEE91E00E942D0423
:1009300081E0089581E008958430910529F10597BB
:1009400049F480E00E94110410926B0210926A0236
:1009500080E0089581E008952AE632E040E050E02A
:1009600061E070E08EEA91E00E942D0481E008953C
:100970002AE632E044E150E061E070E08FE692E088
:100980000E942D0481E008952AE632E040E050E024
:1009900061E070E08FE692E00E942D0481E008950E
:1009A0008091680290916902892BD9F08091680248
:1009B000909169028330910509F443C034F5813088
:1009C000910599F18230910581F428E632E044E105
:1009D00050E063E070E08AE891E00E942D0481E03D
:1009E000089581E00E941104E1CF892B61F428E68B
:1009F00032E044E150E063E070E08EEA91E00E9472
:100A00002D0481E0089581E008958430910529F155
:100A1000059749F480E00E94110410926902109237
:100A2000680280E0089581E0089528E632E040E021
:100A300050E062E070E08EEA91E00E942D0481E0D7
:100A4000089528E632E044E150E067E070E08AE68D
:100A500091E00E942D0481E0089528E632E040E014
:100A600050E061E070E08FE692E00E942D0481E0AA
:100A700008958091660290916702892B71F0E09150
:100A80006602F0916702EF30F10508F0BBC08827DD
:100A9000EC51F74F8F4F0C94BD0881E00E94110478
:100AA000EECF26E632E044E150E061E070E08FE610
:100AB00092E00E942D0481E0089526E632E044E1B0
:100AC00050E061E070E082E592E00E942D0481E058
:100AD000089526E632E044E150E062E070E08EEAFC
:100AE00091E00E942D0481E0089526E632E044E181
:100AF00050E062E070E081EC91E00E942D0481E022
:100B0000089526E632E044E150E061E070E082E5DD
:100B100092E00E942D0481E0089526E632E044E14F
:100B200050E061E070E08CE192E00E942D0481E0F1
:100B3000089526E632E044E150E062E070E08AE6A3
:100B400091E00E942D0481E0089526E632E044E120
:100B500050E062E070E08AE891E00E942D0481E0BC
:100B6000089526E632E044E150E061E070E08CE177
:100B700092E00E942D0481E0089526E632E044E1EF
:100B800050E061E070E08CEE91E00E942D0481E085
:100B9000089526E632E044E150E062E070E08AE643
:100BA00091E00E942D0481E0089526E632E044E1C0
:100BB00050E062E070E08AE891E00E942D0481E05C
:100BC000089526E632E044E150E065E070E08EEA08
:100BD00091E00E942D0481E0089526E632E040E095
:100BE00050E065E070E08AE691E00E942D0481E02B
:100BF000089580E00E94110410926702109266022C
:100C000080E0089581E00895EAE0F1E08081806865
:100C10008083EBE0F1E08081806880838081806266
:100C2000808380818F7780830895EAE0F1E080817E
:100C300080688083EBE0F1E080818F7D808380811C
:100C4000806280838081806880830895EAE0F1E09B
:100C500090819068908328E030E0EBE0F1E00CC0F8
:100C600090819F77908390819062908386952150A8
:100C700031092115310549F090819F7D908380FFD6
:100C8000EFCF908190689083EECFEBE0F1E0808130
:100C90008F7D80838081806280830895CF93C82F69
:100CA0000E9404068C2F877088680E9426060E9486
:100CB0001506CF910895EF92FF921F93CF93DF9384
:100CC000D82FC92F0E94040680E40E9426060E94A5
:100CD000150613EC0F2EFAE0EF2EF12CF02D0E94EA
:100CE0000406812F0E9426068D2F9C2FB7010E949B
:100CF0006808D62FC72FFC01EA5EFD4F80810E9455
:100D000026060E94150611501F3B49F7DF91CF912F
:100D10001F91FF90EF900895EF92FF920F931F9312
:100D2000CF93DF9300D000D00F920F92CDB7DEB7F4
:100D3000E82EF92E84E6E816F1042CF00F2EF3E6E7
:100D4000EF2EF12CF02DFF200CF447C0062F172FAB
:100D50000436110514F003E610E011230CF440C032
:100D60000E94040680E40E9426060E9415062AE0DE
:100D700030E0C701B9010E9468087A8369839C83C7
:100D80008B83C801B9010E9468087E836D839887B0
:100D90008F83DE0111967D0110EC0E940406812FE5
:100DA0000E942606D701ED91FD917D01EA5EFD4F7F
:100DB00080810E9426060E9415061F5F143C69F779
:100DC00028960FB6F894DEBF0FBECDBFDF91CF914E
:100DD0001F910F91FF90EF900895E12CF12CB6CF69
:100DE00000E010E0BDCF1F93CF93DF93C82FD92F22
:100DF000162F0E94040680EC810F0E942606CE5F0B
:100E0000DD4F88810E9426060E941506DF91CF9152
:100E10001F910895EAE0F1E08081806880838081FD
:100E200080628083EBE0F1E0808180688083808154
:100E30008062808382E00E944E06089560E08EE02A
:100E400090E00E94F30661E082E190E00E94F306E8
:100E500062E080E190E00E94F30663E088E090E0C9
:100E60000E94F306089560E083E190E00E94F3069B
:100E700061E083E090E00E94F30662E086E090E0AB
:100E80000E94F30663E087E090E00E94F306089575
:100E900084E090E00E945B0661E081E090E00E94C7
:100EA000F30662E085E090E00E94F30663E088E0EC
:100EB00090E00E94F306089560E081E190E00E94D6
:100EC000F30661E088E090E00E94F30662E087E0CC
:100ED00090E00E94F30663E08BE090E00E94F3064E
:100EE000089560E083E190E00E94F30661E086E00F
:100EF00090E00E94F30662E08DE090E00E94F3062D
:100F000063E08BE090E00E94F306089560E083E1E7
:100F100090E00E94F30661E083E090E00E94F30617
:100F200062E08CE090E00E94F30663E081E190E0F3
:100F30000E94F306089560E081E190E00E94F306CC
:100F400061E082E190E00E94F30662E08FE090E0D1
:100F50000E94F30663E08CE090E00E94F30608959F
:100F600060E084E090E00E94F30661E089E090E0B8
:100F70000E94F30662E080E190E00E94F30663E0E5
:100F800081E190E00E94F306089560E083E190E043
:100F90000E94F30661E08EE090E00E94F30662E0BA
:100FA00081E090E00E94F30663E083E090E00E941D
:100FB000F3060895882319F00E94710708950E948E
:100FC000C507089560E08BE090E00E94F30661E0C1
:100FD00085E090E00E94F30662E086E090E00E94E7
:100FE000F30663E081E190E00E94F306089560E07B
:100FF0008FE090E00E94F30661E087E090E00E94BD
:10100000F30662E088E090E00E94F30663E081E18D
:1010100090E00E94F3060895882319F00E94F707D4
:1010200008950E94E207089560E083E190E00E9445
:10103000F30661E083E190E00E94F30662E087E05E
:1010400090E00E94F30663E08DE090E00E94F306DA
:10105000089560E083E190E00E94F30661E085E09E
:1010600090E00E94F30662E08CE090E00E94F306BC
:1010700063E084E090E00E94F306089560E080E180
:1010800090E00E94F30661E08FE090E00E94F3069A
:1010900062E083E090E00E94F30663E088E090E085
:1010A0000E94F306089560E080E190E00E94F3065C
:1010B00061E081E190E00E94F30662E08DE090E063
:1010C0000E94F30663E08EE090E00E94F30608952C
:1010D00097FB072E16F4009407D077FD09D00E94E5
:1010E000C50807FC05D03EF4909581959F4F089563
:1010F000709561957F4F0895A1E21A2EAA1BBB1B24
:10110000FD010DC0AA1FBB1FEE1FFF1FA217B307D3
:10111000E407F50720F0A21BB30BE40BF50B661FE9
:10112000771F881F991F1A9469F7609570958095AD
:1011300090959B01AC01BD01CF010895052E97FB51
:101140001EF400940E94B50857FD07D00E947C0849
:1011500007FC03D04EF40C94B5085095409530959B
:1011600021953F4F4F4F5F4F089590958095709513
:1011700061957F4F8F4F9F4F0895EE0FFF1F881F80
:101180008BBF0790F691E02D1994AA1BBB1B51E170
:1011900007C0AA1FBB1FA617B70710F0A61BB70BE7
:1011A000881F991F5A95A9F780959095BC01CD018C
:1011B0000895F894FFCFE201E801EE01F401FA018D
:1011C000000206020C02120251055D056905750553
:1011D00081058D059905A505B105BD05C905D5058F
:0611E000E105ED05F90533
:1011E600FFFF40777C395E79713D74060E38373FD4
:1011F60073316D783E003F065B4F666D7D077F6FEE
:10120600003031323334353637383941424344457C
:1012160046004D41535445523A2053656E64696EFB
:101226006720746F20536C6176653A20004D4153F8
:101236005445523A20436F6D6D616E642073656E3E
:06124600742E0D0A0000E9
:00000001FF
