:100000000C94A2000C948A010C94C3000C94C300BD
:100010000C94C3000C94C3000C94C3000C94C30054
:100020000C94C3000C94C3000C94C3000C94C30044
:100030000C94C3000C94C3000C94C3000C94AF093F
:100040000C94C3000C94C3000C94C3000C94C30024
:100050000C94C3000C94C3000C94C3000C9470095E
:100060000C94C3000C94C3000C94C3000C94C30004
:100070000C94C3000C94C3000C94C3000C94C300F4
:100080000C94C3000C94C3000C94C3000C94C300E4
:100090000C94C3000C94C3000C94C3000C94C300D4
:1000A0000C94C3000C94FB020C94C3000C94C3008A
:1000B0000C94C3000C94C3000C944F030C94C30025
:1000C0000C94C3000C94C3000C94EE090C94C30070
:1000D0000C94C3000C94C3000C94C3000C94C30094
:1000E0000C94C3000C9441090C94BD080C94E902D3
:1000F0000C94ED080C94D5080C94D1020C940509CD
:100100000C94DD020C9429090C941D090C94CB026B
:100110000C94E1080C94F9080C94C9080C94590942
:100120000C944D090C94D7020C94E3020C94C50274
:100130000C94EF020C9435090C9465090C94110988
:100140000C94F50211241FBECFEFD1E2DEBFCDBF6C
:1001500000E00CBF12E0A0E0B2E0E2E9F0E200E073
:100160000BBF02C007900D92AA36B107D9F722E063
:10017000AAE6B2E001C01D92A33AB207E1F70E94DD
:1001800069070C942F100C940000EAE0F1E08081E4
:10019000877F808380818B7F8083EBE0F1E08081AB
:1001A00088608083808184608083089552985A9A01
:1001B0008198599A53985B9A08955098E9E6F0E02F
:1001C000808183608083E89A08958091090183FB90
:1001D000882780F991E0892708958091090182FBA1
:1001E000882780F991E08927089589B182FB8827C3
:1001F00080F991E08927089589B18695817091E011
:100200008927089589B183FB882780F991E08927A0
:10021000089589B1817008950E94F5008823A9F09E
:1002200080916E0290916F02892B11F080E0089509
:100230008FE39CE90197F1F700C0000081E090E0B6
:1002400090936F0280936E02089520916E02309118
:100250006F02232B61F3EFE3FCE93197F1F700C064
:10026000000010926F0210926E0208950E94FC002E
:100270008823A9F080916C0290916D02892B11F076
:1002800080E008958FE39CE90197F1F700C000003A
:1002900081E090E090936D0280936C02089520912C
:1002A0006C0230916D02232B61F3EFE3FCE931978F
:1002B000F1F700C0000010926D0210926C020895D8
:1002C0000E9402018823A9F080916A0290916B023A
:1002D000892B11F080E008958FE39CE90197F1F7F5
:1002E00000C0000081E090E090936B0280936A026E
:1002F000089520916A0230916B02232B61F3EFE3A2
:10030000FCE93197F1F700C0000010926B021092E7
:100310006A0208951F920F920FB60F9211240BB626
:100320000F922F933F934F935F936F937F938F938E
:100330009F93AF93BF93CF93DF93EF93FF93C1E06E
:10034000D1E0489920C0FF91EF91DF91CF91BF910B
:10035000AF919F918F917F916F915F914F913F915D
:100360002F910F900BBE0F900FBE0F901F901895FE
:100370009D9888818F7B888380E00E947D07489BC1
:100380000FC00E94690E0E940C01882389F34899CE
:10039000EFCF9D9AE1E0F1E0808180648083D3CF4C
:1003A0000E946001882379F34899EDCFF89488E1A1
:1003B00080936000FFCF882311F05F9808955F9AC3
:1003C0000895579A80E00E94DB0108950E94C500BD
:1003D0000E94D6000E94DD000E94E10108959C0168
:1003E00040E050E060E472E48FE090E00E94920E02
:1003F000215031093093C5002093C40088E18093D7
:10040000C10086E08093C20008959C0140E050E066
:1004100060E472E48FE090E00E94920E2150310976
:100420003093CD002093CC0088E18093C90086E012
:100430008093CA000895E0ECF0E0908195FFFDCF35
:100440008093C6000895CF93DF93C82FD92F88815A
:10045000882331F021960E941B0289918111FBCFE4
:10046000DF91CF9108951F93CF93DF93CDB7DEB780
:1004700061970FB6F894DEBF0FBECDBF182F81E194
:10048000E5E2F2E0DE01119601900D928A95E1F726
:10049000812F82958F70E1E0F0E0EC0FFD1FE80FF7
:1004A000F11D80810E941B021F70E1E0F0E0EC0F63
:1004B000FD1FE10FF11D80810E941B0261960FB6A6
:1004C000F894DEBF0FBECDBFDF91CF911F9108958D
:1004D0000F931F93CF93DF93082F162FD42FC22F84
:1004E00086E392E00E942302802F0E94330280E282
:1004F0000E941B02812F0E94330280E20E941B0295
:100500008D2F0E94330280E20E941B028C2F0E94DA
:10051000330286E692E00E942302E8ECF0E090814C
:1005200095FFFDCF0093CE00E8ECF0E0908195FFC1
:10053000FDCF1093CE00E8ECF0E0908195FFFDCF69
:10054000D093CE00E8ECF0E0908195FFFDCFC09312
:10055000CE0081E592E00E942302DF91CF911F91AE
:100560000F910895E8ECF0E080818823ECF780910A
:10057000CE000895E82FF92F242F0997D8F5882762
:10058000EF5CFF4E8F4F0C94D30E462F60E881E056
:100590000E9468020895462F6FEF81E00E94680272
:1005A0000895462F60E081E00E9468020895462F7A
:1005B0006EE781E00E9468020895462F6FE781E0B0
:1005C0000E9468020895462F61E082E00E9468025E
:1005D0000895462F62E082E00E9468020895462F47
:1005E00061E083E00E9468020895462F62E083E0A4
:1005F0000E94680208950F920FB60F921F92112465
:100600002F932BB72F933F936F937F938F939F934A
:10061000AF93BF93EF93FF938091A10086FF1EC01D
:100620008091A6009091A700909377028093760224
:10063000E1EAF0E080818F7B8083FF91EF91BF91B1
:10064000AF919F918F917F916F913F912F912BBF90
:100650002F911F900F900FBE0F901895E1EAF0E0D8
:100660008081806480832091A6003091A7008091D2
:10067000760290917702281B390BA9E0BCE80E9412
:10068000DB0E0024880F991F001C880F991F001C87
:10069000892F902D9093730280937202CECF0F9288
:1006A0000FB60F921F9211242F932BB72F933F93C6
:1006B0006F937F938F939F93AF93BF93EF93FF932A
:1006C0008091210186FF1EC0809126019091270113
:1006D0009093750280937402E1E2F1E080818F7B58
:1006E0008083FF91EF91BF91AF919F918F917F9107
:1006F0006F913F912F912BBF2F911F900F900FBEA5
:100700000F901895E1E2F1E0808180648083209170
:100710002601309127018091740290917502281B67
:10072000390BA9E0BCE80E94DB0E0024880F991F5A
:10073000001C880F991F001C892F902D9093710227
:1007400080937002CECF1092A5001092A400109258
:100750002501109224010895811110C0E0EAF0E013
:10076000808180628083E0E2F1E080818F7D808300
:10077000EBE0F1E080818F7E80830895E0EAF0E095
:1007800080818F7D8083E2E0F1E080818F7E8083B5
:10079000E0E2F1E08081806280830895E1E0F1E0B1
:1007A000808180618083E2E0F1E080818F7E8083C0
:1007B000EAE0F1E0808180618083ABE0B1E08C9180
:1007C0008F7E8C9380818E7F808380818D7F8083DC
:1007D00093E29093A0008AE58093A10020E2209309
:1007E0007200909320018093210181E28093730035
:1007F0008FEF9FEF9093A9008093A8009093290119
:100800008093280184E190E09093AB008093AA004C
:1008100090932B0180932A010E94A30380E00E9401
:10082000AC0308952FB7F8948091720290917302EF
:100830002FBF08952FB7F8948091700290917102A4
:100840002FBF0895109280008BE08093810088EA8A
:1008500091E6909389008093880008950E94220475
:1008600008950E94E6010E94CE030E94350D0E9469
:10087000ED0B0E9422040E946E0778940895282FA1
:10088000392F2F3F3207C9F0809100029091010269
:100890008F3F980791F018161906DCF4B19B25C01C
:1008A00082E086BB809100029091010201979093B3
:1008B00001028093000280E00895309301022093AA
:1008C000000282E086BB109285001092840080E0D6
:1008D0000895892B11F080E008958FEF9FEF90939A
:1008E00001028093000281E0089580E008950F9353
:1008F0001F93CF93DF930E941204C82FD92F0E9419
:100900001A04082F192F81E090E00E943F048823E9
:1009100029F121976997E8F401501109093111056E
:10092000C0F480918D0290918E02843091053CF448
:10093000019690938E0280938D0280E00FC01092FA
:100940008E0210928D028FEF9FEF0E943F0481E094
:1009500005C010928E0210928D0280E0DF91CF913F
:100960001F910F91089581E090E00E943F04811152
:1009700001C008950E9412044A9734F410928C0228
:1009800010928B0280E0F5CF0E941A044A97B4F3CC
:1009900080918B0290918C02843091053CF40196F9
:1009A00090938C0280938B0280E0089510928C02C9
:1009B00010928B028FEF9FEF0E943F0481E0089519
:1009C0000F931F93CF93DF93C82FD92F062F172F85
:1009D0000E94E500811101C018820E94ED00811182
:1009E00002C0F80110820E94E500882319F0888176
:1009F000882351F00E94ED00882371F0F801808176
:100A0000882311F080E008C00E94E50088830E94DE
:100A1000ED00F801808381E0DF91CF911F910F916C
:100A20000895CF93DF930E941204C82FD92F0E94FC
:100A30001A04282F392FCF30D1053CF52F3031053E
:100A4000CCF42C1B3D0B30938A02209389028091B9
:100A5000890290918A029C012F5F3F4F233031051C
:100A600000F560E070E08AE090E00E94780BDF9192
:100A7000CF9108952A97D195C195D109CC0FDD1F4B
:100A8000D0938A02C0938902E2CF2F303105FCF661
:100A90002A503109220F331F30938A022093890292
:100AA000D6CFBC01660F771F660F771F660F771FC3
:100AB000681B790B8AE090E00E94780BD8CFCF9327
:100AC000DF93C82FD92F0E9412049093880280933D
:100AD00087020E941A04282F392F30938602209310
:100AE00085024091870250918802CA01821B930BB4
:100AF000BC01625F7F4F6D31710508F44EC00F97E6
:100B00000CF46CC08091810290918202009709F0F0
:100B100060C066E070E080E090E00E94780B809119
:100B200085029091860290938402809383020E94B2
:100B30000D0E80918302909184028C1B9D0B853653
:100B4000910514F084E690E099230CF463C090932F
:100B500082028093810281E090E00E943F0488231A
:100B600009F466C0E2968091870290918802C817C6
:100B7000D9070CF05AC08091850290918602C8175F
:100B8000D9070CF052C08091800282300CF045C031
:100B90008F5F8093800280E04BC0240F351F33238A
:100BA000ACF035952795309384022093830260E062
:100BB00070E080918102909182020E94780B809176
:100BC0008302909184020E94860CB3CF2F5F3F4F27
:100BD000E8CF6CE370E00E94780BA1CF8091810296
:100BE00090918202009789F46AEF7FEF80E090E0B5
:100BF0000E94780B809187029091880290938402E2
:100C0000809383020E94F80D94CF64EC7FEF0E94E2
:100C1000780BF0CF80E090E09ACF109280028FEFB7
:100C20009FEF0E943F0481E003C01092800280E0A9
:100C3000DF91CF910895CF93DF93C82FD92F0E94D2
:100C40000C01882351F088818F5F888388818230EE
:100C50000CF01882DF91CF9108950E94360188230D
:100C6000A9F3F1CFCF93DF93C82FD92F0E940C01A6
:100C7000882341F088819981833691051CF401967F
:100C8000998388830E943601882341F08881998165
:100C9000823091051CF0019799838883DF91CF9171
:100CA0000895CF93DF93C82FD92F0E940C0188237A
:100CB00041F088819981843691051CF40A969983C4
:100CC00088830E943601882341F0888199818B3086
:100CD00091051CF00A9799838883DF91CF9108953D
:100CE0000F931F93CF93DF93C82FD92F0E94120425
:100CF00090937F0280937E020E941A04082F192F7E
:100D000010937D0200937C0281E090E00E943F04FA
:100D1000882341F16D9680917E0290917F02C817E1
:100D2000D907DCF0C017D107C4F080917A02909106
:100D30007B02823091053CF4019690937B02809374
:100D40007A0280E00FC010927B0210927A028FEF3D
:100D50009FEF0E943F0481E005C010927B02109239
:100D60007A0280E0DF91CF911F910F9108958091D9
:100D7000990290919A02019611F080E008952091D5
:100D800097023091980281E02F3F3F4FB9F380E006
:100D90000895CF93DF9300D00F92CDB7DEB78823AD
:100DA00009F44AC00E941A04282F392F2B3B8FEFD9
:100DB000380794F02E353105D4F52C503109C9018E
:100DC000330FAA0BBB0B89839A83AB83BC83BC0113
:100DD000CD010E94360F04C060E070E082EA92EC20
:100DE0002AE939E949E95FE369837A838B839C8344
:100DF00069817A818B819C810E949A0F69837A83B1
:100E00008B839C8369817A818B819C810E94FE0EF9
:100E1000709379026093780288E090E00E94780BEA
:100E20000F900F900F900F90DF91CF91089560E099
:100E300070E082EA92E4D4CF0E941204282F392F66
:100E40002B3B9FEF390794F02E35310564F52C507C
:100E50003109C901330FAA0BBB0B89839A83AB837A
:100E6000BC83BC01CD010E94360F04C060E070E07D
:100E700082EA92EC2AE939E949E95FEB69837A83EE
:100E80008B839C8369817A818B819C810E949A0FDC
:100E900069837A838B839C8369817A818B819C812E
:100EA0000E94FE0EB5CF60E070E082EA92E4E2CFED
:100EB0008AB1877E8AB98BB188618BB9089580B178
:100EC00083FB882780F9089580B182FB882780F909
:100ED00008950E94310480E090E008956D98759A1D
:100EE00082E08093900089E1809391008EE195E00B
:100EF00090939D0080939C000895882339F06D9A0B
:100F0000E0E9F0E080818C60808308956D98E0E9ED
:100F1000F0E08081837F808308959C01990F440BCA
:100F2000550B60E074E284EF90E00E94B40EC901BA
:100F30000895EF92FF920F931F93CF93DF93C82FE3
:100F4000D92FCB01E42EF52E022F132F0E943F0440
:100F5000811122C09E01DD0F440B550B60E074E24D
:100F600084EF90E00E94B40E309397002093960097
:100F70002FE832E0E29EC001E39E900DF29E900DBC
:100F8000112490939D0080939C00DF91CF911F913D
:100F90000F91FF90EF900895F80180819181019663
:100FA00091838083F2CF8091930290919402892B58
:100FB000D9F080919302909194028330910509F4C5
:100FC00043C034F58130910599F18230910581F467
:100FD00023E932E04AE050E061E070E08AE691E027
:100FE0000E94990781E0089581E00E947D07E1CF8A
:100FF000892B61F423E932E04AE050E061E070E0DF
:101000008CEE91E00E94990781E0089581E00895B7
:101010008430910529F1059749F480E00E947D070D
:10102000109294021092930280E0089581E0089556
:1010300023E932E040E050E061E070E08EEA91E0C8
:101040000E94990781E0089523E932E04AE050E0E8
:1010500061E070E08FE692E00E94990781E00895D8
:1010600023E932E040E050E061E070E08FE692E09A
:101070000E94990781E008958091910290919202D7
:10108000892BD9F080919102909192028330910541
:1010900009F443C034F58130910599F1823091050E
:1010A00081F421E932E041E050E063E070E08AE859
:1010B00091E00E94990781E0089581E00E947D07F8
:1010C000E1CF892B61F421E932E041E050E063E0B7
:1010D00070E08EEA91E00E94990781E0089581E036
:1010E00008958430910529F1059749F480E00E9424
:1010F0007D07109292021092910280E0089581E0A3
:10110000089521E932E040E050E062E070E08EEACC
:1011100091E00E94990781E0089521E932E041E0E1
:1011200050E067E070E08AE691E00E94990781E074
:10113000089521E932E040E050E06EE170E08FE692
:1011400092E00E94990781E0089580918F0290912A
:101150009002892B71F0E0918F02F0919002EF30B4
:10116000F10508F0BBC08827E65CFF4E8F4F0C945A
:10117000D30E81E00E947D07EECF2FE832E041E000
:1011800050E061E070E08FE692E00E94990781E014
:1011900008952FE832E041E050E061E070E082E540
:1011A00092E00E94990781E008952FE832E041E043
:1011B00050E062E070E08EEA91E00E94990781E0E1
:1011C00008952FE832E041E050E062E070E081EC09
:1011D00091E00E94990781E008952FE832E041E014
:1011E00050E061E070E082E592E00E94990781E0C2
:1011F00008952FE832E041E050E061E070E08CE1DA
:1012000092E00E94990781E008952FE832E041E0E2
:1012100050E062E070E08AE691E00E94990781E088
:1012200008952FE832E041E050E062E070E08AE8A3
:1012300091E00E94990781E008952FE832E041E0B3
:1012400050E061E070E08CE192E00E94990781E05B
:1012500008952FE832E041E050E061E070E08CEE6C
:1012600091E00E94990781E008952FE832E041E083
:1012700050E062E070E08AE691E00E94990781E028
:1012800008952FE832E041E050E062E070E08AE843
:1012900091E00E94990781E008952FE832E041E053
:1012A00050E065E070E08EEA91E00E94990781E0ED
:1012B00008952FE832E040E050E065E070E08AE613
:1012C00091E00E94990781E0089580E00E947D07E7
:1012D0001092900210928F0280E0089581E00895AC
:1012E0001F921FB61F9211248F938BB78F939F93DA
:1012F000EF93FF938091990290919A021816190624
:101300009CF48091990290919A02019790939A028D
:1013100080939902FF91EF919F918F918BBF8F9155
:101320001F901FBE1F9018958091990290919A026C
:10133000892B81F78FEF9FEF90939A028093990208
:101340009093980280939702EEE6F0E080818E7F82
:101350008083E0E7F0E080818E7F8083DBCF1F9287
:101360001FB61F9211248F938BB78F939F93EF9388
:10137000FF938091970290919802181619069CF499
:101380008091970290919802019790939802809390
:101390009702FF91EF919F918F918BBF8F911F903B
:1013A0001FBE1F9018958091970290919802892BEB
:1013B00081F78FEF9FEF90939A0280939902909319
:1013C000980280939702EEE6F0E080818E7F808322
:1013D000E0E7F0E080818E7F8083DBCF1F921FB635
:1013E0001F9211242F932BB72F933F938F939F938B
:1013F000EF93FF9380919602882309F456C087B536
:101400008F3F39F187B58E3E00F18FEF87BD809118
:101410009502882309F4B4C08091B3008F3F09F48A
:101420008AC08091B3008E3E08F47FC08FEF809316
:10143000B300FF91EF919F918F913F912F912BBF1F
:101440002F911F901FBE1F90189587B58E5E87BD88
:10145000DECFE2E0F1E080818860808380919602B7
:101460008330F9F0809196028130E9F08091A102F9
:101470009091A20201969093A2028093A1020497F8
:1014800034F280919602823039F0E2E0F1E080811E
:10149000877F8083109296021092A2021092A1027E
:1014A000B6CF7398E3CF739AE1CFE2E0F1E08081A9
:1014B000877F808387B5209104023091050290E0F8
:1014C00082179307A4F487B5209104023091050296
:1014D00090E041968217930734F080910402909136
:1014E000050287BD94CF87B58E5E87BD90CF87B547
:1014F000209104023091050290E0281739070CF082
:1015000086CF87B520910402309105028151990B55
:101510002817390734F0809104029091050287BDA5
:1015200076CF87B5825187BD72CFE3EBF0E0808143
:101530008E5E80837ECF2D9A809195028130E1F07E
:10154000809195028330D1F080919F029091A0020A
:1015500001969093A00280939F0204970CF469CFA8
:1015600080919502823019F02D9810929502109278
:10157000A00210929F025DCF2C98E6CF2C9AE4CF68
:101580002D988091B300209102023091030290E0E7
:1015900082179307C4F48091B30020910202309126
:1015A000030290E04196821793073CF0809102027B
:1015B000909103028093B3003CCFE3EBF0E0808195
:1015C0008E5E808336CF8091B300209102023091ED
:1015D000030290E0281739070CF02BCF8091B3005D
:1015E00020910202309103028151990B281739078B
:1015F0003CF080910202909103028093B30019CFD6
:10160000E3EBF0E080818251808313CF282F392FC4
:1016100080919D0290919E021816190634F433238E
:10162000F4F483E08093960206C012161306ACF41D
:1016300081E08093960230939E0220939D02B9012F
:101640003323C4F08DEF90E00E947E0E6E5F7F4FDB
:1016500070930502609304020895892B01F321150C
:10166000310549F782E08093960210929E02109213
:101670009D02089566277727621B730BE3CF282FFF
:10168000392F80919B0290919C021816190634F410
:101690003323F4F483E08093950206C012161306F8
:1016A000ACF481E08093950230939C0220939B02DE
:1016B000B9013323C4F08DEF90E00E947E0E6E5F7F
:1016C0007F4F70930302609302020895892B01F308
:1016D0002115310549F782E08093950210929C0212
:1016E00010929B02089566277727621B730BE3CF46
:1016F0000F931F93CF93DF93C82FD92F262F372F08
:1017000089012536310514F004E610E00C398FEF1D
:10171000180714F40CE91FEF209709F446C0C536EA
:10172000D10514F0C4E6D0E0CC398FEFD80714F41B
:10173000CCE9DFEF21153105A9F0DCF0CE010E94E4
:10174000060B0C9FC0010D9F900D1C9F900D112446
:101750006CE97FEF0E947E0ECB018C0F9D1F0E94D3
:101760003F0B2CC0CE010E94060BCE010E943F0B06
:1017700025C098011123A4F02C9FC0012D9F900D2E
:101780003C9F900D11246CE97FEF0E947E0ECB01EF
:101790008C0F9D1F0E94060BCE010E943F0B0EC0B6
:1017A00022273327201B310BE7CFC8010E94060BED
:1017B00088279927801B910B0E943F0B8FEF9FEF8B
:1017C00090939A0280939902909398028093970243
:1017D000DF91CF911F910F9108959D9AE1E0F1E083
:1017E0008081886080836B9A808180648083259A61
:1017F000249AE2E0F1E08081886080832D9A739AD8
:101800002C9A8FEF8093B30087BD81E088BD8093D1
:10181000B40083E284BD9CE095BD8093B0008EE06F
:101820008093B10060E070E080E090E00E94780B6F
:101830000895CF93DF93C42FD52F21E020936E001E
:10184000209370000E94780BD0939A02C093990263
:10185000D0939802C0939702DF91CF910895EAE068
:10186000F1E0808180688083EBE0F1E08081806836
:10187000808380818062808380818F7780830895D8
:10188000EAE0F1E0808180688083EBE0F1E0808134
:101890008F7D808380818062808380818068808367
:1018A0000895EAE0F1E090819068908328E030E0CC
:1018B000EBE0F1E00CC090819F7790839081906283
:1018C00090838695215031092115310549F0908189
:1018D0009F7D908380FFEFCF908190689083EECFC3
:1018E000EBE0F1E080818F7D808380818062808366
:1018F0000895CF93C82F0E942F0C8C2F8770886873
:101900000E94510C0E94400CCF910895EF92FF92DB
:101910001F93CF93DF93D82FC92F0E942F0C80E401
:101920000E94510C0E94400C13EC0F2EFAE0EF2E97
:10193000F12CF02D0E942F0C812F0E94510C8D2F25
:101940009C2FB7010E947E0ED62FC72FFC01E65EAA
:10195000FD4F80810E94510C0E94400C11501F3B92
:1019600049F7DF91CF911F91FF90EF900895EF928B
:10197000FF920F931F93CF93DF9300D000D00F926D
:101980000F92CDB7DEB7E82EF92E84E6E816F10403
:101990002CF00F2EF3E6EF2EF12CF02DFF200CF49F
:1019A00047C0062F172F0436110514F003E610E088
:1019B00011230CF440C00E942F0C80E40E94510CB3
:1019C0000E94400C2AE030E0C701B9010E947E0E5F
:1019D0007A8369839C838B83C801B9010E947E0E40
:1019E0007E836D8398878F83DE0111967D0110ECD5
:1019F0000E942F0C812F0E94510CD701ED91FD9177
:101A00007D01E65EFD4F80810E94510C0E94400CDA
:101A10001F5F143C69F728960FB6F894DEBF0FBE1F
:101A2000CDBFDF91CF911F910F91FF90EF9008955F
:101A3000E12CF12CB6CF00E010E0BDCF1F93CF9387
:101A4000DF93C82FD92F162F0E942F0C80EC810F07
:101A50000E94510CCA5FDD4F88810E94510C0E9488
:101A6000400CDF91CF911F910895EAE0F1E0808171
:101A700080688083808180628083EBE0F1E08081F8
:101A80008068808380818062808382E00E94790CFC
:101A9000089560E083E190E00E941E0D61E083E024
:101AA00090E00E941E0D62E086E090E00E941E0D14
:101AB00063E087E090E00E941E0D089584E090E0CE
:101AC0000E94860C61E081E090E00E941E0D62E0C1
:101AD00085E090E00E941E0D63E088E090E00E94A7
:101AE0001E0D089560E081E190E00E941E0D61E00E
:101AF00088E090E00E941E0D62E087E090E00E9486
:101B00001E0D63E08BE090E00E941E0D089560E0E2
:101B100083E190E00E941E0D61E086E090E00E946B
:101B20001E0D62E08DE090E00E941E0D63E08BE0F0
:101B300090E00E941E0D089560E083E190E00E9415
:101B40001E0D61E083E090E00E941E0D62E08CE0DB
:101B500090E00E941E0D63E081E190E00E941E0D66
:101B6000089560E081E190E00E941E0D61E082E155
:101B700090E00E941E0D62E08FE090E00E941E0D3A
:101B800063E08CE090E00E941E0D089560E084E028
:101B900090E00E941E0D61E089E090E00E941E0D21
:101BA00062E080E190E00E941E0D63E081E190E040
:101BB0000E941E0D089560E083E190E00E941E0DDA
:101BC00061E08EE090E00E941E0D62E081E090E016
:101BD0000E941E0D63E083E090E00E941E0D0895B8
:101BE000882319F00E94870D08950E94DB0D089547
:101BF00060E08BE090E00E941E0D61E085E090E0E7
:101C00000E941E0D62E086E090E00E941E0D63E0DF
:101C100081E190E00E941E0D089560E08FE090E069
:101C20000E941E0D61E087E090E00E941E0D62E0C0
:101C300088E090E00E941E0D63E081E190E00E9448
:101C40001E0D0895882319F00E940D0E08950E941C
:101C5000F80D089560E083E190E00E941E0D61E0C0
:101C600083E190E00E941E0D62E087E090E00E9418
:101C70001E0D63E08DE090E00E941E0D089560E06F
:101C800083E190E00E941E0D61E085E090E00E94FB
:101C90001E0D62E08CE090E00E941E0D63E084E087
:101CA00090E00E941E0D089560E080E190E00E94A7
:101CB0001E0D61E08FE090E00E941E0D62E083E067
:101CC00090E00E941E0D63E088E090E00E941E0DEF
:101CD000089560E080E190E00E941E0D61E081E1E6
:101CE00090E00E941E0D62E08DE090E00E941E0DCB
:101CF00063E08EE090E00E941E0D089597FB072E92
:101D000016F4009407D077FD09D00E94EA0E07FC74
:101D100005D03EF4909581959F4F089570956195FB
:101D20007F4F0895A1E21A2EAA1BBB1BFD010DC017
:101D3000AA1FBB1FEE1FFF1FA217B307E407F5077B
:101D400020F0A21BB30BE40BF50B661F771F881F57
:101D5000991F1A9469F760957095809590959B01ED
:101D6000AC01BD01CF010895052E97FB1EF4009430
:101D70000E94CB0E57FD07D00E94920E07FC03D0A5
:101D80004EF40C94CB0E50954095309521953F4FD5
:101D90004F4F5F4F089590958095709561957F4F57
:101DA0008F4F9F4F0895EE0FFF1F881F8BBF079027
:101DB000F691E02D1994A29FB001B39FC001A39F9B
:101DC000700D811D1124911DB29F700D811D112474
:101DD000911D0895AA1BBB1B51E107C0AA1FBB1F81
:101DE000A617B70710F0A61BB70B881F991F5A95A7
:101DF000A9F780959095BC01CD0108950E94050F2B
:101E00006894B1110C94940F08950E94790F88F092
:101E10009F5798F0B92F9927B751B0F0E1F0660FAE
:101E2000771F881F991F1AF0BA95C9F714C0B130EF
:101E300091F00E94930FB1E008950C94930F672FD7
:101E4000782F8827B85F39F0B93FCCF3869577951E
:101E50006795B395D9F73EF4909580957095619507
:101E60007F4F8F4F9F4F0895E89409C097FB3EF432
:101E700090958095709561957F4F8F4F9F4F9923D7
:101E8000A9F0F92F96E9BB279395F6958795779555
:101E90006795B795F111F8CFFAF4BB0F11F460FF15
:101EA0001BC06F5F7F4F8F4F9F4F16C0882311F06D
:101EB00096E911C0772321F09EE8872F762F05C081
:101EC000662371F096E8862F70E060E02AF09A951C
:101ED000660F771F881FDAF7880F9695879597F911
:101EE000089557FD9058440F551F59F05F3F71F00A
:101EF0004795880F97FB991F61F09F3F79F0879571
:101F00000895121613061406551FF2CF4695F1DFF9
:101F100008C0161617061806991FF1CF8695710589
:101F2000610508940895E894BB2766277727CB01BD
:101F300097F908950E94AD0F0C941E100E94101086
:101F400038F00E94171020F0952311F00C94071020
:101F50000C940D1011240C94940F0E94710F70F3C7
:101F6000959FC1F3950F50E0551F629FF001729F3E
:101F7000BB27F00DB11D639FAA27F00DB11DAA1F4D
:101F8000649F6627B00DA11D661F829F2227B00D9A
:101F9000A11D621F739FB00DA11D621F839FA00D25
:101FA000611D221F749F3327A00D611D231F849F75
:101FB000600D211D822F762F6A2F11249F575040CC
:101FC0009AF0F1F088234AF0EE0FFF1FBB1F661F47
:101FD000771F881F91505040A9F79E3F510580F010
:101FE0000C9407100C94940F5F3FE4F3983ED4F3E5
:101FF000869577956795B795F795E7959F5FC1F7B4
:10200000FE2B880F911D9695879597F9089597F95E
:102010009F6780E870E060E008959FEF80EC08958E
:1020200000240A94161617061806090608950024B7
:102030000A9412161306140605060895092E039431
:10204000000C11F4882352F0BB0F40F4BF2B11F4A5
:1020500060FF04C06F5F7F4F8F4F9F4F0895F894CC
:10206000FFCFC502CB02D102D702DD02E302E902B3
:10207000EF02F502BD08C908D508E108ED08F90826
:10208000050911091D092909350941094D09590990
:022090006509E0
:10209200FFFFFF00FF0040777C395E79713D7406D7
:1020A2000E38373F73316D783E003F065B4F666DE9
:1020B2007D077F6F0030313233343536373839415E
:1020C2004243444546004D41535445523A205365DC
:1020D2006E64696E6720746F20536C6176653A2076
:1020E200004D41535445523A20436F6D6D616E6409
:0A20F2002073656E742E0D0A0000C5
:00000001FF
