:100000000C94A2000C94C5000C94C3000C94C30083
:100010000C94C3000C94C3000C94C3000C94C30054
:100020000C94C3000C94C3000C94C3000C94C30044
:100030000C94C3000C94C3000C94C3000C94C30034
:100040000C94C3000C94C3000C94C3000C94C30024
:100050000C94C3000C94C3000C94C3000C94C30014
:100060000C94C3000C94C3000C94C3000C94C30004
:100070000C94C3000C94C3000C94C3000C94C300F4
:100080000C94C3000C94C3000C94C3000C94C300E4
:100090000C94C3000C94C3000C94C3000C94C300D4
:1000A0000C94C3000C94C3000C94C3000C94C300C4
:1000B0000C94C3000C94C3000C94C3000C94C300B4
:1000C0000C94C3000C94C3000C94C3000C94C300A4
:1000D0000C94C3000C94C3000C94C3000C94C30094
:1000E0000C94C3000C94BE050C949A050C94370232
:1000F0000C941F020C942B020C9452050C94B20524
:100100000C9476050C942E050C9419020C946A0537
:100110000C945E050C9482050C9446050C948E0597
:100120000C9425020C9431020C9413020C943D02A1
:100130000C943A050C94CA050C94D6050C94A605AB
:100140000C94430211241FBECFEFD1E2DEBFCDBF1E
:1001500000E00CBF12E0A0E0B2E0E6E7F1E100E071
:100160000BBF02C007900D92A636B107D9F722E067
:10017000A6E6B2E001C01D92AC36B207E1F70E94DC
:10018000A2020C94A1080C9400001F920F920FB6CB
:100190000F9211240BB60F922F933F934F935F93BF
:1001A0006F937F938F939F93AF93BF93CF93DF937F
:1001B000EF93FF93489B20C0489B18C0C1E0D1E05B
:1001C00004C0489B0EC0489B11C09D9888818F7BBE
:1001D000888380E00E94EE03489BF3CF0E941B08B7
:1001E000F2CFF89488E180936000FFCF9D9AE1E020
:1001F000F1E0808180648083FF91EF91DF91CF9166
:10020000BF91AF919F918F917F916F915F914F912E
:100210003F912F910F900BBE0F900FBE0F901F902C
:1002200018955098E9E6F0E0808183608083E89A31
:10023000089589B18170089581B1877E81B982B1B5
:10024000886182B95198599A08950E9411010E94BB
:100250001C01089580B183FB882780F991E08927EC
:10026000089580B18295817091E08927089589B1C0
:100270008695817091E0892708959C0140E050E0C7
:1002800060E472E48FE090E00E944408215031095C
:100290003093C5002093C40088E18093C10086E0BC
:1002A0008093C20008959C0140E050E060E472E455
:1002B0008FE090E00E944408215031093093CD0036
:1002C0002093CC0088E18093C90086E08093CA0027
:1002D0000895E0ECF0E0908195FFFDCF8093C6009B
:1002E0000895CF93DF93C82FD92F8881882331F0C9
:1002F00021960E94690189918111FBCFDF91CF91F5
:1003000008951F93CF93DF93CDB7DEB761970FB6F4
:10031000F894DEBF0FBECDBF182F81E1E1E2F2E01D
:10032000DE01119601900D928A95E1F7812F829559
:100330008F70E1E0F0E0EC0FFD1FE80FF11D808110
:100340000E9469011F70E1E0F0E0EC0FFD1FE10F7A
:10035000F11D80810E94690161960FB6F894DEBF9D
:100360000FBECDBFDF91CF911F9108950F931F93C3
:10037000CF93DF93082F162FD42FC22F82E392E062
:100380000E947101802F0E94810180E20E94690118
:10039000812F0E94810180E20E9469018D2F0E94BD
:1003A000810180E20E9469018C2F0E94810182E616
:1003B00092E00E947101E8ECF0E0908195FFFDCFA2
:1003C0000093CE00E8ECF0E0908195FFFDCF109314
:1003D000CE00E8ECF0E0908195FFFDCFD093CE0009
:1003E000E8ECF0E0908195FFFDCFC093CE008DE466
:1003F00092E00E947101DF91CF911F910F910895BA
:10040000E8ECF0E080818823ECF78091CE0008953D
:10041000E82FF92F242F0997D8F58827ED55F74FA6
:100420008F4F0C948508462F60E881E00E94B6014A
:100430000895462F6FEF81E00E94B6010895462F80
:1004400060E081E00E94B6010895462F6EE781E0EA
:100450000E94B6010895462F6FE781E00E94B60121
:100460000895462F61E082E00E94B6010895462F6C
:1004700062E082E00E94B6010895462F61E083E0C9
:100480000E94B6010895462F62E083E00E94B60103
:100490000895109280008BE08093810088EA91E6B5
:1004A000909389008093880008950E9449020895DE
:1004B0000E9425010E94E7060E9449020E94DF0374
:1004C000789480E895E20E943D0180E895E20E94E0
:1004D00053010895282F392F2F3F3207C9F08091FB
:1004E0000002909101028F3F980791F018161906AB
:1004F000DCF4B19B25C082E086BB80910002909124
:1005000001020197909301028093000280E0089518
:10051000309301022093000282E086BB1092850096
:100520001092840080E00895892B11F080E00895F6
:100530008FEF9FEF909301028093000281E0089576
:1005400080E0089500D0CDB7DEB70E9458028EE15A
:100550008983212CA12CB12CC12CD12C412C00E061
:1005600010E081E090E09B838A83612C712C312C18
:10057000EE24E394F12C6894882481F8912C512C7A
:1005800030C044244394062D172D84E090E09B83D3
:100590008A8327C0019729F50E94FB060E94370134
:1005A0008823F9F041C08A819B818530910509F447
:1005B00091C00697B1F40130110509F4FDC04FEF69
:1005C0006FEF84E090E00E9408020E94F1078FEF35
:1005D0009FEF0E946A020E9416058111FCCF0E2D2A
:1005E0001F2D8A819B818430910509F4CAC0D8F6F9
:1005F0008230910511F18330910561F601301105CA
:1006000009F483C00230110509F4A6C001151105D3
:1006100041F74FEF69E08E2D9F2D0E9408020E2DAD
:100620001F2DDFCF0E94DC0785E090E00E946A0268
:100630008823C1F38A829B82D4CF0130110599F0BF
:100640000230110579F10115110559F64FEF6FEFE1
:100650008E2D9F2D0E9408028FEF9FEF0E946A024D
:100660000E2D1F2DBECFB601C5010E9469068981DE
:10067000922D0E946A0281110CC00E942A018823D7
:1006800009F4AFCF062D172D83E090E09B838A837A
:10069000A8CF4FEF60E28E2D9F2D0E9408020A81A5
:1006A0001B81EBCFB601C5010E9469060E942A0199
:1006B000811103C01B830A8394CF4FEF60E18E2D1D
:1006C0009F2D0E940802062D172D83E090E09B834A
:1006D0008A8387CF0130110549F04FEF6FEF83E038
:1006E00090E00E9408020E2D1F2D7BCFB601C501A0
:1006F0000E9469060E940002813009F072CF062D27
:10070000172D96E09A833B826CCFB601C5010E94FB
:1007100069060E943101811113C085E090E00E94BA
:100720006A02882309F45DCF4FEF6FEF84E090E019
:100730000E9408028FEFC81AD80A082D192D51CF30
:100740004FEF6FEF84E090E00E9408029FEFA91A3C
:10075000B90A082D192DE1CFB601C5010E9469061D
:1007600085E090E00E946A02882309F43ACF442091
:1007700009F407CF062D172D85E090E09B838A832F
:1007800030CF0130110549F04FEF6FEF87E090E077
:100790000E9408020E2D1F2D24CF0E9463070E9485
:1007A0000002813009F01DCF9AE09983252C062D97
:1007B000172D8A829B8215CF0E94F10712CF6D9868
:1007C000759A82E08093900089E1809391008EE198
:1007D00095E090939D0080939C000895882339F0C4
:1007E0006D9AE0E9F0E080818C60808308956D98D7
:1007F000E0E9F0E08081837F808308959C01990F78
:10080000440B550B60E074E284EF90E00E946608B0
:10081000C9010895EF92FF920F931F93CF93DF9337
:10082000C82FD92FCB01E42EF52E022F132F0E94B3
:100830006A02811122C09E01DD0F440B550B60E05E
:1008400074E284EF90E00E94660830939700209352
:1008500096002FE832E0E29EC001E39E900DF29EEA
:10086000900D112490939D0080939C00DF91CF9177
:100870001F910F91FF90EF900895F8018081918171
:10088000019691838083F2CF80916A0290916B02EE
:10089000892BD9F080916A0290916B028330910587
:1008A00009F443C034F58130910599F18230910506
:1008B00081F42AE632E04AE050E061E070E08AE646
:1008C00091E00E940A0481E0089581E00E94EE0315
:1008D000E1CF892B61F42AE632E04AE050E061E0A2
:1008E00070E08CEE91E00E940A0481E0089581E0BE
:1008F00008958430910529F1059749F480E00E941C
:10090000EE0310926B0210926A0280E0089581E07B
:1009100008952AE632E040E050E061E070E08EEABF
:1009200091E00E940A0481E008952AE632E04AE05C
:1009300050E061E070E08FE692E00E940A0481E0FE
:1009400008952AE632E040E050E061E070E08FE692
:1009500092E00E940A0481E00895809168029091DB
:100960006902892BD9F080916802909169028330E5
:10097000910509F443C034F58130910599F1823035
:10098000910581F428E632E041E050E063E070E058
:100990008AE891E00E940A0481E0089581E00E94C3
:1009A000EE03E1CF892B61F428E632E041E050E02C
:1009B00063E070E08EEA91E00E940A0481E008950D
:1009C00081E008958430910529F1059749F480E08C
:1009D0000E94EE03109269021092680280E008956E
:1009E00081E0089528E632E040E050E062E070E007
:1009F0008EEA91E00E940A0481E0089528E632E040
:100A000041E050E067E070E08AE691E00E940A046D
:100A100081E0089528E632E040E050E06EE170E0C9
:100A20008FE692E00E940A0481E0089580916602B8
:100A300090916702892B71F0E0916602F091670254
:100A4000EF30F10508F0BBC08827E455F74F8F4F12
:100A50000C94850881E00E94EE03EECF26E632E09A
:100A600041E050E061E070E08FE692E00E940A040D
:100A700081E0089526E632E041E050E061E070E078
:100A800082E592E00E940A0481E0089526E632E0C1
:100A900041E050E062E070E08EEA91E00E940A04DA
:100AA00081E0089526E632E041E050E062E070E047
:100AB00081EC91E00E940A0481E0089526E632E08C
:100AC00041E050E061E070E082E592E00E940A04BB
:100AD00081E0089526E632E041E050E061E070E018
:100AE0008CE192E00E940A0481E0089526E632E05B
:100AF00041E050E062E070E08AE691E00E940A0482
:100B000081E0089526E632E041E050E062E070E0E6
:100B10008AE891E00E940A0481E0089526E632E026
:100B200041E050E061E070E08CE192E00E940A0454
:100B300081E0089526E632E041E050E061E070E0B7
:100B40008CEE91E00E940A0481E0089526E632E0EE
:100B500041E050E062E070E08AE691E00E940A0421
:100B600081E0089526E632E041E050E062E070E086
:100B70008AE891E00E940A0481E0089526E632E0C6
:100B800041E050E065E070E08EEA91E00E940A04E6
:100B900081E0089526E632E040E050E065E070E054
:100BA0008AE691E00E940A0481E0089580E00E94B4
:100BB000EE03109267021092660280E0089581E0D1
:100BC0000895EAE0F1E0808180688083EBE0F1E065
:100BD00080818068808380818062808380818F773C
:100BE00080830895EAE0F1E0808180688083EBE013
:100BF000F1E080818F7D808380818062808380812D
:100C0000806880830895EAE0F1E0908190689083A5
:100C100028E030E0EBE0F1E00CC090819F7790831A
:100C2000908190629083869521503109211531057C
:100C300049F090819F7D908380FFEFCF90819068F5
:100C40009083EECFEBE0F1E080818F7D8083808127
:100C5000806280830895CF93C82F0E94E1058C2F76
:100C6000877088680E9403060E94F205CF9108955C
:100C7000EF92FF921F93CF93DF93D82FC92F0E943B
:100C8000E10580E40E9403060E94F20513EC0F2E9A
:100C9000FAE0EF2EF12CF02D0E94E105812F0E9449
:100CA00003068D2F9C2FB7010E943008D62FC72F27
:100CB000FC01EA5EFD4F80810E9403060E94F2055E
:100CC00011501F3B49F7DF91CF911F91FF90EF909B
:100CD0000895EF92FF920F931F93CF93DF9300D06D
:100CE00000D00F920F92CDB7DEB7E82EF92E84E632
:100CF000E816F1042CF00F2EF3E6EF2EF12CF02D78
:100D0000FF200CF447C0062F172F0436110514F0EE
:100D100003E610E011230CF440C00E94E10580E4DA
:100D20000E9403060E94F2052AE030E0C701B901E3
:100D30000E9430087A8369839C838B83C801B90140
:100D40000E9430087E836D8398878F83DE01119621
:100D50007D0110EC0E94E105812F0E940306D7015E
:100D6000ED91FD917D01EA5EFD4F80810E940306B9
:100D70000E94F2051F5F143C69F728960FB6F8949D
:100D8000DEBF0FBECDBFDF91CF911F910F91FF90BE
:100D9000EF900895E12CF12CB6CF00E010E0BDCF2C
:100DA0001F93CF93DF93C82FD92F162F0E94E105F1
:100DB00080EC810F0E940306CE5FDD4F88810E9488
:100DC00003060E94F205DF91CF911F910895EAE09A
:100DD000F1E0808180688083808180628083EBE0A5
:100DE000F1E080818068808380818062808382E0FE
:100DF0000E942B06089560E083E190E00E94D006F7
:100E000061E083E090E00E94D00662E086E090E03E
:100E10000E94D00663E087E090E00E94D00608952B
:100E200084E090E00E94380661E081E090E00E945A
:100E3000D00662E085E090E00E94D00663E088E0A2
:100E400090E00E94D006089560E081E190E00E9469
:100E5000D00661E088E090E00E94D00662E087E082
:100E600090E00E94D00663E08BE090E00E94D00604
:100E7000089560E083E190E00E94D00661E086E0A2
:100E800090E00E94D00662E08DE090E00E94D006E3
:100E900063E08BE090E00E94D006089560E083E17B
:100EA00090E00E94D00661E083E090E00E94D006CE
:100EB00062E08CE090E00E94D00663E081E190E087
:100EC0000E94D006089560E081E190E00E94D00683
:100ED00061E082E190E00E94D00662E08FE090E065
:100EE0000E94D00663E08CE090E00E94D006089556
:100EF00060E084E090E00E94D00661E089E090E04C
:100F00000E94D00662E080E190E00E94D00663E09B
:100F100081E190E00E94D006089560E083E190E0D6
:100F20000E94D00661E08EE090E00E94D00662E070
:100F300081E090E00E94D00663E083E090E00E94B0
:100F4000D0060895882319F00E94390708950E9459
:100F50008D07089560E08BE090E00E94D00661E08C
:100F600085E090E00E94D00662E086E090E00E947A
:100F7000D00663E081E190E00E94D006089560E031
:100F80008FE090E00E94D00661E087E090E00E9450
:100F9000D00662E088E090E00E94D00663E081E144
:100FA00090E00E94D0060895882319F00E94BF07A0
:100FB00008950E94AA07089560E083E190E00E94EE
:100FC000D00661E083E190E00E94D00662E087E015
:100FD00090E00E94D00663E08DE090E00E94D00691
:100FE000089560E083E190E00E94D00661E085E032
:100FF00090E00E94D00662E08CE090E00E94D00673
:1010000063E084E090E00E94D006089560E080E113
:1010100090E00E94D00661E08FE090E00E94D00650
:1010200062E083E090E00E94D00663E088E090E018
:101030000E94D006089560E080E190E00E94D00612
:1010400061E081E190E00E94D00662E08DE090E0F6
:101050000E94D00663E08EE090E00E94D0060895E2
:1010600097FB072E16F4009407D077FD09D00E9455
:101070008D0807FC05D03EF4909581959F4F08950B
:10108000709561957F4F0895A1E21A2EAA1BBB1B94
:10109000FD010DC0AA1FBB1FEE1FFF1FA217B30744
:1010A000E407F50720F0A21BB30BE40BF50B661F5A
:1010B000771F881F991F1A9469F76095709580951E
:1010C00090959B01AC01BD01CF010895052E97FBC2
:1010D0001EF400940E947D0857FD07D00E9444082A
:1010E00007FC03D04EF40C947D0850954095309544
:1010F00021953F4F4F4F5F4F089590958095709584
:1011000061957F4F8F4F9F4F0895EE0FFF1F881FF0
:101110008BBF0790F691E02D1994AA1BBB1B51E1E0
:1011200007C0AA1FBB1FA617B70710F0A61BB70B57
:10113000881F991F5A95A9F780959095BC01CD01FC
:101140000895F894FFCF130219021F0225022B0203
:10115000310237023D0243022E053A05460552058B
:101160005E056A05760582058E059A05A605B20517
:06117000BE05CA05D6050C
:10117600FFFF40777C395E79713D74060E38373F44
:1011860073316D783E003F065B4F666D7D077F6F5E
:1011960000303132333435363738394142434445ED
:1011A60046004D41535445523A2053656E64696E6C
:1011B6006720746F20536C6176653A20004D415369
:1011C6005445523A20436F6D6D616E642073656EAF
:0611D600742E0D0A00005A
:00000001FF
