:100000000C94B0000C9402010C94D1000C94D1001B
:100010000C94D1000C94D1000C94D1000C94D1001C
:100020000C94D1000C94D1000C94D1000C94D1000C
:100030000C94D1000C94D1000C94D1000C94D100FC
:100040000C94D1000C94D1000C94D1000C94D100EC
:100050000C94D1000C94D1000C94D1000C94D100DC
:100060000C94D1000C94D1000C94D1000C94D100CC
:100070000C94D1000C94D1000C94D1000C94D100BC
:100080000C94D1000C94D1000C94D1000C94D100AC
:100090000C94D1000C94D1000C94D1000C94D1009C
:1000A0000C94D1000C94D1000C94D1000C94D1008C
:1000B0000C94D1000C94D1000C94D1000C94D1007C
:1000C0000C94D1000C94D1000C94D1000C94D1006C
:1000D0000C94D1000C94D1000C94D1000C94D1005C
:1000E0000C94D1000C94D3050C94AF050C942E0302
:1000F0000C948B030C941A020C9467050C94C7059E
:100100000C94FC010C948B050C9443050C94A402F4
:100110000C947F050C9473050C9497050C941402B1
:100120000C945B050C9420020C94A3050C94B5026E
:100130000C9413030C9402020C9408020C944F05C7
:100140000C940E020C94B8030C94F6010C94DF0589
:100150000C94EB050C94D1020C94BB050C94F001AB
:1001600011241FBECFEFD1E2DEBFCDBF00E00CBF38
:1001700012E0A0E0B2E0EEEAF1E100E00BBF02C065
:1001800007900D92A636B107D9F722E0A6E6B2E0B5
:1001900001C01D92AC36B207E1F70E947F020C94B9
:1001A000B6080C9400005098589A089A109AE9E6FC
:1001B000F0E0808183608083E89A089589B181703E
:1001C000089581B1877E81B982B1886182B95198E1
:1001D000599A08950E94D3000E94E100089580B1C9
:1001E00083FB882780F991E08927089580B1829563
:1001F000817091E08927089589B18695817091E099
:10020000892708951F920F920FB60F92112402C0F2
:100210000E943008109880E00E9403044899F8CFAB
:100220000E94FC008823B1F3109AF89488E180932F
:100230006000FFCF9C0140E050E060E472E48FE09A
:1002400090E00E945908215031093093C500209355
:10025000C40088E18093C10086E08093C2000895C5
:100260009C0140E050E060E472E48FE090E00E9486
:100270005908215031093093CD002093CC0088E1FA
:100280008093C90086E08093CA000895E0ECF0E016
:10029000908195FFFDCF8093C6000895CF93DF93A3
:1002A000C82FD92F8881882331F021960E944601DA
:1002B00089918111FBCFDF91CF9108951F93CF9347
:1002C000DF93CDB7DEB761970FB6F894DEBF0FBEF0
:1002D000CDBF182F81E1E1E2F2E0DE01119601903D
:1002E0000D928A95E1F7812F82958F70E1E0F0E021
:1002F000EC0FFD1FE80FF11D80810E9446011F7069
:10030000E1E0F0E0EC0FFD1FE10FF11D80810E94A4
:10031000460161960FB6F894DEBF0FBECDBFDF91E8
:10032000CF911F9108950F931F93CF93DF93082FC1
:10033000162FD42FC22F82E392E00E944E01802F0D
:100340000E945E0180E20E944601812F0E945E01B0
:1003500080E20E9446018D2F0E945E0180E20E9491
:1003600046018C2F0E945E0182E692E00E944E01BF
:10037000E8ECF0E0908195FFFDCF0093CE00E8EC33
:10038000F0E0908195FFFDCF1093CE00E8ECF0E017
:10039000908195FFFDCFD093CE00E8ECF0E0908106
:1003A00095FFFDCFC093CE008DE492E00E944E01F8
:1003B000DF91CF911F910F910895E8ECF0E08081DB
:1003C0008823ECF78091CE000895E82FF92F242F91
:1003D0000997D8F58827E854F74F8F4F0C949A085F
:1003E000462F60E881E00E9493010895462F6FEF49
:1003F00081E00E9493010895462F60E081E00E9411
:1004000093010895462F6EE781E00E9493010895BD
:10041000462F6FE781E00E9493010895462F61E027
:1004200082E00E9493010895462F62E082E00E94DC
:1004300093010895462F61E083E00E94930108959F
:10044000462F62E083E00E9493010895109280009D
:100450008BE08093810088EA91E6909389008093F5
:10046000880008950E94260208950E94EA000E94D2
:10047000FC060E9426020E94F403789480E895E22C
:100480000E941A0180E895E20E9430010895282F09
:10049000392F2F3F3207C9F080910002909101025D
:1004A0008F3F980791F018161906DCF4B19B25C010
:1004B00082E086BB809100029091010201979093A7
:1004C00001028093000280E008953093010220939E
:1004D000000282E086BB109285001092840080E0CA
:1004E0000895892B11F080E008958FEF9FEF90938E
:1004F00001028093000281E0089580E0089500D019
:10050000CDB7DEB70E94350219820F2EFAE58F2E85
:10051000912CF02DC12CD12CE12CF12C312C1B82F3
:100520001A8201E010E066246394712C0F2EF8EC1F
:10053000AF2EB12CF02D412C512C212C1CC01B8234
:100540001A8205E010E017C00E94F600882319F017
:100550000E948D0710C00E94EF00882319F00E94AE
:10056000060809C00E94F10706C00E9410070E94F9
:10057000FC0081110AC007301105E8F7F80188274F
:10058000EF53F74F8F4F0C949A0885E090E00E944C
:100590004702811103C00E94F107F7CF02E0122D3C
:1005A000EACF8A819B818130910591F0823091055B
:1005B00051F1892B01F78FEF9FEF0E9447024FEF18
:1005C0006FEF862D972D0E94E5016A827B82D3CF43
:1005D000B701C6010E947E06C4010E944702811134
:1005E00009C00E94EF00882331F24A825B8203E057
:1005F00010E0C1CF4FEF60E2862D972D0E94E501FC
:100600001B830A83EECFB701C6010E947E060E94BB
:10061000EF000A811B81882309F4ADCF4A825B82F7
:1006200003E010E0A8CFEA81FB81319749F04FEF5A
:100630006FEF83E090E00E94E5016A827B829BCFAE
:10064000B701C6010E947E060E94DD01813009F0DB
:1006500092CF4A825B8206E010E08DCF8A819B8137
:100660008130910579F08230910581F1892B09F073
:1006700082CF4FEF60E1862D972D0E94E5016A82BF
:100680007B8279CFB701C6010E947E060E94F600E8
:100690008111A1C087E090E00E944702882309F4FD
:1006A0006ACF8FEF9FEF0E9447024FEF6FEF84E01A
:1006B00090E00E94E5019981911184C09FEFE91AB1
:1006C000F90AE2E0F0E0FB83EA8355CFB701C60107
:1006D0000E947E068AE090E00E944702882309F487
:1006E0004ACF311007C0332433944A825B8204E03E
:1006F00010E041CF8091C80088230CF020CF0E94E9
:10070000DD01E8ECF0E080818823CCF31B821A82C3
:1007100005E010E030CF8A819B81019749F04FEFCF
:100720006FEF87E090E00E94E5016A827B8223CF31
:100730000E947807F501808188230CF01CCF0E946D
:10074000DD01813009F017CF4FEF6FEF84E090E0CB
:100750000E94E5018FEF9FEF0E9447020F2EF6E403
:100760008F2E912CF02D1B821A8202E010E003CF15
:100770008A819B81019749F40E9406084FEF6FEF31
:1007800084E090E00E94E501F6CE4FEF6FEF84E049
:1007900090E00E94E5010E9406088FEF9FEF0E9403
:1007A00047020E942B058111FCCF6A827B82E3CE37
:1007B0008FEF9FEF0E9447024FEF6FEF84E090E0D2
:1007C0000E94E501EFEFCE1ADE0A198282E090E086
:1007D0009B838A83D0CE87E090E00E9447028111FC
:1007E000E7CF91E09983C7CE6D98759A82E08093A8
:1007F000900089E1809391008EE195E090939D00B7
:1008000080939C000895882339F06D9AE0E9F0E028
:1008100080818C60808308956D98E0E9F0E08081AC
:10082000837F808308959C01990F440B550B60E0F2
:1008300074E284EF90E00E947B08C9010895EF9272
:10084000FF920F931F93CF93DF93C82FD92FCB0124
:10085000E42EF52E022F132F0E944702811122C091
:100860009E01DD0F440B550B60E074E284EF90E0D5
:100870000E947B0830939700209396002FE832E087
:10088000E29EC001E39E900DF29E900D1124909384
:100890009D0080939C00DF91CF911F910F91FF905D
:1008A000EF900895F8018081918101969183808372
:1008B000F2CF80916A0290916B02892BD9F08091DE
:1008C0006A0290916B028330910509F443C034F5BC
:1008D0008130910599F18230910581F42AE632E068
:1008E0004AE050E061E070E08AE691E00E941F0477
:1008F00081E0089581E00E940304E1CF892B61F437
:100900002AE632E04AE050E061E070E08CEE91E0EF
:100910000E941F0481E0089581E0089584309105CC
:1009200029F1059749F480E00E94030410926B02BC
:1009300010926A0280E0089581E008952AE632E08C
:1009400040E050E061E070E08EEA91E00E941F0418
:1009500081E008952AE632E04AE050E061E070E08C
:100960008FE692E00E941F0481E008952AE632E0BB
:1009700040E050E061E070E08FE692E00E941F04EA
:1009800081E008958091680290916902892BD9F0E5
:1009900080916802909169028330910509F443C007
:1009A00034F58130910599F18230910581F428E682
:1009B00032E041E050E063E070E08AE891E00E94BC
:1009C0001F0481E0089581E00E940304E1CF892B98
:1009D00061F428E632E041E050E063E070E08EEA46
:1009E00091E00E941F0481E0089581E00895843021
:1009F000910529F1059749F480E00E9403041092C3
:100A000069021092680280E0089581E0089528E666
:100A100032E040E050E062E070E08EEA91E00E9457
:100A20001F0481E0089528E632E041E050E067E0ED
:100A300070E08AE691E00E941F0481E0089528E6B4
:100A400032E040E050E06EE170E08FE692E00E941C
:100A50001F0481E008958091660290916702892BBE
:100A600071F0E0916602F0916702EF30F10508F055
:100A7000BBC08827E853F74F8F4F0C949A0881E04A
:100A80000E940304EECF26E632E041E050E061E050
:100A900070E08FE692E00E941F0481E0089526E650
:100AA00032E041E050E061E070E082E592E00E94D7
:100AB0001F0481E0089526E632E041E050E062E064
:100AC00070E08EEA91E00E941F0481E0089526E61E
:100AD00032E041E050E062E070E081EC91E00E94A1
:100AE0001F0481E0089526E632E041E050E061E035
:100AF00070E082E592E00E941F0481E0089526E6FE
:100B000032E041E050E061E070E08CE192E00E9470
:100B10001F0481E0089526E632E041E050E062E003
:100B200070E08AE691E00E941F0481E0089526E6C5
:100B300032E041E050E062E070E08AE891E00E943B
:100B40001F0481E0089526E632E041E050E061E0D4
:100B500070E08CE192E00E941F0481E0089526E697
:100B600032E041E050E061E070E08CEE91E00E9404
:100B70001F0481E0089526E632E041E050E062E0A3
:100B800070E08AE691E00E941F0481E0089526E665
:100B900032E041E050E062E070E08AE891E00E94DB
:100BA0001F0481E0089526E632E041E050E065E070
:100BB00070E08EEA91E00E941F0481E0089526E62D
:100BC00032E040E050E065E070E08AE691E00E94AB
:100BD0001F0481E0089580E00E94030410926702E0
:100BE0001092660280E0089581E00895EAE0F1E065
:100BF000808180688083EBE0F1E080818068808381
:100C000080818062808380818F7780830895EAE08D
:100C1000F1E0808180688083EBE0F1E080818F7D6E
:100C20008083808180628083808180688083089552
:100C3000EAE0F1E090819068908328E030E0EBE01A
:100C4000F1E00CC090819F779083908190629083B7
:100C50008695215031092115310549F090819F7DFC
:100C6000908380FFEFCF908190689083EECFEBE090
:100C7000F1E080818F7D8083808180628083089510
:100C8000CF93C82F0E94F6058C2F877088680E942A
:100C900018060E940706CF910895EF92FF921F93C6
:100CA000CF93DF93D82FC92F0E94F60580E40E94CE
:100CB00018060E94070613EC0F2EFAE0EF2EF12C17
:100CC000F02D0E94F605812F0E9418068D2F9C2F73
:100CD000B7010E944508D62FC72FFC01EA5EFD4FE1
:100CE00080810E9418060E94070611501F3B49F799
:100CF000DF91CF911F91FF90EF900895EF92FF92B7
:100D00000F931F93CF93DF9300D000D00F920F92D9
:100D1000CDB7DEB7E82EF92E84E6E816F1042CF004
:100D20000F2EF3E6EF2EF12CF02DFF200CF447C030
:100D3000062F172F0436110514F003E610E01123D7
:100D40000CF440C00E94F60580E40E9418060E9440
:100D500007062AE030E0C701B9010E9445087A83FE
:100D600069839C838B83C801B9010E9445087E83F7
:100D70006D8398878F83DE0111967D0110EC0E94B0
:100D8000F605812F0E941806D701ED91FD917D0196
:100D9000EA5EFD4F80810E9418060E9407061F5FD1
:100DA000143C69F728960FB6F894DEBF0FBECDBF8E
:100DB000DF91CF911F910F91FF90EF900895E12C5B
:100DC000F12CB6CF00E010E0BDCF1F93CF93DF939F
:100DD000C82FD92F162F0E94F60580EC810F0E9494
:100DE0001806CE5FDD4F88810E9418060E94070614
:100DF000DF91CF911F910895EAE0F1E08081806852
:100E00008083808180628083EBE0F1E08081806874
:100E1000808380818062808382E00E944006089502
:100E200060E083E190E00E94E50661E083E090E00D
:100E30000E94E50662E086E090E00E94E50663E03D
:100E400087E090E00E94E506089584E090E00E942B
:100E50004D0661E081E090E00E94E50662E085E0F9
:100E600090E00E94E50663E088E090E00E94E506DD
:100E7000089560E081E190E00E94E50661E088E08D
:100E800090E00E94E50662E087E090E00E94E506BF
:100E900063E08BE090E00E94E506089560E083E166
:100EA00090E00E94E50661E086E090E00E94E506A1
:100EB00062E08DE090E00E94E50663E08BE090E068
:100EC0000E94E506089560E083E190E00E94E50657
:100ED00061E083E090E00E94E50662E08CE090E053
:100EE0000E94E50663E081E190E00E94E506089536
:100EF00060E081E190E00E94E50661E082E190E03F
:100F00000E94E50662E08FE090E00E94E50663E063
:100F10008CE090E00E94E506089560E084E090E0B7
:100F20000E94E50661E089E090E00E94E50662E04B
:100F300080E190E00E94E50663E081E190E00E949C
:100F4000E506089560E083E190E00E94E50661E037
:100F50008EE090E00E94E50662E081E090E00E9471
:100F6000E50663E083E090E00E94E50608958823AB
:100F700019F00E944E0708950E94A207089560E0AC
:100F80008BE090E00E94E50661E085E090E00E9441
:100F9000E50662E086E090E00E94E50663E081E11C
:100FA00090E00E94E506089560E08FE090E00E94E6
:100FB000E50661E087E090E00E94E50662E088E0F7
:100FC00090E00E94E50663E081E190E00E94E50682
:100FD0000895882319F00E94D40708950E94BF073E
:100FE000089560E083E190E00E94E50661E083E11E
:100FF00090E00E94E50662E087E090E00E94E5064E
:1010000063E08DE090E00E94E506089560E083E1F2
:1010100090E00E94E50661E085E090E00E94E50630
:1010200062E08CE090E00E94E50663E084E090E0FE
:101030000E94E506089560E080E190E00E94E506E8
:1010400061E08FE090E00E94E50662E083E090E0DE
:101050000E94E50663E088E090E00E94E5060895BE
:1010600060E080E190E00E94E50661E081E190E0CF
:101070000E94E50662E08DE090E00E94E50663E0F4
:101080008EE090E00E94E506089597FB072E16F487
:10109000009407D077FD09D00E94A20807FC05D074
:1010A0003EF4909581959F4F0895709561957F4F7F
:1010B0000895A1E21A2EAA1BBB1BFD010DC0AA1F99
:1010C000BB1FEE1FFF1FA217B307E407F50720F0B1
:1010D000A21BB30BE40BF50B661F771F881F991F2C
:1010E0001A9469F760957095809590959B01AC0175
:1010F000BD01CF010895052E97FB1EF400940E94B8
:10110000920857FD07D00E94590807FC03D04EF4FF
:101110000C94920850954095309521953F4F4F4F34
:101120005F4F089590958095709561957F4F8F4F93
:101130009F4F0895EE0FFF1F881F8BBF0790F691FA
:10114000E02D1994AA1BBB1B51E107C0AA1FBB1FAE
:10115000A617B70710F0A61BB70B881F991F5A9543
:10116000A9F780959095BC01CD010895F894FFCF23
:10117000F001F601FC01020208020E0214021A023A
:101180002002A402B502D1022E038B031303B8037D
:1011900043054F055B05670573057F058B059705BF
:0E11A000A305AF05BB05C705D305DF05EB05AD
:1011AE00FFFF40777C395E79713D74060E38373F0C
:1011BE0073316D783E003F065B4F666D7D077F6F26
:1011CE0000303132333435363738394142434445B5
:1011DE0046004D41535445523A2053656E64696E34
:1011EE006720746F20536C6176653A20004D415331
:1011FE005445523A20436F6D6D616E642073656E77
:06120E00742E0D0A000021
:00000001FF
